{
  "contractName": "Basic",
  "abi": [
    {
      "inputs": [
        {
          "internalType": "contract IGatewayRegistry",
          "name": "_registry",
          "type": "address"
        }
      ],
      "stateMutability": "nonpayable",
      "type": "constructor"
    },
    {
      "anonymous": false,
      "inputs": [
        {
          "indexed": false,
          "internalType": "uint256",
          "name": "_amount",
          "type": "uint256"
        },
        {
          "indexed": false,
          "internalType": "bytes",
          "name": "_msg",
          "type": "bytes"
        }
      ],
      "name": "Deposit",
      "type": "event"
    },
    {
      "anonymous": false,
      "inputs": [
        {
          "indexed": false,
          "internalType": "bytes",
          "name": "_to",
          "type": "bytes"
        },
        {
          "indexed": false,
          "internalType": "uint256",
          "name": "_amount",
          "type": "uint256"
        },
        {
          "indexed": false,
          "internalType": "bytes",
          "name": "_msg",
          "type": "bytes"
        }
      ],
      "name": "Withdrawal",
      "type": "event"
    },
    {
      "inputs": [],
      "name": "registry",
      "outputs": [
        {
          "internalType": "contract IGatewayRegistry",
          "name": "",
          "type": "address"
        }
      ],
      "stateMutability": "view",
      "type": "function"
    },
    {
      "inputs": [
        {
          "internalType": "bytes",
          "name": "_msg",
          "type": "bytes"
        },
        {
          "internalType": "uint256",
          "name": "_amount",
          "type": "uint256"
        },
        {
          "internalType": "bytes32",
          "name": "_nHash",
          "type": "bytes32"
        },
        {
          "internalType": "bytes",
          "name": "_sig",
          "type": "bytes"
        }
      ],
      "name": "deposit",
      "outputs": [],
      "stateMutability": "nonpayable",
      "type": "function"
    },
    {
      "inputs": [
        {
          "internalType": "bytes",
          "name": "_msg",
          "type": "bytes"
        },
        {
          "internalType": "bytes",
          "name": "_to",
          "type": "bytes"
        },
        {
          "internalType": "uint256",
          "name": "_amount",
          "type": "uint256"
        }
      ],
      "name": "withdraw",
      "outputs": [],
      "stateMutability": "nonpayable",
      "type": "function"
    },
    {
      "inputs": [],
      "name": "balance",
      "outputs": [
        {
          "internalType": "uint256",
          "name": "",
          "type": "uint256"
        }
      ],
      "stateMutability": "view",
      "type": "function"
    }
  ],
  "bytecode": "0x608060405234801561001057600080fd5b50604051610c5e380380610c5e8339818101604052810190610032919061008d565b806000806101000a81548173ffffffffffffffffffffffffffffffffffffffff021916908373ffffffffffffffffffffffffffffffffffffffff16021790555050610111565b600081519050610087816100fa565b92915050565b60006020828403121561009f57600080fd5b60006100ad84828501610078565b91505092915050565b60006100c1826100da565b9050919050565b60006100d3826100b6565b9050919050565b600073ffffffffffffffffffffffffffffffffffffffff82169050919050565b610103816100c8565b811461010e57600080fd5b50565b610b3e806101206000396000f3fe608060405234801561001057600080fd5b506004361061004c5760003560e01c80632012aca7146100515780632b3a8c8f1461006d5780637b10399914610089578063b69ef8a8146100a7575b600080fd5b61006b6004803603810190610066919061068d565b6100c5565b005b61008760048036038101906100829190610604565b610275565b005b6100916103f6565b60405161009e9190610954565b60405180910390f35b6100af61041a565b6040516100bc919061098f565b60405180910390f35b600086866040516020016100da9291906108b5565b60405160208183030381529060405280519060200120905060008060009054906101000a900473ffffffffffffffffffffffffffffffffffffffff1673ffffffffffffffffffffffffffffffffffffffff166364936b1e6040518163ffffffff1660e01b815260040161014c9061096f565b60206040518083038186803b15801561016457600080fd5b505afa158015610178573d6000803e3d6000fd5b505050506040513d601f19601f8201168201806040525081019061019c9190610751565b73ffffffffffffffffffffffffffffffffffffffff1663159ab14d83888888886040518663ffffffff1660e01b81526004016101dc959493929190610867565b602060405180830381600087803b1580156101f657600080fd5b505af115801561020a573d6000803e3d6000fd5b505050506040513d601f19601f8201168201806040525081019061022e919061077a565b90507f39ad770f9ce7344fadb857c83f6206aa00bf105d7ff26b65d54cdadad280be8e818989604051610263939291906109aa565b60405180910390a15050505050505050565b60008060009054906101000a900473ffffffffffffffffffffffffffffffffffffffff1673ffffffffffffffffffffffffffffffffffffffff166364936b1e6040518163ffffffff1660e01b81526004016102cf9061096f565b60206040518083038186803b1580156102e757600080fd5b505afa1580156102fb573d6000803e3d6000fd5b505050506040513d601f19601f8201168201806040525081019061031f9190610751565b73ffffffffffffffffffffffffffffffffffffffff166338463cff8585856040518463ffffffff1660e01b815260040161035b939291906108d9565b602060405180830381600087803b15801561037557600080fd5b505af1158015610389573d6000803e3d6000fd5b505050506040513d601f19601f820116820180604052508101906103ad919061077a565b90507f0cff308d027e58d13ec4aca9075216c4017a9927cce1b0283d1200622d7b7e1184848389896040516103e695949392919061090b565b60405180910390a1505050505050565b60008054906101000a900473ffffffffffffffffffffffffffffffffffffffff1681565b60008060009054906101000a900473ffffffffffffffffffffffffffffffffffffffff1673ffffffffffffffffffffffffffffffffffffffff1663efa74f1f6040518163ffffffff1660e01b81526004016104749061096f565b60206040518083038186803b15801561048c57600080fd5b505afa1580156104a0573d6000803e3d6000fd5b505050506040513d601f19601f820116820180604052508101906104c49190610728565b73ffffffffffffffffffffffffffffffffffffffff166370a08231306040518263ffffffff1660e01b81526004016104fc919061084c565b60206040518083038186803b15801561051457600080fd5b505afa158015610528573d6000803e3d6000fd5b505050506040513d601f19601f8201168201806040525081019061054c919061077a565b905090565b60008135905061056081610aac565b92915050565b60008083601f84011261057857600080fd5b8235905067ffffffffffffffff81111561059157600080fd5b6020830191508360018202830111156105a957600080fd5b9250929050565b6000815190506105bf81610ac3565b92915050565b6000815190506105d481610ada565b92915050565b6000813590506105e981610af1565b92915050565b6000815190506105fe81610af1565b92915050565b60008060008060006060868803121561061c57600080fd5b600086013567ffffffffffffffff81111561063657600080fd5b61064288828901610566565b9550955050602086013567ffffffffffffffff81111561066157600080fd5b61066d88828901610566565b93509350506040610680888289016105da565b9150509295509295909350565b600080600080600080608087890312156106a657600080fd5b600087013567ffffffffffffffff8111156106c057600080fd5b6106cc89828a01610566565b965096505060206106df89828a016105da565b94505060406106f089828a01610551565b935050606087013567ffffffffffffffff81111561070d57600080fd5b61071989828a01610566565b92509250509295509295509295565b60006020828403121561073a57600080fd5b6000610748848285016105b0565b91505092915050565b60006020828403121561076357600080fd5b6000610771848285016105c5565b91505092915050565b60006020828403121561078c57600080fd5b600061079a848285016105ef565b91505092915050565b6107ac816109fe565b82525050565b6107bb81610a10565b82525050565b60006107cd83856109dc565b93506107da838584610a8c565b6107e383610a9b565b840190509392505050565b6107f781610a68565b82525050565b600061080a6003836109ed565b91507f42544300000000000000000000000000000000000000000000000000000000006000830152602082019050919050565b61084681610a5e565b82525050565b600060208201905061086160008301846107a3565b92915050565b600060808201905061087c60008301886107b2565b610889602083018761083d565b61089660408301866107b2565b81810360608301526108a98184866107c1565b90509695505050505050565b600060208201905081810360008301526108d08184866107c1565b90509392505050565b600060408201905081810360008301526108f48185876107c1565b9050610903602083018461083d565b949350505050565b600060608201905081810360008301526109268187896107c1565b9050610935602083018661083d565b81810360408301526109488184866107c1565b90509695505050505050565b600060208201905061096960008301846107ee565b92915050565b60006020820190508181036000830152610988816107fd565b9050919050565b60006020820190506109a4600083018461083d565b92915050565b60006040820190506109bf600083018661083d565b81810360208301526109d28184866107c1565b9050949350505050565b600082825260208201905092915050565b600082825260208201905092915050565b6000610a0982610a3e565b9050919050565b6000819050919050565b6000610a25826109fe565b9050919050565b6000610a37826109fe565b9050919050565b600073ffffffffffffffffffffffffffffffffffffffff82169050919050565b6000819050919050565b6000610a7382610a7a565b9050919050565b6000610a8582610a3e565b9050919050565b82818337600083830152505050565b6000601f19601f8301169050919050565b610ab581610a10565b8114610ac057600080fd5b50565b610acc81610a1a565b8114610ad757600080fd5b50565b610ae381610a2c565b8114610aee57600080fd5b50565b610afa81610a5e565b8114610b0557600080fd5b5056fea26469706673582212204e2912f32c62378024e7cf7ae6137bfcfeb3c9940b9873e8a3bca6d5c75e547c64736f6c63430008000033",
  "immutableReferences": {},
  "source": "// SPDX-License-Identifier: MIT\r\npragma solidity >=0.4.22 <0.9.0;\r\n\r\ninterface IERC20 {\r\n    function balanceOf(address account) external view returns (uint256);\r\n}\r\n\r\ninterface IGateway {\r\n    function mint(bytes32 _pHash, uint256 _amount, bytes32 _nHash, bytes calldata _sig) external returns (uint256);\r\n    function burn(bytes calldata _to, uint256 _amount) external returns (uint256);\r\n}\r\n\r\ninterface IGatewayRegistry {\r\n    function getGatewayBySymbol(string calldata _tokenSymbol) external view returns (IGateway);\r\n    function getTokenBySymbol(string calldata _tokenSymbol) external view returns (IERC20);\r\n}\r\n\r\n// interface IRenERC20{\r\n\r\n//     function balanceOf(address addr) external view returns(uint256);\r\n//     function totalSupply() external view returns(uint256);\r\n//     function allowance(address _owner, address _spender) external returns(uint256);\r\n//     function transfer(address _to, uint256 _value) external returns(bool);\r\n//     function transferFrom(address _from, address _value) external returns(bool);\r\n//     function approve(address _spender, uint256 _value) external returns(bool); \r\n\r\n// }\r\n\r\n\r\ncontract Basic{\r\n\r\n    IGatewayRegistry public registry;\r\n\r\n    event Deposit(uint256 _amount, bytes _msg);\r\n    event Withdrawal(bytes _to, uint256 _amount, bytes _msg);\r\n\r\n    constructor(IGatewayRegistry _registry){\r\n        registry = _registry;\r\n    }\r\n\r\n    function deposit(bytes calldata _msg, uint256 _amount, bytes32 _nHash, bytes calldata _sig) external{\r\n        bytes32 pHash = keccak256(abi.encode(_msg));\r\n        uint256 mintedAmount = registry.getGatewayBySymbol(\"BTC\").mint(pHash, _amount, _nHash, _sig);\r\n        emit Deposit(mintedAmount, _msg);\r\n    }\r\n\r\n    function withdraw(bytes calldata _msg, bytes calldata _to, uint256 _amount) external {\r\n        uint256 burnedAmount = registry.getGatewayBySymbol(\"BTC\").burn(_to, _amount);\r\n        emit Withdrawal(_to, burnedAmount, _msg);\r\n    }\r\n\r\n    function balance() public view returns (uint256) {\r\n        return registry.getTokenBySymbol(\"BTC\").balanceOf(address(this));\r\n    }\r\n}\r\n",
  "sourcePath": "D:/BlockChain/Ethereum-201/Ren-project/contracts/basic.sol",
  "compiler": {
    "name": "solc",
    "version": "0.8.0+commit.c7dfd78e.Emscripten.clang"
  },
  "schemaVersion": "3.4.1",
  "updatedAt": "2021-10-26T06:28:29.775Z",
  "devdoc": {
    "kind": "dev",
    "methods": {},
    "version": 1
  },
  "userdoc": {
    "kind": "user",
    "methods": {},
    "version": 1
  }
}