{
  "contractName": "Basic",
  "abi": [
    {
      "inputs": [
        {
          "internalType": "contract IGatewayRegistry",
          "name": "_registry",
          "type": "address"
        }
      ],
      "stateMutability": "nonpayable",
      "type": "constructor"
    },
    {
      "anonymous": false,
      "inputs": [
        {
          "indexed": false,
          "internalType": "uint256",
          "name": "_amount",
          "type": "uint256"
        },
        {
          "indexed": false,
          "internalType": "bytes",
          "name": "_msg",
          "type": "bytes"
        }
      ],
      "name": "Deposit",
      "type": "event"
    },
    {
      "anonymous": false,
      "inputs": [
        {
          "indexed": false,
          "internalType": "bytes",
          "name": "_to",
          "type": "bytes"
        },
        {
          "indexed": false,
          "internalType": "uint256",
          "name": "_amount",
          "type": "uint256"
        },
        {
          "indexed": false,
          "internalType": "bytes",
          "name": "_msg",
          "type": "bytes"
        }
      ],
      "name": "Withdrawal",
      "type": "event"
    },
    {
      "inputs": [],
      "name": "registry",
      "outputs": [
        {
          "internalType": "contract IGatewayRegistry",
          "name": "",
          "type": "address"
        }
      ],
      "stateMutability": "view",
      "type": "function",
      "constant": true
    },
    {
      "inputs": [
        {
          "internalType": "bytes",
          "name": "_msg",
          "type": "bytes"
        },
        {
          "internalType": "uint256",
          "name": "_amount",
          "type": "uint256"
        },
        {
          "internalType": "bytes32",
          "name": "_nHash",
          "type": "bytes32"
        },
        {
          "internalType": "bytes",
          "name": "_sig",
          "type": "bytes"
        }
      ],
      "name": "deposit",
      "outputs": [],
      "stateMutability": "nonpayable",
      "type": "function"
    },
    {
      "inputs": [
        {
          "internalType": "address",
          "name": "to",
          "type": "address"
        },
        {
          "internalType": "bytes32",
          "name": "nonce",
          "type": "bytes32"
        },
        {
          "internalType": "string",
          "name": "symbol",
          "type": "string"
        },
        {
          "internalType": "uint256",
          "name": "_amount",
          "type": "uint256"
        },
        {
          "internalType": "bytes32",
          "name": "_nHash",
          "type": "bytes32"
        },
        {
          "internalType": "bytes",
          "name": "_sig",
          "type": "bytes"
        }
      ],
      "name": "temporaryMint",
      "outputs": [],
      "stateMutability": "nonpayable",
      "type": "function"
    },
    {
      "inputs": [
        {
          "internalType": "bytes",
          "name": "_msg",
          "type": "bytes"
        },
        {
          "internalType": "bytes",
          "name": "_to",
          "type": "bytes"
        },
        {
          "internalType": "uint256",
          "name": "_amount",
          "type": "uint256"
        }
      ],
      "name": "withdraw",
      "outputs": [],
      "stateMutability": "nonpayable",
      "type": "function"
    },
    {
      "inputs": [],
      "name": "balance",
      "outputs": [
        {
          "internalType": "uint256",
          "name": "",
          "type": "uint256"
        }
      ],
      "stateMutability": "view",
      "type": "function",
      "constant": true
    }
  ],
  "bytecode": "0x60806040523480156200001157600080fd5b506040516200122638038062001226833981810160405281019062000037919062000095565b806000806101000a81548173ffffffffffffffffffffffffffffffffffffffff021916908373ffffffffffffffffffffffffffffffffffffffff1602179055505062000123565b6000815190506200008f8162000109565b92915050565b600060208284031215620000a857600080fd5b6000620000b8848285016200007e565b91505092915050565b6000620000ce82620000e9565b9050919050565b6000620000e282620000c1565b9050919050565b600073ffffffffffffffffffffffffffffffffffffffff82169050919050565b6200011481620000d5565b81146200012057600080fd5b50565b6110f380620001336000396000f3fe608060405234801561001057600080fd5b50600436106100575760003560e01c80632012aca71461005c5780632b3a8c8f146100785780636f73cbf3146100945780637b103999146100b0578063b69ef8a8146100ce575b600080fd5b61007660048036038101906100719190610b05565b6100ec565b005b610092600480360381019061008d9190610a7c565b61029c565b005b6100ae60048036038101906100a99190610990565b61041d565b005b6100b861070e565b6040516100c59190610e8b565b60405180910390f35b6100d6610732565b6040516100e39190610f0a565b60405180910390f35b60008686604051602001610101929190610dec565b60405160208183030381529060405280519060200120905060008060009054906101000a900473ffffffffffffffffffffffffffffffffffffffff1673ffffffffffffffffffffffffffffffffffffffff166364936b1e6040518163ffffffff1660e01b815260040161017390610eea565b60206040518083038186803b15801561018b57600080fd5b505afa15801561019f573d6000803e3d6000fd5b505050506040513d601f19601f820116820180604052508101906101c39190610bc9565b73ffffffffffffffffffffffffffffffffffffffff1663159ab14d83888888886040518663ffffffff1660e01b8152600401610203959493929190610d9e565b602060405180830381600087803b15801561021d57600080fd5b505af1158015610231573d6000803e3d6000fd5b505050506040513d601f19601f820116820180604052508101906102559190610bf2565b90507f39ad770f9ce7344fadb857c83f6206aa00bf105d7ff26b65d54cdadad280be8e81898960405161028a93929190610f25565b60405180910390a15050505050505050565b60008060009054906101000a900473ffffffffffffffffffffffffffffffffffffffff1673ffffffffffffffffffffffffffffffffffffffff166364936b1e6040518163ffffffff1660e01b81526004016102f690610eea565b60206040518083038186803b15801561030e57600080fd5b505afa158015610322573d6000803e3d6000fd5b505050506040513d601f19601f820116820180604052508101906103469190610bc9565b73ffffffffffffffffffffffffffffffffffffffff166338463cff8585856040518463ffffffff1660e01b815260040161038293929190610e10565b602060405180830381600087803b15801561039c57600080fd5b505af11580156103b0573d6000803e3d6000fd5b505050506040513d601f19601f820116820180604052508101906103d49190610bf2565b90507f0cff308d027e58d13ec4aca9075216c4017a9927cce1b0283d1200622d7b7e11848483898960405161040d959493929190610e42565b60405180910390a1505050505050565b60008888604051602001610432929190610d4c565b60405160208183030381529060405280519060200120905060008060009054906101000a900473ffffffffffffffffffffffffffffffffffffffff1673ffffffffffffffffffffffffffffffffffffffff166364936b1e89896040518363ffffffff1660e01b81526004016104a8929190610ea6565b60206040518083038186803b1580156104c057600080fd5b505afa1580156104d4573d6000803e3d6000fd5b505050506040513d601f19601f820116820180604052508101906104f89190610bc9565b73ffffffffffffffffffffffffffffffffffffffff1663159ab14d83888888886040518663ffffffff1660e01b8152600401610538959493929190610d9e565b602060405180830381600087803b15801561055257600080fd5b505af1158015610566573d6000803e3d6000fd5b505050506040513d601f19601f8201168201806040525081019061058a9190610bf2565b905060008054906101000a900473ffffffffffffffffffffffffffffffffffffffff1673ffffffffffffffffffffffffffffffffffffffff1663efa74f1f89896040518363ffffffff1660e01b81526004016105e7929190610ea6565b60206040518083038186803b1580156105ff57600080fd5b505afa158015610613573d6000803e3d6000fd5b505050506040513d601f19601f820116820180604052508101906106379190610ba0565b73ffffffffffffffffffffffffffffffffffffffff1663a9059cbb8b836040518363ffffffff1660e01b8152600401610671929190610d75565b602060405180830381600087803b15801561068b57600080fd5b505af115801561069f573d6000803e3d6000fd5b505050506040513d601f19601f820116820180604052508101906106c39190610a53565b610702576040517f08c379a00000000000000000000000000000000000000000000000000000000081526004016106f990610eca565b60405180910390fd5b50505050505050505050565b60008054906101000a900473ffffffffffffffffffffffffffffffffffffffff1681565b60008060009054906101000a900473ffffffffffffffffffffffffffffffffffffffff1673ffffffffffffffffffffffffffffffffffffffff1663efa74f1f6040518163ffffffff1660e01b815260040161078c90610eea565b60206040518083038186803b1580156107a457600080fd5b505afa1580156107b8573d6000803e3d6000fd5b505050506040513d601f19601f820116820180604052508101906107dc9190610ba0565b73ffffffffffffffffffffffffffffffffffffffff166370a08231306040518263ffffffff1660e01b81526004016108149190610d31565b60206040518083038186803b15801561082c57600080fd5b505afa158015610840573d6000803e3d6000fd5b505050506040513d601f19601f820116820180604052508101906108649190610bf2565b905090565b60008135905061087881611033565b92915050565b60008151905061088d8161104a565b92915050565b6000813590506108a281611061565b92915050565b60008083601f8401126108ba57600080fd5b8235905067ffffffffffffffff8111156108d357600080fd5b6020830191508360018202830111156108eb57600080fd5b9250929050565b60008151905061090181611078565b92915050565b6000815190506109168161108f565b92915050565b60008083601f84011261092e57600080fd5b8235905067ffffffffffffffff81111561094757600080fd5b60208301915083600182028301111561095f57600080fd5b9250929050565b600081359050610975816110a6565b92915050565b60008151905061098a816110a6565b92915050565b60008060008060008060008060c0898b0312156109ac57600080fd5b60006109ba8b828c01610869565b98505060206109cb8b828c01610893565b975050604089013567ffffffffffffffff8111156109e857600080fd5b6109f48b828c0161091c565b96509650506060610a078b828c01610966565b9450506080610a188b828c01610893565b93505060a089013567ffffffffffffffff811115610a3557600080fd5b610a418b828c016108a8565b92509250509295985092959890939650565b600060208284031215610a6557600080fd5b6000610a738482850161087e565b91505092915050565b600080600080600060608688031215610a9457600080fd5b600086013567ffffffffffffffff811115610aae57600080fd5b610aba888289016108a8565b9550955050602086013567ffffffffffffffff811115610ad957600080fd5b610ae5888289016108a8565b93509350506040610af888828901610966565b9150509295509295909350565b60008060008060008060808789031215610b1e57600080fd5b600087013567ffffffffffffffff811115610b3857600080fd5b610b4489828a016108a8565b96509650506020610b5789828a01610966565b9450506040610b6889828a01610893565b935050606087013567ffffffffffffffff811115610b8557600080fd5b610b9189828a016108a8565b92509250509295509295509295565b600060208284031215610bb257600080fd5b6000610bc0848285016108f2565b91505092915050565b600060208284031215610bdb57600080fd5b6000610be984828501610907565b91505092915050565b600060208284031215610c0457600080fd5b6000610c128482850161097b565b91505092915050565b610c2481610f79565b82525050565b610c3381610f97565b82525050565b6000610c458385610f57565b9350610c52838584611013565b610c5b83611022565b840190509392505050565b610c6f81610fef565b82525050565b6000610c818385610f68565b9350610c8e838584611013565b610c9783611022565b840190509392505050565b6000610caf601883610f68565b91507f6661696c656420746f207472616e7366657220746f6b656e00000000000000006000830152602082019050919050565b6000610cef600383610f68565b91507f42544300000000000000000000000000000000000000000000000000000000006000830152602082019050919050565b610d2b81610fe5565b82525050565b6000602082019050610d466000830184610c1b565b92915050565b6000604082019050610d616000830185610c1b565b610d6e6020830184610c2a565b9392505050565b6000604082019050610d8a6000830185610c1b565b610d976020830184610d22565b9392505050565b6000608082019050610db36000830188610c2a565b610dc06020830187610d22565b610dcd6040830186610c2a565b8181036060830152610de0818486610c39565b90509695505050505050565b60006020820190508181036000830152610e07818486610c39565b90509392505050565b60006040820190508181036000830152610e2b818587610c39565b9050610e3a6020830184610d22565b949350505050565b60006060820190508181036000830152610e5d818789610c39565b9050610e6c6020830186610d22565b8181036040830152610e7f818486610c39565b90509695505050505050565b6000602082019050610ea06000830184610c66565b92915050565b60006020820190508181036000830152610ec1818486610c75565b90509392505050565b60006020820190508181036000830152610ee381610ca2565b9050919050565b60006020820190508181036000830152610f0381610ce2565b9050919050565b6000602082019050610f1f6000830184610d22565b92915050565b6000604082019050610f3a6000830186610d22565b8181036020830152610f4d818486610c39565b9050949350505050565b600082825260208201905092915050565b600082825260208201905092915050565b6000610f8482610fc5565b9050919050565b60008115159050919050565b6000819050919050565b6000610fac82610f79565b9050919050565b6000610fbe82610f79565b9050919050565b600073ffffffffffffffffffffffffffffffffffffffff82169050919050565b6000819050919050565b6000610ffa82611001565b9050919050565b600061100c82610fc5565b9050919050565b82818337600083830152505050565b6000601f19601f8301169050919050565b61103c81610f79565b811461104757600080fd5b50565b61105381610f8b565b811461105e57600080fd5b50565b61106a81610f97565b811461107557600080fd5b50565b61108181610fa1565b811461108c57600080fd5b50565b61109881610fb3565b81146110a357600080fd5b50565b6110af81610fe5565b81146110ba57600080fd5b5056fea26469706673582212204abe8d3c7a5b000566b5a0516ba063b073b083ece6c98ffc4aa72f133b3c209764736f6c63430008000033",
  "immutableReferences": {},
  "source": "// SPDX-License-Identifier: MIT\r\npragma solidity >=0.4.22 <0.9.0;\r\n\r\ninterface IERC20 {\r\n    function balanceOf(address account) external view returns (uint256);\r\n    function transfer(address recipient, uint256 amount) external returns (bool);\r\n}\r\n\r\ninterface IGateway {\r\n    function mint(bytes32 _pHash, uint256 _amount, bytes32 _nHash, bytes calldata _sig) external returns (uint256);\r\n    function burn(bytes calldata _to, uint256 _amount) external returns (uint256);\r\n}\r\n\r\ninterface IGatewayRegistry {\r\n    function getGatewayBySymbol(string calldata _tokenSymbol) external view returns (IGateway);\r\n    function getTokenBySymbol(string calldata _tokenSymbol) external view returns (IERC20);\r\n}\r\n\r\n\r\ncontract Basic{\r\n\r\n    IGatewayRegistry public registry;\r\n\r\n    event Deposit(uint256 _amount, bytes _msg);\r\n    event Withdrawal(bytes _to, uint256 _amount, bytes _msg);\r\n\r\n    constructor(IGatewayRegistry _registry){\r\n        registry = _registry;\r\n    }\r\n\r\n    function deposit(bytes calldata _msg, uint256 _amount, bytes32 _nHash, bytes calldata _sig) external{\r\n        bytes32 pHash = keccak256(abi.encode(_msg));\r\n        uint256 mintedAmount = registry.getGatewayBySymbol(\"BTC\").mint(pHash, _amount, _nHash, _sig);\r\n        emit Deposit(mintedAmount, _msg);\r\n    }\r\n    \r\n    function temporaryMint(address to, \r\n                           bytes32 nonce, \r\n                           string calldata symbol,\r\n                           uint _amount,\r\n                           bytes32 _nHash,\r\n                           bytes calldata _sig) external{\r\n\r\n        bytes32 pHash = keccak256(abi.encode(to, nonce));\r\n        uint256 mintedAmount = registry.getGatewayBySymbol(symbol).mint(pHash, _amount, _nHash, _sig);\r\n        require(registry.getTokenBySymbol(symbol).transfer(to, mintedAmount), 'failed to transfer token');                           \r\n    }\r\n\r\n    function withdraw(bytes calldata _msg, bytes calldata _to, uint256 _amount) external {\r\n        uint256 burnedAmount = registry.getGatewayBySymbol(\"BTC\").burn(_to, _amount);\r\n        emit Withdrawal(_to, burnedAmount, _msg);\r\n    }\r\n\r\n    function balance() public view returns (uint256) {\r\n        return registry.getTokenBySymbol(\"BTC\").balanceOf(address(this));\r\n    }\r\n}\r\n",
  "sourcePath": "D:/BlockChain/Ethereum-201/Ren-project/contracts/Basic.sol",
  "compiler": {
    "name": "solc",
    "version": "0.8.0+commit.c7dfd78e.Emscripten.clang"
  },
  "schemaVersion": "3.4.1",
  "updatedAt": "2021-11-03T14:03:28.564Z",
  "networkType": "ethereum",
  "devdoc": {
    "kind": "dev",
    "methods": {},
    "version": 1
  },
  "userdoc": {
    "kind": "user",
    "methods": {},
    "version": 1
  }
}