{
  "contractName": "RenBTCtoCurve",
  "abi": [
    {
      "anonymous": false,
      "inputs": [
        {
          "indexed": true,
          "internalType": "address",
          "name": "previousOwner",
          "type": "address"
        },
        {
          "indexed": true,
          "internalType": "address",
          "name": "newOwner",
          "type": "address"
        }
      ],
      "name": "OwnershipTransferred",
      "type": "event"
    },
    {
      "inputs": [],
      "name": "curveFi_CRVMinter",
      "outputs": [
        {
          "internalType": "address",
          "name": "",
          "type": "address"
        }
      ],
      "stateMutability": "view",
      "type": "function"
    },
    {
      "inputs": [],
      "name": "curveFi_CRVToken",
      "outputs": [
        {
          "internalType": "address",
          "name": "",
          "type": "address"
        }
      ],
      "stateMutability": "view",
      "type": "function"
    },
    {
      "inputs": [],
      "name": "curveFi_LPGauge",
      "outputs": [
        {
          "internalType": "address",
          "name": "",
          "type": "address"
        }
      ],
      "stateMutability": "view",
      "type": "function"
    },
    {
      "inputs": [],
      "name": "curveFi_LPToken",
      "outputs": [
        {
          "internalType": "address",
          "name": "",
          "type": "address"
        }
      ],
      "stateMutability": "view",
      "type": "function"
    },
    {
      "inputs": [],
      "name": "curveFi_Swap",
      "outputs": [
        {
          "internalType": "address",
          "name": "",
          "type": "address"
        }
      ],
      "stateMutability": "view",
      "type": "function"
    },
    {
      "inputs": [],
      "name": "owner",
      "outputs": [
        {
          "internalType": "address",
          "name": "",
          "type": "address"
        }
      ],
      "stateMutability": "view",
      "type": "function"
    },
    {
      "inputs": [],
      "name": "renounceOwnership",
      "outputs": [],
      "stateMutability": "nonpayable",
      "type": "function"
    },
    {
      "inputs": [
        {
          "internalType": "address",
          "name": "newOwner",
          "type": "address"
        }
      ],
      "name": "transferOwnership",
      "outputs": [],
      "stateMutability": "nonpayable",
      "type": "function"
    },
    {
      "inputs": [
        {
          "internalType": "address",
          "name": "_swapContract",
          "type": "address"
        },
        {
          "internalType": "address",
          "name": "_gaugeContract",
          "type": "address"
        },
        {
          "internalType": "address",
          "name": "_minterContract",
          "type": "address"
        },
        {
          "internalType": "address",
          "name": "_lpContract",
          "type": "address"
        }
      ],
      "name": "setup",
      "outputs": [],
      "stateMutability": "nonpayable",
      "type": "function"
    },
    {
      "inputs": [
        {
          "internalType": "uint256[2]",
          "name": "_amounts",
          "type": "uint256[2]"
        }
      ],
      "name": "multiStepDeposit",
      "outputs": [],
      "stateMutability": "nonpayable",
      "type": "function"
    }
  ],
  "bytecode": "0x608060405234801561001057600080fd5b5061002d61002261003260201b60201c565b61003a60201b60201c565b6100ff565b600033905090565b60008060029054906101000a900473ffffffffffffffffffffffffffffffffffffffff16905081600060026101000a81548173ffffffffffffffffffffffffffffffffffffffff021916908373ffffffffffffffffffffffffffffffffffffffff1602179055508173ffffffffffffffffffffffffffffffffffffffff168173ffffffffffffffffffffffffffffffffffffffff167f8be0079c531659141344cd1fd0a4f28419497f9722a3daafe3b4186f6b6457e060405160405180910390a35050565b611ff78061010e6000396000f3fe608060405234801561001057600080fd5b506004361061009e5760003560e01c80638141d266116100665780638141d266146101215780638da5cb5b1461013f578063a3477c361461015d578063e011262a1461017b578063f2fde38b146101995761009e565b80631c600416146100a357806323b3399d146100c157806354c35a3c146100dd578063715018a6146100f95780637c24114614610103575b600080fd5b6100ab6101b5565b6040516100b89190611b10565b60405180910390f35b6100db60048036038101906100d6919061168d565b6101db565b005b6100f760048036038101906100f2919061162a565b610825565b005b610101610c2a565b005b61010b610cb2565b6040516101189190611b10565b60405180910390f35b610129610cd8565b6040516101369190611b10565b60405180910390f35b610147610cfe565b6040516101549190611b10565b60405180910390f35b610165610d27565b6040516101729190611b10565b60405180910390f35b610183610d4d565b6040516101909190611b10565b60405180910390f35b6101b360048036038101906101ae91906115d8565b610d73565b005b600160009054906101000a900473ffffffffffffffffffffffffffffffffffffffff1681565b6000806101e66114c3565b600160009054906101000a900473ffffffffffffffffffffffffffffffffffffffff1673ffffffffffffffffffffffffffffffffffffffff166323746eb860006040518263ffffffff1660e01b81526004016102429190611bdd565b60206040518083038186803b15801561025a57600080fd5b505afa15801561026e573d6000803e3d6000fd5b505050506040513d601f19601f820116820180604052508101906102929190611601565b9250600160009054906101000a900473ffffffffffffffffffffffffffffffffffffffff1673ffffffffffffffffffffffffffffffffffffffff166323746eb860016040518263ffffffff1660e01b81526004016102f09190611bf8565b60206040518083038186803b15801561030857600080fd5b505afa15801561031c573d6000803e3d6000fd5b505050506040513d601f19601f820116820180604052508101906103409190611601565b915060005b60028110156104d6576103fc610359610e6b565b30878460028110610393577f4e487b7100000000000000000000000000000000000000000000000000000000600052603260045260246000fd5b60200201518585600281106103d1577f4e487b7100000000000000000000000000000000000000000000000000000000600052603260045260246000fd5b602002015173ffffffffffffffffffffffffffffffffffffffff16610e73909392919063ffffffff16565b6104c3600160009054906101000a900473ffffffffffffffffffffffffffffffffffffffff1686836002811061045b577f4e487b7100000000000000000000000000000000000000000000000000000000600052603260045260246000fd5b6020020151848460028110610499577f4e487b7100000000000000000000000000000000000000000000000000000000600052603260045260246000fd5b602002015173ffffffffffffffffffffffffffffffffffffffff16610efc9092919063ffffffff16565b80806104ce90611ec4565b915050610345565b50600160009054906101000a900473ffffffffffffffffffffffffffffffffffffffff1673ffffffffffffffffffffffffffffffffffffffff16630b4c7e4d8560006040518363ffffffff1660e01b8152600401610535929190611bb4565b600060405180830381600087803b15801561054f57600080fd5b505af1158015610563573d6000803e3d6000fd5b505050506000600260009054906101000a900473ffffffffffffffffffffffffffffffffffffffff1673ffffffffffffffffffffffffffffffffffffffff166370a08231306040518263ffffffff1660e01b81526004016105c49190611b10565b60206040518083038186803b1580156105dc57600080fd5b505afa1580156105f0573d6000803e3d6000fd5b505050506040513d601f19601f8201168201806040525081019061061491906116df565b9050610685600360009054906101000a900473ffffffffffffffffffffffffffffffffffffffff1682600260009054906101000a900473ffffffffffffffffffffffffffffffffffffffff1673ffffffffffffffffffffffffffffffffffffffff16610efc9092919063ffffffff16565b600360009054906101000a900473ffffffffffffffffffffffffffffffffffffffff1673ffffffffffffffffffffffffffffffffffffffff1663b6b55f25826040518263ffffffff1660e01b81526004016106e09190611d35565b600060405180830381600087803b1580156106fa57600080fd5b505af115801561070e573d6000803e3d6000fd5b5050505061071a61105a565b6000600560009054906101000a900473ffffffffffffffffffffffffffffffffffffffff1673ffffffffffffffffffffffffffffffffffffffff166370a08231306040518263ffffffff1660e01b81526004016107779190611b10565b60206040518083038186803b15801561078f57600080fd5b505afa1580156107a3573d6000803e3d6000fd5b505050506040513d601f19601f820116820180604052508101906107c791906116df565b905061081d6107d4610e6b565b82600560009054906101000a900473ffffffffffffffffffffffffffffffffffffffff1673ffffffffffffffffffffffffffffffffffffffff1661110b9092919063ffffffff16565b505050505050565b61082d610e6b565b73ffffffffffffffffffffffffffffffffffffffff1661084b610cfe565b73ffffffffffffffffffffffffffffffffffffffff16146108a1576040517f08c379a000000000000000000000000000000000000000000000000000000000815260040161089890611c75565b60405180910390fd5b600073ffffffffffffffffffffffffffffffffffffffff168473ffffffffffffffffffffffffffffffffffffffff161415610911576040517f08c379a000000000000000000000000000000000000000000000000000000000815260040161090890611c95565b60405180910390fd5b83600160006101000a81548173ffffffffffffffffffffffffffffffffffffffff021916908373ffffffffffffffffffffffffffffffffffffffff16021790555082600360006101000a81548173ffffffffffffffffffffffffffffffffffffffff021916908373ffffffffffffffffffffffffffffffffffffffff16021790555080600260006101000a81548173ffffffffffffffffffffffffffffffffffffffff021916908373ffffffffffffffffffffffffffffffffffffffff160217905550600260009054906101000a900473ffffffffffffffffffffffffffffffffffffffff1673ffffffffffffffffffffffffffffffffffffffff16600360009054906101000a900473ffffffffffffffffffffffffffffffffffffffff1673ffffffffffffffffffffffffffffffffffffffff166382c630666040518163ffffffff1660e01b815260040160206040518083038186803b158015610a7557600080fd5b505afa158015610a89573d6000803e3d6000fd5b505050506040513d601f19601f82011682018060405250810190610aad9190611601565b73ffffffffffffffffffffffffffffffffffffffff1614610b03576040517f08c379a0000000000000000000000000000000000000000000000000000000008152600401610afa90611d15565b60405180910390fd5b81600460006101000a81548173ffffffffffffffffffffffffffffffffffffffff021916908373ffffffffffffffffffffffffffffffffffffffff160217905550600360009054906101000a900473ffffffffffffffffffffffffffffffffffffffff1673ffffffffffffffffffffffffffffffffffffffff166376d8b1176040518163ffffffff1660e01b815260040160206040518083038186803b158015610bac57600080fd5b505afa158015610bc0573d6000803e3d6000fd5b505050506040513d601f19601f82011682018060405250810190610be49190611601565b600560006101000a81548173ffffffffffffffffffffffffffffffffffffffff021916908373ffffffffffffffffffffffffffffffffffffffff16021790555050505050565b610c32610e6b565b73ffffffffffffffffffffffffffffffffffffffff16610c50610cfe565b73ffffffffffffffffffffffffffffffffffffffff1614610ca6576040517f08c379a0000000000000000000000000000000000000000000000000000000008152600401610c9d90611c75565b60405180910390fd5b610cb06000611191565b565b600460009054906101000a900473ffffffffffffffffffffffffffffffffffffffff1681565b600560009054906101000a900473ffffffffffffffffffffffffffffffffffffffff1681565b60008060029054906101000a900473ffffffffffffffffffffffffffffffffffffffff16905090565b600260009054906101000a900473ffffffffffffffffffffffffffffffffffffffff1681565b600360009054906101000a900473ffffffffffffffffffffffffffffffffffffffff1681565b610d7b610e6b565b73ffffffffffffffffffffffffffffffffffffffff16610d99610cfe565b73ffffffffffffffffffffffffffffffffffffffff1614610def576040517f08c379a0000000000000000000000000000000000000000000000000000000008152600401610de690611c75565b60405180910390fd5b600073ffffffffffffffffffffffffffffffffffffffff168173ffffffffffffffffffffffffffffffffffffffff161415610e5f576040517f08c379a0000000000000000000000000000000000000000000000000000000008152600401610e5690611c35565b60405180910390fd5b610e6881611191565b50565b600033905090565b610ef6846323b872dd60e01b858585604051602401610e9493929190611b54565b604051602081830303815290604052907bffffffffffffffffffffffffffffffffffffffffffffffffffffffff19166020820180517bffffffffffffffffffffffffffffffffffffffffffffffffffffffff8381831617835250505050611256565b50505050565b6000811480610f95575060008373ffffffffffffffffffffffffffffffffffffffff1663dd62ed3e30856040518363ffffffff1660e01b8152600401610f43929190611b2b565b60206040518083038186803b158015610f5b57600080fd5b505afa158015610f6f573d6000803e3d6000fd5b505050506040513d601f19601f82011682018060405250810190610f9391906116df565b145b610fd4576040517f08c379a0000000000000000000000000000000000000000000000000000000008152600401610fcb90611cf5565b60405180910390fd5b6110558363095ea7b360e01b8484604051602401610ff3929190611b8b565b604051602081830303815290604052907bffffffffffffffffffffffffffffffffffffffffffffffffffffffff19166020820180517bffffffffffffffffffffffffffffffffffffffffffffffffffffffff8381831617835250505050611256565b505050565b600460009054906101000a900473ffffffffffffffffffffffffffffffffffffffff1673ffffffffffffffffffffffffffffffffffffffff16636a627842600360009054906101000a900473ffffffffffffffffffffffffffffffffffffffff166040518263ffffffff1660e01b81526004016110d79190611b10565b600060405180830381600087803b1580156110f157600080fd5b505af1158015611105573d6000803e3d6000fd5b50505050565b61118c8363a9059cbb60e01b848460405160240161112a929190611b8b565b604051602081830303815290604052907bffffffffffffffffffffffffffffffffffffffffffffffffffffffff19166020820180517bffffffffffffffffffffffffffffffffffffffffffffffffffffffff8381831617835250505050611256565b505050565b60008060029054906101000a900473ffffffffffffffffffffffffffffffffffffffff16905081600060026101000a81548173ffffffffffffffffffffffffffffffffffffffff021916908373ffffffffffffffffffffffffffffffffffffffff1602179055508173ffffffffffffffffffffffffffffffffffffffff168173ffffffffffffffffffffffffffffffffffffffff167f8be0079c531659141344cd1fd0a4f28419497f9722a3daafe3b4186f6b6457e060405160405180910390a35050565b60006112b8826040518060400160405280602081526020017f5361666545524332303a206c6f772d6c6576656c2063616c6c206661696c65648152508573ffffffffffffffffffffffffffffffffffffffff1661131d9092919063ffffffff16565b905060008151111561131857808060200190518101906112d891906116b6565b611317576040517f08c379a000000000000000000000000000000000000000000000000000000000815260040161130e90611cd5565b60405180910390fd5b5b505050565b606061132c8484600085611335565b90509392505050565b60608247101561137a576040517f08c379a000000000000000000000000000000000000000000000000000000000815260040161137190611c55565b60405180910390fd5b61138385611449565b6113c2576040517f08c379a00000000000000000000000000000000000000000000000000000000081526004016113b990611cb5565b60405180910390fd5b6000808673ffffffffffffffffffffffffffffffffffffffff1685876040516113eb9190611af9565b60006040518083038185875af1925050503d8060008114611428576040519150601f19603f3d011682016040523d82523d6000602084013e61142d565b606091505b509150915061143d82828661145c565b92505050949350505050565b600080823b905060008111915050919050565b6060831561146c578290506114bc565b60008351111561147f5782518084602001fd5b816040517f08c379a00000000000000000000000000000000000000000000000000000000081526004016114b39190611c13565b60405180910390fd5b9392505050565b6040518060400160405280600290602082028036833780820191505090505090565b60006114f86114f384611d81565b611d50565b9050808285602086028201111561150e57600080fd5b60005b8581101561153e578161152488826115ae565b845260208401935060208301925050600181019050611511565b5050509392505050565b60008135905061155781611f7c565b92915050565b60008151905061156c81611f7c565b92915050565b600082601f83011261158357600080fd5b60026115908482856114e5565b91505092915050565b6000815190506115a881611f93565b92915050565b6000813590506115bd81611faa565b92915050565b6000815190506115d281611faa565b92915050565b6000602082840312156115ea57600080fd5b60006115f884828501611548565b91505092915050565b60006020828403121561161357600080fd5b60006116218482850161155d565b91505092915050565b6000806000806080858703121561164057600080fd5b600061164e87828801611548565b945050602061165f87828801611548565b935050604061167087828801611548565b925050606061168187828801611548565b91505092959194509250565b60006040828403121561169f57600080fd5b60006116ad84828501611572565b91505092915050565b6000602082840312156116c857600080fd5b60006116d684828501611599565b91505092915050565b6000602082840312156116f157600080fd5b60006116ff848285016115c3565b91505092915050565b60006117148383611adb565b60208301905092915050565b61172981611e06565b82525050565b61173881611db1565b6117428184611ddf565b925061174d82611da7565b8060005b8381101561177e5781516117658782611708565b965061177083611dd2565b925050600181019050611751565b505050505050565b600061179182611dbc565b61179b8185611dea565b93506117ab818560208601611e91565b80840191505092915050565b6117c081611e5b565b82525050565b6117cf81611e6d565b82525050565b6117de81611e7f565b82525050565b60006117ef82611dc7565b6117f98185611df5565b9350611809818560208601611e91565b61181281611f6b565b840191505092915050565b600061182a602683611df5565b91507f4f776e61626c653a206e6577206f776e657220697320746865207a65726f206160008301527f64647265737300000000000000000000000000000000000000000000000000006020830152604082019050919050565b6000611890602683611df5565b91507f416464726573733a20696e73756666696369656e742062616c616e636520666f60008301527f722063616c6c00000000000000000000000000000000000000000000000000006020830152604082019050919050565b60006118f6602083611df5565b91507f4f776e61626c653a2063616c6c6572206973206e6f7420746865206f776e65726000830152602082019050919050565b6000611936602583611df5565b91507f496e636f727265637420537461626c655377617020636f6e747261637420616460008301527f64726573730000000000000000000000000000000000000000000000000000006020830152604082019050919050565b600061199c601d83611df5565b91507f416464726573733a2063616c6c20746f206e6f6e2d636f6e74726163740000006000830152602082019050919050565b60006119dc602a83611df5565b91507f5361666545524332303a204552433230206f7065726174696f6e20646964206e60008301527f6f742073756363656564000000000000000000000000000000000000000000006020830152604082019050919050565b6000611a42603683611df5565b91507f5361666545524332303a20617070726f76652066726f6d206e6f6e2d7a65726f60008301527f20746f206e6f6e2d7a65726f20616c6c6f77616e6365000000000000000000006020830152604082019050919050565b6000611aa8601e83611df5565b91507f43757276654669204c5020746f6b656e7320646f206e6f74206d6174636800006000830152602082019050919050565b611ae481611e51565b82525050565b611af381611e51565b82525050565b6000611b058284611786565b915081905092915050565b6000602082019050611b256000830184611720565b92915050565b6000604082019050611b406000830185611720565b611b4d6020830184611720565b9392505050565b6000606082019050611b696000830186611720565b611b766020830185611720565b611b836040830184611aea565b949350505050565b6000604082019050611ba06000830185611720565b611bad6020830184611aea565b9392505050565b6000606082019050611bc9600083018561172f565b611bd660408301846117c6565b9392505050565b6000602082019050611bf260008301846117b7565b92915050565b6000602082019050611c0d60008301846117d5565b92915050565b60006020820190508181036000830152611c2d81846117e4565b905092915050565b60006020820190508181036000830152611c4e8161181d565b9050919050565b60006020820190508181036000830152611c6e81611883565b9050919050565b60006020820190508181036000830152611c8e816118e9565b9050919050565b60006020820190508181036000830152611cae81611929565b9050919050565b60006020820190508181036000830152611cce8161198f565b9050919050565b60006020820190508181036000830152611cee816119cf565b9050919050565b60006020820190508181036000830152611d0e81611a35565b9050919050565b60006020820190508181036000830152611d2e81611a9b565b9050919050565b6000602082019050611d4a6000830184611aea565b92915050565b6000604051905081810181811067ffffffffffffffff82111715611d7757611d76611f3c565b5b8060405250919050565b600067ffffffffffffffff821115611d9c57611d9b611f3c565b5b602082029050919050565b6000819050919050565b600060029050919050565b600081519050919050565b600081519050919050565b6000602082019050919050565b600081905092915050565b600081905092915050565b600082825260208201905092915050565b6000611e1182611e31565b9050919050565b60008115159050919050565b600081600f0b9050919050565b600073ffffffffffffffffffffffffffffffffffffffff82169050919050565b6000819050919050565b6000611e6682611e24565b9050919050565b6000611e7882611e51565b9050919050565b6000611e8a82611e24565b9050919050565b60005b83811015611eaf578082015181840152602081019050611e94565b83811115611ebe576000848401525b50505050565b6000611ecf82611e51565b91507fffffffffffffffffffffffffffffffffffffffffffffffffffffffffffffffff821415611f0257611f01611f0d565b5b600182019050919050565b7f4e487b7100000000000000000000000000000000000000000000000000000000600052601160045260246000fd5b7f4e487b7100000000000000000000000000000000000000000000000000000000600052604160045260246000fd5b6000601f19601f8301169050919050565b611f8581611e06565b8114611f9057600080fd5b50565b611f9c81611e18565b8114611fa757600080fd5b50565b611fb381611e51565b8114611fbe57600080fd5b5056fea2646970667358221220b17255cc7b73d2613381a1fe681deafc0378dfa43ab76fbd1bbbc5e488c7cb3564736f6c63430008000033",
  "immutableReferences": {},
  "source": "// SPDX-License-Identifier: MIT\r\npragma solidity >=0.4.22 <0.9.0;\r\n\r\nimport '@openzeppelin/contracts/proxy/utils/Initializable.sol';\r\nimport '@openzeppelin/contracts/utils/Context.sol';\r\nimport '@openzeppelin/contracts/access/Ownable.sol';\r\n\r\nimport '@openzeppelin/contracts/token/ERC20/IERC20.sol';\r\nimport '@openzeppelin/contracts/token/ERC20/ERC20.sol';\r\nimport '@openzeppelin/contracts/token/ERC20/utils/SafeERC20.sol';\r\n\r\nimport './curvefi/ICurveFi_StableSwapRen.sol';\r\nimport './curvefi/ICurveFi_Gauge.sol';\r\nimport './curvefi/ICurveFi_Minter.sol';\r\nimport './curvefi/IRenERC20.sol';\r\n\r\ncontract RenBTCtoCurve is Initializable, Ownable{\r\n    using SafeERC20 for IERC20;\r\n\r\n    address public curveFi_Swap;\r\n    address public curveFi_LPToken;\r\n    address public curveFi_LPGauge;\r\n    address public curveFi_CRVMinter;\r\n    address public curveFi_CRVToken; \r\n\r\n    /**\r\n     * @notice Set CurveFi contracts addresses\r\n     * @param _swapContract CurveFi Deposit contract for ren-pool\r\n     * @param _gaugeContract CurveFi Gauge contract for ren-pool\r\n     * @param _minterContract CurveFi CRV minter\r\n     * @param _lpContract CurveFi LP token contract = CurveTokenV1\r\n     */\r\n        function setup( address _swapContract, \r\n                        address _gaugeContract, \r\n                        address _minterContract, \r\n                        address _lpContract ) \r\n                        external onlyOwner {\r\n\r\n        require(_swapContract != address(0), \"Incorrect StableSwap contract address\");\r\n\r\n        curveFi_Swap = _swapContract;\r\n        curveFi_LPGauge = _gaugeContract;\r\n        curveFi_LPToken = _lpContract;\r\n\r\n        require(ICurveFi_Gauge(curveFi_LPGauge).lp_token() == address(curveFi_LPToken), \"CurveFi LP tokens do not match\");        \r\n\r\n        curveFi_CRVMinter = _minterContract;\r\n        curveFi_CRVToken = ICurveFi_Gauge(curveFi_LPGauge).crv_token();\r\n    }\r\n\r\n     /**\r\n     * @notice Deposits 2 stablecoins (registered in Curve.Fi Y pool)\r\n     * @param _amounts Array of amounts for CurveFI stablecoins in pool (denormalized to token decimals)\r\n     */\r\n    function multiStepDeposit(uint[2] memory _amounts) public {\r\n        address stablecoinsRenBTC;\r\n        address stablecoinsWBTC;\r\n        address[2] memory stablecoins;\r\n\r\n        stablecoinsRenBTC = ICurveFi_StableSwapRen(curveFi_Swap).coins(0);\r\n        stablecoinsWBTC = ICurveFi_StableSwapRen(curveFi_Swap).coins(1);\r\n\r\n        for (uint256 i = 0; i < stablecoins.length; i++) {\r\n            IERC20(stablecoins[i]).safeTransferFrom(_msgSender(), address(this), _amounts[i]);\r\n            IERC20(stablecoins[i]).safeApprove(curveFi_Swap, _amounts[i]);\r\n        }\r\n\r\n        //Step 1 - deposit stablecoins and get Curve.Fi LP tokens\r\n        ICurveFi_StableSwapRen(curveFi_Swap).add_liquidity(_amounts, 0); \r\n\r\n        //Step 2 - stake Curve LP tokens into Gauge and get CRV rewards\r\n        uint256 curveLPBalance = IERC20(curveFi_LPToken).balanceOf(address(this));\r\n\r\n        IERC20(curveFi_LPToken).safeApprove(curveFi_LPGauge, curveLPBalance);\r\n        ICurveFi_Gauge(curveFi_LPGauge).deposit(curveLPBalance);\r\n\r\n        //Step 3 - get all the rewards (and make whatever you need with them)\r\n        crvTokenClaim();\r\n        uint256 crvAmount = IERC20(curveFi_CRVToken).balanceOf(address(this));\r\n        IERC20(curveFi_CRVToken).safeTransfer(_msgSender(), crvAmount);\r\n\r\n    }\r\n\r\n     /**\r\n     * @notice Claim CRV reward\r\n     */\r\n    function crvTokenClaim() internal {\r\n        ICurveFi_Minter(curveFi_CRVMinter).mint(curveFi_LPGauge);\r\n    }\r\n\r\n}",
  "sourcePath": "D:/BlockChain/Ethereum-201/Ren-project/contracts/RenBTCtoCurve.sol",
  "compiler": {
    "name": "solc",
    "version": "0.8.0+commit.c7dfd78e.Emscripten.clang"
  },
  "schemaVersion": "3.4.1",
  "updatedAt": "2021-10-26T06:28:29.666Z",
  "devdoc": {
    "kind": "dev",
    "methods": {
      "multiStepDeposit(uint256[2])": {
        "params": {
          "_amounts": "Array of amounts for CurveFI stablecoins in pool (denormalized to token decimals)"
        }
      },
      "owner()": {
        "details": "Returns the address of the current owner."
      },
      "renounceOwnership()": {
        "details": "Leaves the contract without owner. It will not be possible to call `onlyOwner` functions anymore. Can only be called by the current owner. NOTE: Renouncing ownership will leave the contract without an owner, thereby removing any functionality that is only available to the owner."
      },
      "setup(address,address,address,address)": {
        "params": {
          "_gaugeContract": "CurveFi Gauge contract for ren-pool",
          "_lpContract": "CurveFi LP token contract = CurveTokenV1",
          "_minterContract": "CurveFi CRV minter",
          "_swapContract": "CurveFi Deposit contract for ren-pool"
        }
      },
      "transferOwnership(address)": {
        "details": "Transfers ownership of the contract to a new account (`newOwner`). Can only be called by the current owner."
      }
    },
    "version": 1
  },
  "userdoc": {
    "kind": "user",
    "methods": {
      "multiStepDeposit(uint256[2])": {
        "notice": "Deposits 2 stablecoins (registered in Curve.Fi Y pool)"
      },
      "setup(address,address,address,address)": {
        "notice": "Set CurveFi contracts addresses"
      }
    },
    "version": 1
  }
}