{
  "contractName": "RenBTCtoCurve",
  "abi": [
    {
      "anonymous": false,
      "inputs": [
        {
          "indexed": true,
          "internalType": "address",
          "name": "previousOwner",
          "type": "address"
        },
        {
          "indexed": true,
          "internalType": "address",
          "name": "newOwner",
          "type": "address"
        }
      ],
      "name": "OwnershipTransferred",
      "type": "event"
    },
    {
      "inputs": [],
      "name": "curveFi_CRVMinter",
      "outputs": [
        {
          "internalType": "address",
          "name": "",
          "type": "address"
        }
      ],
      "stateMutability": "view",
      "type": "function"
    },
    {
      "inputs": [],
      "name": "curveFi_CRVToken",
      "outputs": [
        {
          "internalType": "address",
          "name": "",
          "type": "address"
        }
      ],
      "stateMutability": "view",
      "type": "function"
    },
    {
      "inputs": [],
      "name": "curveFi_LPGauge",
      "outputs": [
        {
          "internalType": "address",
          "name": "",
          "type": "address"
        }
      ],
      "stateMutability": "view",
      "type": "function"
    },
    {
      "inputs": [],
      "name": "curveFi_LPToken",
      "outputs": [
        {
          "internalType": "address",
          "name": "",
          "type": "address"
        }
      ],
      "stateMutability": "view",
      "type": "function"
    },
    {
      "inputs": [],
      "name": "curveFi_Swap",
      "outputs": [
        {
          "internalType": "address",
          "name": "",
          "type": "address"
        }
      ],
      "stateMutability": "view",
      "type": "function"
    },
    {
      "inputs": [],
      "name": "owner",
      "outputs": [
        {
          "internalType": "address",
          "name": "",
          "type": "address"
        }
      ],
      "stateMutability": "view",
      "type": "function"
    },
    {
      "inputs": [],
      "name": "renounceOwnership",
      "outputs": [],
      "stateMutability": "nonpayable",
      "type": "function"
    },
    {
      "inputs": [
        {
          "internalType": "address",
          "name": "newOwner",
          "type": "address"
        }
      ],
      "name": "transferOwnership",
      "outputs": [],
      "stateMutability": "nonpayable",
      "type": "function"
    },
    {
      "inputs": [
        {
          "internalType": "address",
          "name": "_swapContract",
          "type": "address"
        },
        {
          "internalType": "address",
          "name": "_gaugeContract",
          "type": "address"
        },
        {
          "internalType": "address",
          "name": "_minterContract",
          "type": "address"
        },
        {
          "internalType": "address",
          "name": "_lpContract",
          "type": "address"
        }
      ],
      "name": "setup",
      "outputs": [],
      "stateMutability": "nonpayable",
      "type": "function"
    }
  ],
  "bytecode": "0x608060405234801561001057600080fd5b5061002d61002261003260201b60201c565b61003a60201b60201c565b6100ff565b600033905090565b60008060029054906101000a900473ffffffffffffffffffffffffffffffffffffffff16905081600060026101000a81548173ffffffffffffffffffffffffffffffffffffffff021916908373ffffffffffffffffffffffffffffffffffffffff1602179055508173ffffffffffffffffffffffffffffffffffffffff168173ffffffffffffffffffffffffffffffffffffffff167f8be0079c531659141344cd1fd0a4f28419497f9722a3daafe3b4186f6b6457e060405160405180910390a35050565b610c2c8061010e6000396000f3fe608060405234801561001057600080fd5b50600436106100935760003560e01c80638141d266116100665780638141d266146100fa5780638da5cb5b14610118578063a3477c3614610136578063e011262a14610154578063f2fde38b1461017257610093565b80631c6004161461009857806354c35a3c146100b6578063715018a6146100d25780637c241146146100dc575b600080fd5b6100a061018e565b6040516100ad9190610b01565b60405180910390f35b6100d060048036038101906100cb9190610943565b6101b4565b005b6100da6105b9565b005b6100e4610641565b6040516100f19190610b01565b60405180910390f35b610102610667565b60405161010f9190610b01565b60405180910390f35b61012061068d565b60405161012d9190610b01565b60405180910390f35b61013e6106b6565b60405161014b9190610b01565b60405180910390f35b61015c6106dc565b6040516101699190610b01565b60405180910390f35b61018c600480360381019061018791906108f1565b610702565b005b600160009054906101000a900473ffffffffffffffffffffffffffffffffffffffff1681565b6101bc6107fa565b73ffffffffffffffffffffffffffffffffffffffff166101da61068d565b73ffffffffffffffffffffffffffffffffffffffff1614610230576040517f08c379a000000000000000000000000000000000000000000000000000000000815260040161022790610b3c565b60405180910390fd5b600073ffffffffffffffffffffffffffffffffffffffff168473ffffffffffffffffffffffffffffffffffffffff1614156102a0576040517f08c379a000000000000000000000000000000000000000000000000000000000815260040161029790610b5c565b60405180910390fd5b83600160006101000a81548173ffffffffffffffffffffffffffffffffffffffff021916908373ffffffffffffffffffffffffffffffffffffffff16021790555082600360006101000a81548173ffffffffffffffffffffffffffffffffffffffff021916908373ffffffffffffffffffffffffffffffffffffffff16021790555080600260006101000a81548173ffffffffffffffffffffffffffffffffffffffff021916908373ffffffffffffffffffffffffffffffffffffffff160217905550600260009054906101000a900473ffffffffffffffffffffffffffffffffffffffff1673ffffffffffffffffffffffffffffffffffffffff16600360009054906101000a900473ffffffffffffffffffffffffffffffffffffffff1673ffffffffffffffffffffffffffffffffffffffff166382c630666040518163ffffffff1660e01b815260040160206040518083038186803b15801561040457600080fd5b505afa158015610418573d6000803e3d6000fd5b505050506040513d601f19601f8201168201806040525081019061043c919061091a565b73ffffffffffffffffffffffffffffffffffffffff1614610492576040517f08c379a000000000000000000000000000000000000000000000000000000000815260040161048990610b7c565b60405180910390fd5b81600460006101000a81548173ffffffffffffffffffffffffffffffffffffffff021916908373ffffffffffffffffffffffffffffffffffffffff160217905550600360009054906101000a900473ffffffffffffffffffffffffffffffffffffffff1673ffffffffffffffffffffffffffffffffffffffff166376d8b1176040518163ffffffff1660e01b815260040160206040518083038186803b15801561053b57600080fd5b505afa15801561054f573d6000803e3d6000fd5b505050506040513d601f19601f82011682018060405250810190610573919061091a565b600560006101000a81548173ffffffffffffffffffffffffffffffffffffffff021916908373ffffffffffffffffffffffffffffffffffffffff16021790555050505050565b6105c16107fa565b73ffffffffffffffffffffffffffffffffffffffff166105df61068d565b73ffffffffffffffffffffffffffffffffffffffff1614610635576040517f08c379a000000000000000000000000000000000000000000000000000000000815260040161062c90610b3c565b60405180910390fd5b61063f6000610802565b565b600460009054906101000a900473ffffffffffffffffffffffffffffffffffffffff1681565b600560009054906101000a900473ffffffffffffffffffffffffffffffffffffffff1681565b60008060029054906101000a900473ffffffffffffffffffffffffffffffffffffffff16905090565b600260009054906101000a900473ffffffffffffffffffffffffffffffffffffffff1681565b600360009054906101000a900473ffffffffffffffffffffffffffffffffffffffff1681565b61070a6107fa565b73ffffffffffffffffffffffffffffffffffffffff1661072861068d565b73ffffffffffffffffffffffffffffffffffffffff161461077e576040517f08c379a000000000000000000000000000000000000000000000000000000000815260040161077590610b3c565b60405180910390fd5b600073ffffffffffffffffffffffffffffffffffffffff168173ffffffffffffffffffffffffffffffffffffffff1614156107ee576040517f08c379a00000000000000000000000000000000000000000000000000000000081526004016107e590610b1c565b60405180910390fd5b6107f781610802565b50565b600033905090565b60008060029054906101000a900473ffffffffffffffffffffffffffffffffffffffff16905081600060026101000a81548173ffffffffffffffffffffffffffffffffffffffff021916908373ffffffffffffffffffffffffffffffffffffffff1602179055508173ffffffffffffffffffffffffffffffffffffffff168173ffffffffffffffffffffffffffffffffffffffff167f8be0079c531659141344cd1fd0a4f28419497f9722a3daafe3b4186f6b6457e060405160405180910390a35050565b6000813590506108d681610bdf565b92915050565b6000815190506108eb81610bdf565b92915050565b60006020828403121561090357600080fd5b6000610911848285016108c7565b91505092915050565b60006020828403121561092c57600080fd5b600061093a848285016108dc565b91505092915050565b6000806000806080858703121561095957600080fd5b6000610967878288016108c7565b9450506020610978878288016108c7565b9350506040610989878288016108c7565b925050606061099a878288016108c7565b91505092959194509250565b6109af81610bad565b82525050565b60006109c2602683610b9c565b91507f4f776e61626c653a206e6577206f776e657220697320746865207a65726f206160008301527f64647265737300000000000000000000000000000000000000000000000000006020830152604082019050919050565b6000610a28602083610b9c565b91507f4f776e61626c653a2063616c6c6572206973206e6f7420746865206f776e65726000830152602082019050919050565b6000610a68602583610b9c565b91507f496e636f727265637420537461626c655377617020636f6e747261637420616460008301527f64726573730000000000000000000000000000000000000000000000000000006020830152604082019050919050565b6000610ace601e83610b9c565b91507f43757276654669204c5020746f6b656e7320646f206e6f74206d6174636800006000830152602082019050919050565b6000602082019050610b1660008301846109a6565b92915050565b60006020820190508181036000830152610b35816109b5565b9050919050565b60006020820190508181036000830152610b5581610a1b565b9050919050565b60006020820190508181036000830152610b7581610a5b565b9050919050565b60006020820190508181036000830152610b9581610ac1565b9050919050565b600082825260208201905092915050565b6000610bb882610bbf565b9050919050565b600073ffffffffffffffffffffffffffffffffffffffff82169050919050565b610be881610bad565b8114610bf357600080fd5b5056fea26469706673582212200f07069e5256e069045cdb853fcc53caf8f08ad555c88f5523044116e352103064736f6c63430008000033",
  "immutableReferences": {},
  "source": "// SPDX-License-Identifier: MIT\r\npragma solidity >=0.4.22 <0.9.0;\r\n\r\nimport '@openzeppelin/contracts/proxy/utils/Initializable.sol';\r\nimport '@openzeppelin/contracts/utils/Context.sol';\r\nimport '@openzeppelin/contracts/access/Ownable.sol';\r\n\r\nimport '@openzeppelin/contracts/token/ERC20/IERC20.sol';\r\nimport '@openzeppelin/contracts/token/ERC20/ERC20.sol';\r\nimport '@openzeppelin/contracts/token/ERC20/utils/SafeERC20.sol';\r\n\r\nimport './curvefi/ICurveFi_StableSwapRen.sol';\r\nimport './curvefi/ICurveFi_Gauge.sol';\r\nimport './curvefi/ICurveFi_Minter.sol';\r\nimport './curvefi/IRenERC20.sol';\r\n\r\ncontract RenBTCtoCurve is Initializable, Ownable{\r\n    using SafeERC20 for IERC20;\r\n\r\n    address public curveFi_Swap;\r\n    address public curveFi_LPToken;\r\n    address public curveFi_LPGauge;\r\n    address public curveFi_CRVMinter;\r\n    address public curveFi_CRVToken; \r\n\r\n    /**\r\n     * @notice Set CurveFi contracts addresses\r\n     * @param _swapContract CurveFi Deposit contract for ren-pool\r\n     * @param _gaugeContract CurveFi Gauge contract for ren-pool\r\n     * @param _minterContract CurveFi CRV minter\r\n     * @param _lpContract CurveFi LP token contract = CurveTokenV1\r\n     */\r\n        function setup( address _swapContract, \r\n                        address _gaugeContract, \r\n                        address _minterContract, \r\n                        address _lpContract ) \r\n                        external onlyOwner {\r\n\r\n        require(_swapContract != address(0), \"Incorrect StableSwap contract address\");\r\n\r\n        curveFi_Swap = _swapContract;\r\n        curveFi_LPGauge = _gaugeContract;\r\n        curveFi_LPToken = _lpContract;\r\n\r\n        require(ICurveFi_Gauge(curveFi_LPGauge).lp_token() == address(curveFi_LPToken), \"CurveFi LP tokens do not match\");        \r\n\r\n        curveFi_CRVMinter = _minterContract;\r\n        curveFi_CRVToken = ICurveFi_Gauge(curveFi_LPGauge).crv_token();\r\n    }\r\n}",
  "sourcePath": "D:/BlockChain/Ethereum-201/Ren-project/contracts/RenBTCtoCurve.sol",
  "compiler": {
    "name": "solc",
    "version": "0.8.0+commit.c7dfd78e.Emscripten.clang"
  },
  "schemaVersion": "3.4.1",
  "updatedAt": "2021-10-21T13:55:28.409Z",
  "devdoc": {
    "kind": "dev",
    "methods": {
      "owner()": {
        "details": "Returns the address of the current owner."
      },
      "renounceOwnership()": {
        "details": "Leaves the contract without owner. It will not be possible to call `onlyOwner` functions anymore. Can only be called by the current owner. NOTE: Renouncing ownership will leave the contract without an owner, thereby removing any functionality that is only available to the owner."
      },
      "setup(address,address,address,address)": {
        "params": {
          "_gaugeContract": "CurveFi Gauge contract for ren-pool",
          "_lpContract": "CurveFi LP token contract = CurveTokenV1",
          "_minterContract": "CurveFi CRV minter",
          "_swapContract": "CurveFi Deposit contract for ren-pool"
        }
      },
      "transferOwnership(address)": {
        "details": "Transfers ownership of the contract to a new account (`newOwner`). Can only be called by the current owner."
      }
    },
    "version": 1
  },
  "userdoc": {
    "kind": "user",
    "methods": {
      "setup(address,address,address,address)": {
        "notice": "Set CurveFi contracts addresses"
      }
    },
    "version": 1
  }
}