{
  "contractName": "RenBTCtoCurve",
  "abi": [
    {
      "anonymous": false,
      "inputs": [
        {
          "indexed": true,
          "internalType": "address",
          "name": "previousOwner",
          "type": "address"
        },
        {
          "indexed": true,
          "internalType": "address",
          "name": "newOwner",
          "type": "address"
        }
      ],
      "name": "OwnershipTransferred",
      "type": "event"
    },
    {
      "inputs": [],
      "name": "curveFi_CRVMinter",
      "outputs": [
        {
          "internalType": "address",
          "name": "",
          "type": "address"
        }
      ],
      "stateMutability": "view",
      "type": "function",
      "constant": true
    },
    {
      "inputs": [],
      "name": "curveFi_CRVToken",
      "outputs": [
        {
          "internalType": "address",
          "name": "",
          "type": "address"
        }
      ],
      "stateMutability": "view",
      "type": "function",
      "constant": true
    },
    {
      "inputs": [],
      "name": "curveFi_LPGauge",
      "outputs": [
        {
          "internalType": "address",
          "name": "",
          "type": "address"
        }
      ],
      "stateMutability": "view",
      "type": "function",
      "constant": true
    },
    {
      "inputs": [],
      "name": "curveFi_LPToken",
      "outputs": [
        {
          "internalType": "address",
          "name": "",
          "type": "address"
        }
      ],
      "stateMutability": "view",
      "type": "function",
      "constant": true
    },
    {
      "inputs": [],
      "name": "curveFi_Swap",
      "outputs": [
        {
          "internalType": "address",
          "name": "",
          "type": "address"
        }
      ],
      "stateMutability": "view",
      "type": "function",
      "constant": true
    },
    {
      "inputs": [],
      "name": "owner",
      "outputs": [
        {
          "internalType": "address",
          "name": "",
          "type": "address"
        }
      ],
      "stateMutability": "view",
      "type": "function",
      "constant": true
    },
    {
      "inputs": [],
      "name": "renounceOwnership",
      "outputs": [],
      "stateMutability": "nonpayable",
      "type": "function"
    },
    {
      "inputs": [
        {
          "internalType": "address",
          "name": "newOwner",
          "type": "address"
        }
      ],
      "name": "transferOwnership",
      "outputs": [],
      "stateMutability": "nonpayable",
      "type": "function"
    },
    {
      "inputs": [
        {
          "internalType": "address",
          "name": "_swapContract",
          "type": "address"
        },
        {
          "internalType": "address",
          "name": "_gaugeContract",
          "type": "address"
        },
        {
          "internalType": "address",
          "name": "_minterContract",
          "type": "address"
        },
        {
          "internalType": "address",
          "name": "_lpContract",
          "type": "address"
        }
      ],
      "name": "setup",
      "outputs": [],
      "stateMutability": "nonpayable",
      "type": "function"
    },
    {
      "inputs": [
        {
          "internalType": "uint256[2]",
          "name": "_amounts",
          "type": "uint256[2]"
        }
      ],
      "name": "multiStepDeposit",
      "outputs": [],
      "stateMutability": "nonpayable",
      "type": "function"
    },
    {
      "inputs": [
        {
          "internalType": "uint256[2]",
          "name": "_amounts",
          "type": "uint256[2]"
        }
      ],
      "name": "multiStepWithdraw",
      "outputs": [],
      "stateMutability": "nonpayable",
      "type": "function"
    },
    {
      "inputs": [
        {
          "internalType": "uint256",
          "name": "normalizedWithdraw",
          "type": "uint256"
        }
      ],
      "name": "calculateShares",
      "outputs": [
        {
          "internalType": "uint256",
          "name": "",
          "type": "uint256"
        }
      ],
      "stateMutability": "view",
      "type": "function",
      "constant": true
    },
    {
      "inputs": [],
      "name": "normalizedBalance",
      "outputs": [
        {
          "internalType": "uint256",
          "name": "",
          "type": "uint256"
        }
      ],
      "stateMutability": "view",
      "type": "function",
      "constant": true
    },
    {
      "inputs": [],
      "name": "curveLPTokenBalance",
      "outputs": [
        {
          "internalType": "uint256",
          "name": "",
          "type": "uint256"
        }
      ],
      "stateMutability": "view",
      "type": "function",
      "constant": true
    },
    {
      "inputs": [],
      "name": "curveLPTokenUnstaked",
      "outputs": [
        {
          "internalType": "uint256",
          "name": "",
          "type": "uint256"
        }
      ],
      "stateMutability": "view",
      "type": "function",
      "constant": true
    },
    {
      "inputs": [],
      "name": "curveLPTokenStaked",
      "outputs": [
        {
          "internalType": "uint256",
          "name": "",
          "type": "uint256"
        }
      ],
      "stateMutability": "view",
      "type": "function",
      "constant": true
    }
  ],
  "bytecode": "0x60806040523480156200001157600080fd5b5062000032620000266200003860201b60201c565b6200004060201b60201c565b62000105565b600033905090565b60008060029054906101000a900473ffffffffffffffffffffffffffffffffffffffff16905081600060026101000a81548173ffffffffffffffffffffffffffffffffffffffff021916908373ffffffffffffffffffffffffffffffffffffffff1602179055508173ffffffffffffffffffffffffffffffffffffffff168173ffffffffffffffffffffffffffffffffffffffff167f8be0079c531659141344cd1fd0a4f28419497f9722a3daafe3b4186f6b6457e060405160405180910390a35050565b6133f680620001156000396000f3fe608060405234801561001057600080fd5b50600436106101005760003560e01c80637c24114611610097578063a3477c3611610066578063a3477c3614610265578063dfda714a14610283578063e011262a146102a1578063f2fde38b146102bf57610100565b80637c241146146101ed5780638141d2661461020b5780638da5cb5b1461022957806397aa80d51461024757610100565b806354c35a3c116100d357806354c35a3c1461018d578063628cb95e146101a9578063715018a6146101c7578063745a93c1146101d157610100565b80631c6004161461010557806323b3399d146101235780633ec161941461013f57806344f9c3951461016f575b600080fd5b61010d6102db565b60405161011a9190612beb565b60405180910390f35b61013d600480360381019061013891906126e5565b610301565b005b61015960048036038101906101549190612737565b610925565b6040516101669190612e3e565b60405180910390f35b61017761095e565b6040516101849190612e3e565b60405180910390f35b6101a760048036038101906101a29190612682565b610a10565b005b6101b1610e15565b6040516101be9190612e3e565b60405180910390f35b6101cf611025565b005b6101eb60048036038101906101e691906126e5565b6110ad565b005b6101f561161b565b6040516102029190612beb565b60405180910390f35b610213611641565b6040516102209190612beb565b60405180910390f35b610231611667565b60405161023e9190612beb565b60405180910390f35b61024f611690565b60405161025c9190612e3e565b60405180910390f35b61026d6116bc565b60405161027a9190612beb565b60405180910390f35b61028b6116e2565b6040516102989190612e3e565b60405180910390f35b6102a9611794565b6040516102b69190612beb565b60405180910390f35b6102d960048036038101906102d49190612630565b6117ba565b005b600160009054906101000a900473ffffffffffffffffffffffffffffffffffffffff1681565b6103096124e4565b60005b600281101561044357600160009054906101000a900473ffffffffffffffffffffffffffffffffffffffff1673ffffffffffffffffffffffffffffffffffffffff166323746eb8826040518263ffffffff1660e01b81526004016103709190612ce1565b60206040518083038186803b15801561038857600080fd5b505afa15801561039c573d6000803e3d6000fd5b505050506040513d601f19601f820116820180604052508101906103c09190612659565b8282600281106103f9577f4e487b7100000000000000000000000000000000000000000000000000000000600052603260045260246000fd5b602002019073ffffffffffffffffffffffffffffffffffffffff16908173ffffffffffffffffffffffffffffffffffffffff1681525050808061043b90613270565b91505061030c565b5060005b60028110156105d8576104fe61045b6118b2565b30858460028110610495577f4e487b7100000000000000000000000000000000000000000000000000000000600052603260045260246000fd5b60200201518585600281106104d3577f4e487b7100000000000000000000000000000000000000000000000000000000600052603260045260246000fd5b602002015173ffffffffffffffffffffffffffffffffffffffff166118ba909392919063ffffffff16565b6105c5600160009054906101000a900473ffffffffffffffffffffffffffffffffffffffff1684836002811061055d577f4e487b7100000000000000000000000000000000000000000000000000000000600052603260045260246000fd5b602002015184846002811061059b577f4e487b7100000000000000000000000000000000000000000000000000000000600052603260045260246000fd5b602002015173ffffffffffffffffffffffffffffffffffffffff166119439092919063ffffffff16565b80806105d090613270565b915050610447565b50600160009054906101000a900473ffffffffffffffffffffffffffffffffffffffff1673ffffffffffffffffffffffffffffffffffffffff16630b4c7e4d8360006040518363ffffffff1660e01b8152600401610637929190612c8f565b600060405180830381600087803b15801561065157600080fd5b505af1158015610665573d6000803e3d6000fd5b505050506000600260009054906101000a900473ffffffffffffffffffffffffffffffffffffffff1673ffffffffffffffffffffffffffffffffffffffff166370a08231306040518263ffffffff1660e01b81526004016106c69190612beb565b60206040518083038186803b1580156106de57600080fd5b505afa1580156106f2573d6000803e3d6000fd5b505050506040513d601f19601f820116820180604052508101906107169190612760565b9050610787600360009054906101000a900473ffffffffffffffffffffffffffffffffffffffff1682600260009054906101000a900473ffffffffffffffffffffffffffffffffffffffff1673ffffffffffffffffffffffffffffffffffffffff166119439092919063ffffffff16565b600360009054906101000a900473ffffffffffffffffffffffffffffffffffffffff1673ffffffffffffffffffffffffffffffffffffffff1663b6b55f25826040518263ffffffff1660e01b81526004016107e29190612e3e565b600060405180830381600087803b1580156107fc57600080fd5b505af1158015610810573d6000803e3d6000fd5b5050505061081c611aa1565b6000600560009054906101000a900473ffffffffffffffffffffffffffffffffffffffff1673ffffffffffffffffffffffffffffffffffffffff166370a08231306040518263ffffffff1660e01b81526004016108799190612beb565b60206040518083038186803b15801561089157600080fd5b505afa1580156108a5573d6000803e3d6000fd5b505050506040513d601f19601f820116820180604052508101906108c99190612760565b905061091f6108d66118b2565b82600560009054906101000a900473ffffffffffffffffffffffffffffffffffffffff1673ffffffffffffffffffffffffffffffffffffffff16611b529092919063ffffffff16565b50505050565b600080610930610e15565b9050600061093c611690565b905081848261094b9190613107565b6109559190612f65565b92505050919050565b6000600360009054906101000a900473ffffffffffffffffffffffffffffffffffffffff1673ffffffffffffffffffffffffffffffffffffffff166370a08231306040518263ffffffff1660e01b81526004016109bb9190612beb565b60206040518083038186803b1580156109d357600080fd5b505afa1580156109e7573d6000803e3d6000fd5b505050506040513d601f19601f82011682018060405250810190610a0b9190612760565b905090565b610a186118b2565b73ffffffffffffffffffffffffffffffffffffffff16610a36611667565b73ffffffffffffffffffffffffffffffffffffffff1614610a8c576040517f08c379a0000000000000000000000000000000000000000000000000000000008152600401610a8390612d5e565b60405180910390fd5b600073ffffffffffffffffffffffffffffffffffffffff168473ffffffffffffffffffffffffffffffffffffffff161415610afc576040517f08c379a0000000000000000000000000000000000000000000000000000000008152600401610af390612d7e565b60405180910390fd5b83600160006101000a81548173ffffffffffffffffffffffffffffffffffffffff021916908373ffffffffffffffffffffffffffffffffffffffff16021790555082600360006101000a81548173ffffffffffffffffffffffffffffffffffffffff021916908373ffffffffffffffffffffffffffffffffffffffff16021790555080600260006101000a81548173ffffffffffffffffffffffffffffffffffffffff021916908373ffffffffffffffffffffffffffffffffffffffff160217905550600260009054906101000a900473ffffffffffffffffffffffffffffffffffffffff1673ffffffffffffffffffffffffffffffffffffffff16600360009054906101000a900473ffffffffffffffffffffffffffffffffffffffff1673ffffffffffffffffffffffffffffffffffffffff166382c630666040518163ffffffff1660e01b815260040160206040518083038186803b158015610c6057600080fd5b505afa158015610c74573d6000803e3d6000fd5b505050506040513d601f19601f82011682018060405250810190610c989190612659565b73ffffffffffffffffffffffffffffffffffffffff1614610cee576040517f08c379a0000000000000000000000000000000000000000000000000000000008152600401610ce590612e1e565b60405180910390fd5b81600460006101000a81548173ffffffffffffffffffffffffffffffffffffffff021916908373ffffffffffffffffffffffffffffffffffffffff160217905550600360009054906101000a900473ffffffffffffffffffffffffffffffffffffffff1673ffffffffffffffffffffffffffffffffffffffff166376d8b1176040518163ffffffff1660e01b815260040160206040518083038186803b158015610d9757600080fd5b505afa158015610dab573d6000803e3d6000fd5b505050506040513d601f19601f82011682018060405250810190610dcf9190612659565b600560006101000a81548173ffffffffffffffffffffffffffffffffffffffff021916908373ffffffffffffffffffffffffffffffffffffffff16021790555050505050565b6000610e1f6124e4565b60005b6002811015610f5957600160009054906101000a900473ffffffffffffffffffffffffffffffffffffffff1673ffffffffffffffffffffffffffffffffffffffff166323746eb8826040518263ffffffff1660e01b8152600401610e869190612ce1565b60206040518083038186803b158015610e9e57600080fd5b505afa158015610eb2573d6000803e3d6000fd5b505050506040513d601f19601f82011682018060405250810190610ed69190612659565b828260028110610f0f577f4e487b7100000000000000000000000000000000000000000000000000000000600052603260045260246000fd5b602002019073ffffffffffffffffffffffffffffffffffffffff16908173ffffffffffffffffffffffffffffffffffffffff16815250508080610f5190613270565b915050610e22565b506000610f64611bd8565b9050600080600090505b600281101561101b57610ffb848260028110610fb3577f4e487b7100000000000000000000000000000000000000000000000000000000600052603260045260246000fd5b6020020151848360028110610ff1577f4e487b7100000000000000000000000000000000000000000000000000000000600052603260045260246000fd5b60200201516120a8565b826110069190612f0f565b9150808061101390613270565b915050610f6e565b5080935050505090565b61102d6118b2565b73ffffffffffffffffffffffffffffffffffffffff1661104b611667565b73ffffffffffffffffffffffffffffffffffffffff16146110a1576040517f08c379a000000000000000000000000000000000000000000000000000000000815260040161109890612d5e565b60405180910390fd5b6110ab60006121b2565b565b6110b56124e4565b600080600090505b60028110156111f457600160009054906101000a900473ffffffffffffffffffffffffffffffffffffffff1673ffffffffffffffffffffffffffffffffffffffff166323746eb8826040518263ffffffff1660e01b81526004016111219190612ce1565b60206040518083038186803b15801561113957600080fd5b505afa15801561114d573d6000803e3d6000fd5b505050506040513d601f19601f820116820180604052508101906111719190612659565b8382600281106111aa577f4e487b7100000000000000000000000000000000000000000000000000000000600052603260045260246000fd5b602002019073ffffffffffffffffffffffffffffffffffffffff16908173ffffffffffffffffffffffffffffffffffffffff168152505080806111ec90613270565b9150506110bd565b5060005b60028110156112a55761128583826002811061123d577f4e487b7100000000000000000000000000000000000000000000000000000000600052603260045260246000fd5b602002015185836002811061127b577f4e487b7100000000000000000000000000000000000000000000000000000000600052603260045260246000fd5b60200201516120a8565b826112909190612f0f565b9150808061129d90613270565b9150506111f8565b5060006112b182610925565b905060006112bd6116e2565b905060008111156112d75780826112d49190613161565b91505b600360009054906101000a900473ffffffffffffffffffffffffffffffffffffffff1673ffffffffffffffffffffffffffffffffffffffff16632e1a7d4d836040518263ffffffff1660e01b81526004016113329190612e3e565b600060405180830381600087803b15801561134c57600080fd5b505af1158015611360573d6000803e3d6000fd5b505050506113d3600160009054906101000a900473ffffffffffffffffffffffffffffffffffffffff1683600260009054906101000a900473ffffffffffffffffffffffffffffffffffffffff1673ffffffffffffffffffffffffffffffffffffffff166119439092919063ffffffff16565b600160009054906101000a900473ffffffffffffffffffffffffffffffffffffffff1673ffffffffffffffffffffffffffffffffffffffff1663e310327386846040518363ffffffff1660e01b8152600401611430929190612cb8565b600060405180830381600087803b15801561144a57600080fd5b505af115801561145e573d6000803e3d6000fd5b5050505060005b60028110156116135760008582600281106114a9577f4e487b7100000000000000000000000000000000000000000000000000000000600052603260045260246000fd5b6020020151905060008173ffffffffffffffffffffffffffffffffffffffff166370a08231306040518263ffffffff1660e01b81526004016114eb9190612beb565b60206040518083038186803b15801561150357600080fd5b505afa158015611517573d6000803e3d6000fd5b505050506040513d601f19601f8201168201806040525081019061153b9190612760565b90506000888460028110611578577f4e487b7100000000000000000000000000000000000000000000000000000000600052603260045260246000fd5b60200201518211156115c7578884600281106115bd577f4e487b7100000000000000000000000000000000000000000000000000000000600052603260045260246000fd5b60200201516115c9565b815b90506115fd6115d66118b2565b828573ffffffffffffffffffffffffffffffffffffffff16611b529092919063ffffffff16565b505050808061160b90613270565b915050611465565b505050505050565b600460009054906101000a900473ffffffffffffffffffffffffffffffffffffffff1681565b600560009054906101000a900473ffffffffffffffffffffffffffffffffffffffff1681565b60008060029054906101000a900473ffffffffffffffffffffffffffffffffffffffff16905090565b60008061169b61095e565b905060006116a76116e2565b905081816116b59190612f0f565b9250505090565b600260009054906101000a900473ffffffffffffffffffffffffffffffffffffffff1681565b6000600260009054906101000a900473ffffffffffffffffffffffffffffffffffffffff1673ffffffffffffffffffffffffffffffffffffffff166370a08231306040518263ffffffff1660e01b815260040161173f9190612beb565b60206040518083038186803b15801561175757600080fd5b505afa15801561176b573d6000803e3d6000fd5b505050506040513d601f19601f8201168201806040525081019061178f9190612760565b905090565b600360009054906101000a900473ffffffffffffffffffffffffffffffffffffffff1681565b6117c26118b2565b73ffffffffffffffffffffffffffffffffffffffff166117e0611667565b73ffffffffffffffffffffffffffffffffffffffff1614611836576040517f08c379a000000000000000000000000000000000000000000000000000000000815260040161182d90612d5e565b60405180910390fd5b600073ffffffffffffffffffffffffffffffffffffffff168173ffffffffffffffffffffffffffffffffffffffff1614156118a6576040517f08c379a000000000000000000000000000000000000000000000000000000000815260040161189d90612d1e565b60405180910390fd5b6118af816121b2565b50565b600033905090565b61193d846323b872dd60e01b8585856040516024016118db93929190612c2f565b604051602081830303815290604052907bffffffffffffffffffffffffffffffffffffffffffffffffffffffff19166020820180517bffffffffffffffffffffffffffffffffffffffffffffffffffffffff8381831617835250505050612277565b50505050565b60008114806119dc575060008373ffffffffffffffffffffffffffffffffffffffff1663dd62ed3e30856040518363ffffffff1660e01b815260040161198a929190612c06565b60206040518083038186803b1580156119a257600080fd5b505afa1580156119b6573d6000803e3d6000fd5b505050506040513d601f19601f820116820180604052508101906119da9190612760565b145b611a1b576040517f08c379a0000000000000000000000000000000000000000000000000000000008152600401611a1290612dfe565b60405180910390fd5b611a9c8363095ea7b360e01b8484604051602401611a3a929190612c66565b604051602081830303815290604052907bffffffffffffffffffffffffffffffffffffffffffffffffffffffff19166020820180517bffffffffffffffffffffffffffffffffffffffffffffffffffffffff8381831617835250505050612277565b505050565b600460009054906101000a900473ffffffffffffffffffffffffffffffffffffffff1673ffffffffffffffffffffffffffffffffffffffff16636a627842600360009054906101000a900473ffffffffffffffffffffffffffffffffffffffff166040518263ffffffff1660e01b8152600401611b1e9190612beb565b600060405180830381600087803b158015611b3857600080fd5b505af1158015611b4c573d6000803e3d6000fd5b50505050565b611bd38363a9059cbb60e01b8484604051602401611b71929190612c66565b604051602081830303815290604052907bffffffffffffffffffffffffffffffffffffffffffffffffffffffff19166020820180517bffffffffffffffffffffffffffffffffffffffffffffffffffffffff8381831617835250505050612277565b505050565b611be0612506565b611be86124e4565b611bf0612506565b60005b6002811015611d2a57600160009054906101000a900473ffffffffffffffffffffffffffffffffffffffff1673ffffffffffffffffffffffffffffffffffffffff166323746eb8826040518263ffffffff1660e01b8152600401611c579190612ce1565b60206040518083038186803b158015611c6f57600080fd5b505afa158015611c83573d6000803e3d6000fd5b505050506040513d601f19601f82011682018060405250810190611ca79190612659565b838260028110611ce0577f4e487b7100000000000000000000000000000000000000000000000000000000600052603260045260246000fd5b602002019073ffffffffffffffffffffffffffffffffffffffff16908173ffffffffffffffffffffffffffffffffffffffff16815250508080611d2290613270565b915050611bf3565b506000611d35611690565b90506000600260009054906101000a900473ffffffffffffffffffffffffffffffffffffffff1673ffffffffffffffffffffffffffffffffffffffff166318160ddd6040518163ffffffff1660e01b815260040160206040518083038186803b158015611da157600080fd5b505afa158015611db5573d6000803e3d6000fd5b505050506040513d601f19601f82011682018060405250810190611dd99190612760565b905060008111611e1e576040517f08c379a0000000000000000000000000000000000000000000000000000000008152600401611e1590612d9e565b60405180910390fd5b60005b600281101561209d576000600160009054906101000a900473ffffffffffffffffffffffffffffffffffffffff1673ffffffffffffffffffffffffffffffffffffffff1663065a80d8836040518263ffffffff1660e01b8152600401611e879190612ce1565b60206040518083038186803b158015611e9f57600080fd5b505afa158015611eb3573d6000803e3d6000fd5b505050506040513d601f19601f82011682018060405250810190611ed79190612760565b90506000600160009054906101000a900473ffffffffffffffffffffffffffffffffffffffff1673ffffffffffffffffffffffffffffffffffffffff166323746eb8846040518263ffffffff1660e01b8152600401611f369190612ce1565b60206040518083038186803b158015611f4e57600080fd5b505afa158015611f62573d6000803e3d6000fd5b505050506040513d601f19601f82011682018060405250810190611f869190612659565b90506000848684611f979190613107565b611fa19190612f65565b905060008273ffffffffffffffffffffffffffffffffffffffff1663bd6d894d6040518163ffffffff1660e01b815260040160206040518083038186803b158015611feb57600080fd5b505afa158015611fff573d6000803e3d6000fd5b505050506040513d601f19601f820116820180604052508101906120239190612760565b9050670de0b6b3a7640000828261203a9190613107565b6120449190612f65565b88866002811061207d577f4e487b7100000000000000000000000000000000000000000000000000000000600052603260045260246000fd5b60200201818152505050505050808061209590613270565b915050611e21565b508294505050505090565b6000808373ffffffffffffffffffffffffffffffffffffffff1663313ce5676040518163ffffffff1660e01b815260040160206040518083038186803b1580156120f157600080fd5b505afa158015612105573d6000803e3d6000fd5b505050506040513d601f19601f820116820180604052508101906121299190612789565b905060128160ff16141561213f578291506121ab565b60128160ff161115612176576012816121589190613195565b600a6121649190612fe9565b8361216f9190612f65565b91506121aa565b60128160ff1610156121a95780601261218f9190613195565b600a61219b9190612fe9565b836121a69190613107565b91505b5b5b5092915050565b60008060029054906101000a900473ffffffffffffffffffffffffffffffffffffffff16905081600060026101000a81548173ffffffffffffffffffffffffffffffffffffffff021916908373ffffffffffffffffffffffffffffffffffffffff1602179055508173ffffffffffffffffffffffffffffffffffffffff168173ffffffffffffffffffffffffffffffffffffffff167f8be0079c531659141344cd1fd0a4f28419497f9722a3daafe3b4186f6b6457e060405160405180910390a35050565b60006122d9826040518060400160405280602081526020017f5361666545524332303a206c6f772d6c6576656c2063616c6c206661696c65648152508573ffffffffffffffffffffffffffffffffffffffff1661233e9092919063ffffffff16565b905060008151111561233957808060200190518101906122f9919061270e565b612338576040517f08c379a000000000000000000000000000000000000000000000000000000000815260040161232f90612dde565b60405180910390fd5b5b505050565b606061234d8484600085612356565b90509392505050565b60608247101561239b576040517f08c379a000000000000000000000000000000000000000000000000000000000815260040161239290612d3e565b60405180910390fd5b6123a48561246a565b6123e3576040517f08c379a00000000000000000000000000000000000000000000000000000000081526004016123da90612dbe565b60405180910390fd5b6000808673ffffffffffffffffffffffffffffffffffffffff16858760405161240c9190612bd4565b60006040518083038185875af1925050503d8060008114612449576040519150601f19603f3d011682016040523d82523d6000602084013e61244e565b606091505b509150915061245e82828661247d565b92505050949350505050565b600080823b905060008111915050919050565b6060831561248d578290506124dd565b6000835111156124a05782518084602001fd5b816040517f08c379a00000000000000000000000000000000000000000000000000000000081526004016124d49190612cfc565b60405180910390fd5b9392505050565b6040518060400160405280600290602082028036833780820191505090505090565b6040518060400160405280600290602082028036833780820191505090505090565b600061253b61253684612e8a565b612e59565b9050808285602086028201111561255157600080fd5b60005b85811015612581578161256788826125f1565b845260208401935060208301925050600181019050612554565b5050509392505050565b60008135905061259a81613364565b92915050565b6000815190506125af81613364565b92915050565b600082601f8301126125c657600080fd5b60026125d3848285612528565b91505092915050565b6000815190506125eb8161337b565b92915050565b60008135905061260081613392565b92915050565b60008151905061261581613392565b92915050565b60008151905061262a816133a9565b92915050565b60006020828403121561264257600080fd5b60006126508482850161258b565b91505092915050565b60006020828403121561266b57600080fd5b6000612679848285016125a0565b91505092915050565b6000806000806080858703121561269857600080fd5b60006126a68782880161258b565b94505060206126b78782880161258b565b93505060406126c88782880161258b565b92505060606126d98782880161258b565b91505092959194509250565b6000604082840312156126f757600080fd5b6000612705848285016125b5565b91505092915050565b60006020828403121561272057600080fd5b600061272e848285016125dc565b91505092915050565b60006020828403121561274957600080fd5b6000612757848285016125f1565b91505092915050565b60006020828403121561277257600080fd5b600061278084828501612606565b91505092915050565b60006020828403121561279b57600080fd5b60006127a98482850161261b565b91505092915050565b60006127be8383612bb6565b60208301905092915050565b6127d3816131c9565b82525050565b6127e281612eba565b6127ec8184612ee8565b92506127f782612eb0565b8060005b8381101561282857815161280f87826127b2565b965061281a83612edb565b9250506001810190506127fb565b505050505050565b600061283b82612ec5565b6128458185612ef3565b935061285581856020860161323d565b80840191505092915050565b61286a816131e7565b82525050565b6128798161322b565b82525050565b600061288a82612ed0565b6128948185612efe565b93506128a481856020860161323d565b6128ad81613346565b840191505092915050565b60006128c5602683612efe565b91507f4f776e61626c653a206e6577206f776e657220697320746865207a65726f206160008301527f64647265737300000000000000000000000000000000000000000000000000006020830152604082019050919050565b600061292b602683612efe565b91507f416464726573733a20696e73756666696369656e742062616c616e636520666f60008301527f722063616c6c00000000000000000000000000000000000000000000000000006020830152604082019050919050565b6000612991602083612efe565b91507f4f776e61626c653a2063616c6c6572206973206e6f7420746865206f776e65726000830152602082019050919050565b60006129d1602583612efe565b91507f496e636f727265637420537461626c655377617020636f6e747261637420616460008301527f64726573730000000000000000000000000000000000000000000000000000006020830152604082019050919050565b6000612a37601983612efe565b91507f4e6f204375727665204c5020746f6b656e73206d696e746564000000000000006000830152602082019050919050565b6000612a77601d83612efe565b91507f416464726573733a2063616c6c20746f206e6f6e2d636f6e74726163740000006000830152602082019050919050565b6000612ab7602a83612efe565b91507f5361666545524332303a204552433230206f7065726174696f6e20646964206e60008301527f6f742073756363656564000000000000000000000000000000000000000000006020830152604082019050919050565b6000612b1d603683612efe565b91507f5361666545524332303a20617070726f76652066726f6d206e6f6e2d7a65726f60008301527f20746f206e6f6e2d7a65726f20616c6c6f77616e6365000000000000000000006020830152604082019050919050565b6000612b83601e83612efe565b91507f43757276654669204c5020746f6b656e7320646f206e6f74206d6174636800006000830152602082019050919050565b612bbf81613214565b82525050565b612bce81613214565b82525050565b6000612be08284612830565b915081905092915050565b6000602082019050612c0060008301846127ca565b92915050565b6000604082019050612c1b60008301856127ca565b612c2860208301846127ca565b9392505050565b6000606082019050612c4460008301866127ca565b612c5160208301856127ca565b612c5e6040830184612bc5565b949350505050565b6000604082019050612c7b60008301856127ca565b612c886020830184612bc5565b9392505050565b6000606082019050612ca460008301856127d9565b612cb16040830184612870565b9392505050565b6000606082019050612ccd60008301856127d9565b612cda6040830184612bc5565b9392505050565b6000602082019050612cf66000830184612861565b92915050565b60006020820190508181036000830152612d16818461287f565b905092915050565b60006020820190508181036000830152612d37816128b8565b9050919050565b60006020820190508181036000830152612d578161291e565b9050919050565b60006020820190508181036000830152612d7781612984565b9050919050565b60006020820190508181036000830152612d97816129c4565b9050919050565b60006020820190508181036000830152612db781612a2a565b9050919050565b60006020820190508181036000830152612dd781612a6a565b9050919050565b60006020820190508181036000830152612df781612aaa565b9050919050565b60006020820190508181036000830152612e1781612b10565b9050919050565b60006020820190508181036000830152612e3781612b76565b9050919050565b6000602082019050612e536000830184612bc5565b92915050565b6000604051905081810181811067ffffffffffffffff82111715612e8057612e7f613317565b5b8060405250919050565b600067ffffffffffffffff821115612ea557612ea4613317565b5b602082029050919050565b6000819050919050565b600060029050919050565b600081519050919050565b600081519050919050565b6000602082019050919050565b600081905092915050565b600081905092915050565b600082825260208201905092915050565b6000612f1a82613214565b9150612f2583613214565b9250827fffffffffffffffffffffffffffffffffffffffffffffffffffffffffffffffff03821115612f5a57612f596132b9565b5b828201905092915050565b6000612f7082613214565b9150612f7b83613214565b925082612f8b57612f8a6132e8565b5b828204905092915050565b6000808291508390505b6001851115612fe057808604811115612fbc57612fbb6132b9565b5b6001851615612fcb5780820291505b8081029050612fd985613357565b9450612fa0565b94509492505050565b6000612ff482613214565b9150612fff8361321e565b925061302c7fffffffffffffffffffffffffffffffffffffffffffffffffffffffffffffffff8484613034565b905092915050565b6000826130445760019050613100565b816130525760009050613100565b81600181146130685760028114613072576130a1565b6001915050613100565b60ff841115613084576130836132b9565b5b8360020a91508482111561309b5761309a6132b9565b5b50613100565b5060208310610133831016604e8410600b84101617156130d65782820a9050838111156130d1576130d06132b9565b5b613100565b6130e38484846001612f96565b925090508184048111156130fa576130f96132b9565b5b81810290505b9392505050565b600061311282613214565b915061311d83613214565b9250817fffffffffffffffffffffffffffffffffffffffffffffffffffffffffffffffff0483118215151615613156576131556132b9565b5b828202905092915050565b600061316c82613214565b915061317783613214565b92508282101561318a576131896132b9565b5b828203905092915050565b60006131a08261321e565b91506131ab8361321e565b9250828210156131be576131bd6132b9565b5b828203905092915050565b60006131d4826131f4565b9050919050565b60008115159050919050565b600081600f0b9050919050565b600073ffffffffffffffffffffffffffffffffffffffff82169050919050565b6000819050919050565b600060ff82169050919050565b600061323682613214565b9050919050565b60005b8381101561325b578082015181840152602081019050613240565b8381111561326a576000848401525b50505050565b600061327b82613214565b91507fffffffffffffffffffffffffffffffffffffffffffffffffffffffffffffffff8214156132ae576132ad6132b9565b5b600182019050919050565b7f4e487b7100000000000000000000000000000000000000000000000000000000600052601160045260246000fd5b7f4e487b7100000000000000000000000000000000000000000000000000000000600052601260045260246000fd5b7f4e487b7100000000000000000000000000000000000000000000000000000000600052604160045260246000fd5b6000601f19601f8301169050919050565b60008160011c9050919050565b61336d816131c9565b811461337857600080fd5b50565b613384816131db565b811461338f57600080fd5b50565b61339b81613214565b81146133a657600080fd5b50565b6133b28161321e565b81146133bd57600080fd5b5056fea26469706673582212209b37ce762de86072fde1e3a16641167933baa7a260ece6c7813a850964da89d764736f6c63430008000033",
  "immutableReferences": {},
  "source": "// SPDX-License-Identifier: MIT\r\npragma solidity >=0.4.22 <0.9.0;\r\n\r\nimport '@openzeppelin/contracts/proxy/utils/Initializable.sol';\r\nimport '@openzeppelin/contracts/utils/Context.sol';\r\nimport '@openzeppelin/contracts/access/Ownable.sol';\r\n\r\nimport '@openzeppelin/contracts/token/ERC20/IERC20.sol';\r\nimport '@openzeppelin/contracts/token/ERC20/ERC20.sol';\r\nimport '@openzeppelin/contracts/token/ERC20/utils/SafeERC20.sol';\r\n\r\nimport './curvefi/ICurveFi_StableSwapRen.sol';\r\nimport './curvefi/ICurveFi_Gauge.sol';\r\nimport './curvefi/ICurveFi_Minter.sol';\r\nimport './curvefi/IRenERC20.sol';\r\n\r\ncontract RenBTCtoCurve is Initializable, Ownable{\r\n    using SafeERC20 for IERC20;\r\n\r\n    address public curveFi_Swap;\r\n    address public curveFi_LPToken;\r\n    address public curveFi_LPGauge;\r\n    address public curveFi_CRVMinter;\r\n    address public curveFi_CRVToken; \r\n\r\n    /**\r\n     * @notice Set CurveFi contracts addresses\r\n     * @param _swapContract CurveFi Deposit contract for ren-pool\r\n     * @param _gaugeContract CurveFi Gauge contract for ren-pool\r\n     * @param _minterContract CurveFi CRV minter\r\n     * @param _lpContract CurveFi LP token contract = CurveTokenV1\r\n     */\r\n        function setup( address _swapContract, \r\n                        address _gaugeContract, \r\n                        address _minterContract, \r\n                        address _lpContract ) \r\n                        external onlyOwner {\r\n\r\n        require(_swapContract != address(0), \"Incorrect StableSwap contract address\");\r\n\r\n        curveFi_Swap = _swapContract;\r\n        curveFi_LPGauge = _gaugeContract;\r\n        curveFi_LPToken = _lpContract;\r\n\r\n        require(ICurveFi_Gauge(curveFi_LPGauge).lp_token() == address(curveFi_LPToken), \"CurveFi LP tokens do not match\");        \r\n\r\n        curveFi_CRVMinter = _minterContract;\r\n        curveFi_CRVToken = ICurveFi_Gauge(curveFi_LPGauge).crv_token();\r\n    }\r\n\r\n     /**\r\n     * @notice Deposits 2 stablecoins (registered in Curve.Fi Y pool)\r\n     * @param _amounts Array of amounts for CurveFI stablecoins in pool (denormalized to token decimals)\r\n     */\r\n    function multiStepDeposit(uint[2] memory _amounts) public {\r\n        address[2] memory stablecoins;\r\n        \r\n        for(uint i = 0 ; i < stablecoins.length ; i++){\r\n            stablecoins[i] = ICurveFi_StableSwapRen(curveFi_Swap).coins(int128(uint128(i)));\r\n        }\r\n        \r\n        for (uint256 i = 0; i < stablecoins.length; i++) {\r\n            IERC20(stablecoins[i]).safeTransferFrom(_msgSender(), address(this), _amounts[i]);\r\n            IERC20(stablecoins[i]).safeApprove(curveFi_Swap, _amounts[i]);\r\n        }\r\n\r\n        //Step 1 - deposit stablecoins and get Curve.Fi LP tokens\r\n        ICurveFi_StableSwapRen(curveFi_Swap).add_liquidity(_amounts, 0); \r\n\r\n        //Step 2 - stake Curve LP tokens into Gauge and get CRV rewards\r\n        uint256 curveLPBalance = IERC20(curveFi_LPToken).balanceOf(address(this));\r\n\r\n        IERC20(curveFi_LPToken).safeApprove(curveFi_LPGauge, curveLPBalance);\r\n        ICurveFi_Gauge(curveFi_LPGauge).deposit(curveLPBalance);\r\n\r\n        //Step 3 - get all the rewards (and make whatever you need with them)\r\n        crvTokenClaim();\r\n        uint256 crvAmount = IERC20(curveFi_CRVToken).balanceOf(address(this));\r\n        IERC20(curveFi_CRVToken).safeTransfer(_msgSender(), crvAmount);\r\n\r\n    }\r\n\r\n     /**\r\n     * @notice Claim CRV reward\r\n     */\r\n    function crvTokenClaim() internal {\r\n        ICurveFi_Minter(curveFi_CRVMinter).mint(curveFi_LPGauge);\r\n    }\r\n\r\n    function multiStepWithdraw(uint[2] memory _amounts)public {\r\n        address[2] memory stablecoins;\r\n        uint nWithdraw;\r\n       \r\n        for(uint i = 0 ; i < stablecoins.length ; i++){\r\n            stablecoins[i] = ICurveFi_StableSwapRen(curveFi_Swap).coins(int128(uint128(i)));\r\n        }\r\n        \r\n        //Step 1 - Calculate amount of Curve LP-tokens to unstake\r\n        for(uint i = 0 ; i < stablecoins.length ; i++){\r\n            nWithdraw = nWithdraw + normalize(stablecoins[i], _amounts[i]);\r\n        }\r\n\r\n        uint withdrawShares = calculateShares(nWithdraw);\r\n\r\n        //Check if you can re-use unstaked LP tokens\r\n        uint notStaked = curveLPTokenUnstaked();\r\n        if (notStaked > 0) {\r\n            withdrawShares = withdrawShares - notStaked;\r\n        }\r\n\r\n        //Step 2 - Unstake Curve LP tokens from Gauge\r\n        ICurveFi_Gauge(curveFi_LPGauge).withdraw(withdrawShares);\r\n\r\n        //Step 3 - Withdraw stablecoins from CurveSwap\r\n        IERC20(curveFi_LPToken).safeApprove(curveFi_Swap, withdrawShares);\r\n        ICurveFi_StableSwapRen(curveFi_Swap).remove_liquidity_imbalance(_amounts, withdrawShares);\r\n\r\n        //Step 4 - Send stablecoins to the requestor\r\n        for (uint i = 0; i <  stablecoins.length; i++){\r\n            IERC20 _stablecoin = IERC20(stablecoins[i]);\r\n            uint256 balance = _stablecoin.balanceOf(address(this));\r\n            uint256 amount = (balance <= _amounts[i]) ? balance : _amounts[i]; //Safepoint for rounding\r\n            _stablecoin.safeTransfer(_msgSender(), amount);\r\n        }\r\n    }\r\n\r\n    function calculateShares(uint normalizedWithdraw)public view returns(uint){\r\n        uint nBalance = normalizedBalance();\r\n        uint poolShares = curveLPTokenBalance();\r\n        \r\n        return poolShares * normalizedWithdraw / nBalance;\r\n    }\r\n\r\n    function normalizedBalance()public view returns(uint){\r\n        address[2] memory stablecoins;\r\n\r\n        for(uint i = 0 ; i < stablecoins.length ; i++){\r\n            stablecoins[i] = ICurveFi_StableSwapRen(curveFi_Swap).coins(int128(uint128(i)));\r\n        }\r\n\r\n        uint[2] memory balances = balanceOfAll();\r\n        uint256 sum;\r\n\r\n        for (uint256 i=0; i < stablecoins.length; i++){\r\n            sum = sum + normalize(stablecoins[i], balances[i]);\r\n        }\r\n\r\n        return sum;\r\n    } \r\n\r\n    function balanceOfAll()internal view returns(uint[2] memory){\r\n        address[2] memory stablecoins;\r\n        uint [2] memory balances;\r\n\r\n        for(uint i = 0 ; i < stablecoins.length ; i++){\r\n            stablecoins[i] = ICurveFi_StableSwapRen(curveFi_Swap).coins(int128(uint128(i)));\r\n        }\r\n\r\n        uint curveLPBalance = curveLPTokenBalance();\r\n        uint curveLPTokenSupply = IERC20(curveFi_LPToken).totalSupply();\r\n\r\n        require(curveLPTokenSupply > 0, \"No Curve LP tokens minted\");\r\n\r\n        for(uint i = 0 ; i < stablecoins.length ; i++){\r\n            uint renLPTokenBalance = ICurveFi_StableSwapRen(curveFi_Swap).balances(int128(uint128(i)));\r\n            address renCoin = ICurveFi_StableSwapRen(curveFi_Swap).coins(int128(uint128(i)));\r\n            \r\n            //Calculate user's share of ren tokens\r\n            uint renShares = renLPTokenBalance * curveLPBalance / curveLPTokenSupply;\r\n            uint renPrice = IRenERC20(renCoin).exchangeRateCurrent();\r\n\r\n            balances[i] = renPrice * renShares / 1e18;\r\n        }\r\n        return balances;\r\n    }\r\n  \r\n     \r\n     /**\r\n     * @notice Get full amount of Curve LP tokens available for this contract\r\n     */\r\n    function curveLPTokenBalance() public view returns(uint256) {\r\n        uint256 staked = curveLPTokenStaked();\r\n        uint256 unstaked = curveLPTokenUnstaked();\r\n        return unstaked + staked;\r\n    }\r\n\r\n    /**\r\n     * @notice Get amount of unstaked CurveFi LP tokens (which lay on this contract)\r\n     */\r\n    function curveLPTokenUnstaked() public view returns(uint256) {\r\n        return IERC20(curveFi_LPToken).balanceOf(address(this));\r\n    }\r\n\r\n    /**\r\n     * @notice Get amount of CurveFi LP tokens staked in the Gauge\r\n     */\r\n    function curveLPTokenStaked() public view returns(uint256) {\r\n        return ICurveFi_Gauge(curveFi_LPGauge).balanceOf(address(this));\r\n    }\r\n\r\n    /**\r\n     * @notice Util to normalize balance up to 18 decimals\r\n     */\r\n    function normalize(address coin, uint256 amount) internal view returns(uint result) {\r\n       uint8 decimal  = ERC20(coin).decimals();\r\n        if(decimal == 18){\r\n            result =  amount; \r\n        }\r\n        else if(decimal > 18){\r\n            result =  amount / (10 ** (decimal-18));\r\n        }\r\n        else if(decimal < 18){\r\n            result = amount * (10 ** (18-decimal));\r\n        }\r\n    }\r\n\r\n}",
  "sourcePath": "D:/BlockChain/Ethereum-201/Ren-project/contracts/RenBTCtoCurve.sol",
  "compiler": {
    "name": "solc",
    "version": "0.8.0+commit.c7dfd78e.Emscripten.clang"
  },
  "schemaVersion": "3.4.1",
  "updatedAt": "2021-11-03T14:03:48.718Z",
  "networkType": "ethereum",
  "devdoc": {
    "kind": "dev",
    "methods": {
      "multiStepDeposit(uint256[2])": {
        "params": {
          "_amounts": "Array of amounts for CurveFI stablecoins in pool (denormalized to token decimals)"
        }
      },
      "owner()": {
        "details": "Returns the address of the current owner."
      },
      "renounceOwnership()": {
        "details": "Leaves the contract without owner. It will not be possible to call `onlyOwner` functions anymore. Can only be called by the current owner. NOTE: Renouncing ownership will leave the contract without an owner, thereby removing any functionality that is only available to the owner."
      },
      "setup(address,address,address,address)": {
        "params": {
          "_gaugeContract": "CurveFi Gauge contract for ren-pool",
          "_lpContract": "CurveFi LP token contract = CurveTokenV1",
          "_minterContract": "CurveFi CRV minter",
          "_swapContract": "CurveFi Deposit contract for ren-pool"
        }
      },
      "transferOwnership(address)": {
        "details": "Transfers ownership of the contract to a new account (`newOwner`). Can only be called by the current owner."
      }
    },
    "version": 1
  },
  "userdoc": {
    "kind": "user",
    "methods": {
      "curveLPTokenBalance()": {
        "notice": "Get full amount of Curve LP tokens available for this contract"
      },
      "curveLPTokenStaked()": {
        "notice": "Get amount of CurveFi LP tokens staked in the Gauge"
      },
      "curveLPTokenUnstaked()": {
        "notice": "Get amount of unstaked CurveFi LP tokens (which lay on this contract)"
      },
      "multiStepDeposit(uint256[2])": {
        "notice": "Deposits 2 stablecoins (registered in Curve.Fi Y pool)"
      },
      "setup(address,address,address,address)": {
        "notice": "Set CurveFi contracts addresses"
      }
    },
    "version": 1
  }
}