{
  "contractName": "RenBTCtoCurve",
  "abi": [
    {
      "anonymous": false,
      "inputs": [
        {
          "indexed": true,
          "internalType": "address",
          "name": "previousOwner",
          "type": "address"
        },
        {
          "indexed": true,
          "internalType": "address",
          "name": "newOwner",
          "type": "address"
        }
      ],
      "name": "OwnershipTransferred",
      "type": "event"
    },
    {
      "inputs": [],
      "name": "curveFi_CRVMinter",
      "outputs": [
        {
          "internalType": "address",
          "name": "",
          "type": "address"
        }
      ],
      "stateMutability": "view",
      "type": "function",
      "constant": true
    },
    {
      "inputs": [],
      "name": "curveFi_CRVToken",
      "outputs": [
        {
          "internalType": "address",
          "name": "",
          "type": "address"
        }
      ],
      "stateMutability": "view",
      "type": "function",
      "constant": true
    },
    {
      "inputs": [],
      "name": "curveFi_LPGauge",
      "outputs": [
        {
          "internalType": "address",
          "name": "",
          "type": "address"
        }
      ],
      "stateMutability": "view",
      "type": "function",
      "constant": true
    },
    {
      "inputs": [],
      "name": "curveFi_LPToken",
      "outputs": [
        {
          "internalType": "address",
          "name": "",
          "type": "address"
        }
      ],
      "stateMutability": "view",
      "type": "function",
      "constant": true
    },
    {
      "inputs": [],
      "name": "curveFi_Swap",
      "outputs": [
        {
          "internalType": "address",
          "name": "",
          "type": "address"
        }
      ],
      "stateMutability": "view",
      "type": "function",
      "constant": true
    },
    {
      "inputs": [],
      "name": "owner",
      "outputs": [
        {
          "internalType": "address",
          "name": "",
          "type": "address"
        }
      ],
      "stateMutability": "view",
      "type": "function",
      "constant": true
    },
    {
      "inputs": [],
      "name": "renounceOwnership",
      "outputs": [],
      "stateMutability": "nonpayable",
      "type": "function"
    },
    {
      "inputs": [
        {
          "internalType": "address",
          "name": "newOwner",
          "type": "address"
        }
      ],
      "name": "transferOwnership",
      "outputs": [],
      "stateMutability": "nonpayable",
      "type": "function"
    },
    {
      "inputs": [
        {
          "internalType": "address",
          "name": "_swapContract",
          "type": "address"
        },
        {
          "internalType": "address",
          "name": "_gaugeContract",
          "type": "address"
        },
        {
          "internalType": "address",
          "name": "_minterContract",
          "type": "address"
        },
        {
          "internalType": "address",
          "name": "_lpContract",
          "type": "address"
        }
      ],
      "name": "setup",
      "outputs": [],
      "stateMutability": "nonpayable",
      "type": "function"
    },
    {
      "inputs": [
        {
          "internalType": "uint256[2]",
          "name": "_amounts",
          "type": "uint256[2]"
        }
      ],
      "name": "multiStepDeposit",
      "outputs": [],
      "stateMutability": "nonpayable",
      "type": "function"
    },
    {
      "inputs": [],
      "name": "curveLPTokenStaked",
      "outputs": [
        {
          "internalType": "uint256",
          "name": "",
          "type": "uint256"
        }
      ],
      "stateMutability": "view",
      "type": "function",
      "constant": true
    }
  ],
  "bytecode": "0x608060405234801561001057600080fd5b5061002d61002261003260201b60201c565b61003a60201b60201c565b6100ff565b600033905090565b60008060029054906101000a900473ffffffffffffffffffffffffffffffffffffffff16905081600060026101000a81548173ffffffffffffffffffffffffffffffffffffffff021916908373ffffffffffffffffffffffffffffffffffffffff1602179055508173ffffffffffffffffffffffffffffffffffffffff168173ffffffffffffffffffffffffffffffffffffffff167f8be0079c531659141344cd1fd0a4f28419497f9722a3daafe3b4186f6b6457e060405160405180910390a35050565b612141806200010f6000396000f3fe608060405234801561001057600080fd5b50600436106100a95760003560e01c80637c241146116100715780637c2411461461012c5780638141d2661461014a5780638da5cb5b14610168578063a3477c3614610186578063e011262a146101a4578063f2fde38b146101c2576100a9565b80631c600416146100ae57806323b3399d146100cc57806344f9c395146100e857806354c35a3c14610106578063715018a614610122575b600080fd5b6100b66101de565b6040516100c39190611c5a565b60405180910390f35b6100e660048036038101906100e191906117d7565b610204565b005b6100f06108bd565b6040516100fd9190611e7f565b60405180910390f35b610120600480360381019061011b9190611774565b61096f565b005b61012a610d74565b005b610134610dfc565b6040516101419190611c5a565b60405180910390f35b610152610e22565b60405161015f9190611c5a565b60405180910390f35b610170610e48565b60405161017d9190611c5a565b60405180910390f35b61018e610e71565b60405161019b9190611c5a565b60405180910390f35b6101ac610e97565b6040516101b99190611c5a565b60405180910390f35b6101dc60048036038101906101d79190611722565b610ebd565b005b600160009054906101000a900473ffffffffffffffffffffffffffffffffffffffff1681565b60008061020f61160d565b600160009054906101000a900473ffffffffffffffffffffffffffffffffffffffff1673ffffffffffffffffffffffffffffffffffffffff166323746eb860006040518263ffffffff1660e01b815260040161026b9190611d27565b60206040518083038186803b15801561028357600080fd5b505afa158015610297573d6000803e3d6000fd5b505050506040513d601f19601f820116820180604052508101906102bb919061174b565b9250600160009054906101000a900473ffffffffffffffffffffffffffffffffffffffff1673ffffffffffffffffffffffffffffffffffffffff166323746eb860016040518263ffffffff1660e01b81526004016103199190611d42565b60206040518083038186803b15801561033157600080fd5b505afa158015610345573d6000803e3d6000fd5b505050506040513d601f19601f82011682018060405250810190610369919061174b565b915060405180604001604052808473ffffffffffffffffffffffffffffffffffffffff1673ffffffffffffffffffffffffffffffffffffffff1681526020018373ffffffffffffffffffffffffffffffffffffffff1673ffffffffffffffffffffffffffffffffffffffff16815250905060005b600281101561056e576104946103f1610fb5565b3087846002811061042b577f4e487b7100000000000000000000000000000000000000000000000000000000600052603260045260246000fd5b6020020151858560028110610469577f4e487b7100000000000000000000000000000000000000000000000000000000600052603260045260246000fd5b602002015173ffffffffffffffffffffffffffffffffffffffff16610fbd909392919063ffffffff16565b61055b600160009054906101000a900473ffffffffffffffffffffffffffffffffffffffff168683600281106104f3577f4e487b7100000000000000000000000000000000000000000000000000000000600052603260045260246000fd5b6020020151848460028110610531577f4e487b7100000000000000000000000000000000000000000000000000000000600052603260045260246000fd5b602002015173ffffffffffffffffffffffffffffffffffffffff166110469092919063ffffffff16565b80806105669061200e565b9150506103dd565b50600160009054906101000a900473ffffffffffffffffffffffffffffffffffffffff1673ffffffffffffffffffffffffffffffffffffffff16630b4c7e4d8560006040518363ffffffff1660e01b81526004016105cd929190611cfe565b600060405180830381600087803b1580156105e757600080fd5b505af11580156105fb573d6000803e3d6000fd5b505050506000600260009054906101000a900473ffffffffffffffffffffffffffffffffffffffff1673ffffffffffffffffffffffffffffffffffffffff166370a08231306040518263ffffffff1660e01b815260040161065c9190611c5a565b60206040518083038186803b15801561067457600080fd5b505afa158015610688573d6000803e3d6000fd5b505050506040513d601f19601f820116820180604052508101906106ac9190611829565b905061071d600360009054906101000a900473ffffffffffffffffffffffffffffffffffffffff1682600260009054906101000a900473ffffffffffffffffffffffffffffffffffffffff1673ffffffffffffffffffffffffffffffffffffffff166110469092919063ffffffff16565b600360009054906101000a900473ffffffffffffffffffffffffffffffffffffffff1673ffffffffffffffffffffffffffffffffffffffff1663b6b55f25826040518263ffffffff1660e01b81526004016107789190611e7f565b600060405180830381600087803b15801561079257600080fd5b505af11580156107a6573d6000803e3d6000fd5b505050506107b26111a4565b6000600560009054906101000a900473ffffffffffffffffffffffffffffffffffffffff1673ffffffffffffffffffffffffffffffffffffffff166370a08231306040518263ffffffff1660e01b815260040161080f9190611c5a565b60206040518083038186803b15801561082757600080fd5b505afa15801561083b573d6000803e3d6000fd5b505050506040513d601f19601f8201168201806040525081019061085f9190611829565b90506108b561086c610fb5565b82600560009054906101000a900473ffffffffffffffffffffffffffffffffffffffff1673ffffffffffffffffffffffffffffffffffffffff166112559092919063ffffffff16565b505050505050565b6000600360009054906101000a900473ffffffffffffffffffffffffffffffffffffffff1673ffffffffffffffffffffffffffffffffffffffff166370a08231306040518263ffffffff1660e01b815260040161091a9190611c5a565b60206040518083038186803b15801561093257600080fd5b505afa158015610946573d6000803e3d6000fd5b505050506040513d601f19601f8201168201806040525081019061096a9190611829565b905090565b610977610fb5565b73ffffffffffffffffffffffffffffffffffffffff16610995610e48565b73ffffffffffffffffffffffffffffffffffffffff16146109eb576040517f08c379a00000000000000000000000000000000000000000000000000000000081526004016109e290611dbf565b60405180910390fd5b600073ffffffffffffffffffffffffffffffffffffffff168473ffffffffffffffffffffffffffffffffffffffff161415610a5b576040517f08c379a0000000000000000000000000000000000000000000000000000000008152600401610a5290611ddf565b60405180910390fd5b83600160006101000a81548173ffffffffffffffffffffffffffffffffffffffff021916908373ffffffffffffffffffffffffffffffffffffffff16021790555082600360006101000a81548173ffffffffffffffffffffffffffffffffffffffff021916908373ffffffffffffffffffffffffffffffffffffffff16021790555080600260006101000a81548173ffffffffffffffffffffffffffffffffffffffff021916908373ffffffffffffffffffffffffffffffffffffffff160217905550600260009054906101000a900473ffffffffffffffffffffffffffffffffffffffff1673ffffffffffffffffffffffffffffffffffffffff16600360009054906101000a900473ffffffffffffffffffffffffffffffffffffffff1673ffffffffffffffffffffffffffffffffffffffff166382c630666040518163ffffffff1660e01b815260040160206040518083038186803b158015610bbf57600080fd5b505afa158015610bd3573d6000803e3d6000fd5b505050506040513d601f19601f82011682018060405250810190610bf7919061174b565b73ffffffffffffffffffffffffffffffffffffffff1614610c4d576040517f08c379a0000000000000000000000000000000000000000000000000000000008152600401610c4490611e5f565b60405180910390fd5b81600460006101000a81548173ffffffffffffffffffffffffffffffffffffffff021916908373ffffffffffffffffffffffffffffffffffffffff160217905550600360009054906101000a900473ffffffffffffffffffffffffffffffffffffffff1673ffffffffffffffffffffffffffffffffffffffff166376d8b1176040518163ffffffff1660e01b815260040160206040518083038186803b158015610cf657600080fd5b505afa158015610d0a573d6000803e3d6000fd5b505050506040513d601f19601f82011682018060405250810190610d2e919061174b565b600560006101000a81548173ffffffffffffffffffffffffffffffffffffffff021916908373ffffffffffffffffffffffffffffffffffffffff16021790555050505050565b610d7c610fb5565b73ffffffffffffffffffffffffffffffffffffffff16610d9a610e48565b73ffffffffffffffffffffffffffffffffffffffff1614610df0576040517f08c379a0000000000000000000000000000000000000000000000000000000008152600401610de790611dbf565b60405180910390fd5b610dfa60006112db565b565b600460009054906101000a900473ffffffffffffffffffffffffffffffffffffffff1681565b600560009054906101000a900473ffffffffffffffffffffffffffffffffffffffff1681565b60008060029054906101000a900473ffffffffffffffffffffffffffffffffffffffff16905090565b600260009054906101000a900473ffffffffffffffffffffffffffffffffffffffff1681565b600360009054906101000a900473ffffffffffffffffffffffffffffffffffffffff1681565b610ec5610fb5565b73ffffffffffffffffffffffffffffffffffffffff16610ee3610e48565b73ffffffffffffffffffffffffffffffffffffffff1614610f39576040517f08c379a0000000000000000000000000000000000000000000000000000000008152600401610f3090611dbf565b60405180910390fd5b600073ffffffffffffffffffffffffffffffffffffffff168173ffffffffffffffffffffffffffffffffffffffff161415610fa9576040517f08c379a0000000000000000000000000000000000000000000000000000000008152600401610fa090611d7f565b60405180910390fd5b610fb2816112db565b50565b600033905090565b611040846323b872dd60e01b858585604051602401610fde93929190611c9e565b604051602081830303815290604052907bffffffffffffffffffffffffffffffffffffffffffffffffffffffff19166020820180517bffffffffffffffffffffffffffffffffffffffffffffffffffffffff83818316178352505050506113a0565b50505050565b60008114806110df575060008373ffffffffffffffffffffffffffffffffffffffff1663dd62ed3e30856040518363ffffffff1660e01b815260040161108d929190611c75565b60206040518083038186803b1580156110a557600080fd5b505afa1580156110b9573d6000803e3d6000fd5b505050506040513d601f19601f820116820180604052508101906110dd9190611829565b145b61111e576040517f08c379a000000000000000000000000000000000000000000000000000000000815260040161111590611e3f565b60405180910390fd5b61119f8363095ea7b360e01b848460405160240161113d929190611cd5565b604051602081830303815290604052907bffffffffffffffffffffffffffffffffffffffffffffffffffffffff19166020820180517bffffffffffffffffffffffffffffffffffffffffffffffffffffffff83818316178352505050506113a0565b505050565b600460009054906101000a900473ffffffffffffffffffffffffffffffffffffffff1673ffffffffffffffffffffffffffffffffffffffff16636a627842600360009054906101000a900473ffffffffffffffffffffffffffffffffffffffff166040518263ffffffff1660e01b81526004016112219190611c5a565b600060405180830381600087803b15801561123b57600080fd5b505af115801561124f573d6000803e3d6000fd5b50505050565b6112d68363a9059cbb60e01b8484604051602401611274929190611cd5565b604051602081830303815290604052907bffffffffffffffffffffffffffffffffffffffffffffffffffffffff19166020820180517bffffffffffffffffffffffffffffffffffffffffffffffffffffffff83818316178352505050506113a0565b505050565b60008060029054906101000a900473ffffffffffffffffffffffffffffffffffffffff16905081600060026101000a81548173ffffffffffffffffffffffffffffffffffffffff021916908373ffffffffffffffffffffffffffffffffffffffff1602179055508173ffffffffffffffffffffffffffffffffffffffff168173ffffffffffffffffffffffffffffffffffffffff167f8be0079c531659141344cd1fd0a4f28419497f9722a3daafe3b4186f6b6457e060405160405180910390a35050565b6000611402826040518060400160405280602081526020017f5361666545524332303a206c6f772d6c6576656c2063616c6c206661696c65648152508573ffffffffffffffffffffffffffffffffffffffff166114679092919063ffffffff16565b905060008151111561146257808060200190518101906114229190611800565b611461576040517f08c379a000000000000000000000000000000000000000000000000000000000815260040161145890611e1f565b60405180910390fd5b5b505050565b6060611476848460008561147f565b90509392505050565b6060824710156114c4576040517f08c379a00000000000000000000000000000000000000000000000000000000081526004016114bb90611d9f565b60405180910390fd5b6114cd85611593565b61150c576040517f08c379a000000000000000000000000000000000000000000000000000000000815260040161150390611dff565b60405180910390fd5b6000808673ffffffffffffffffffffffffffffffffffffffff1685876040516115359190611c43565b60006040518083038185875af1925050503d8060008114611572576040519150601f19603f3d011682016040523d82523d6000602084013e611577565b606091505b50915091506115878282866115a6565b92505050949350505050565b600080823b905060008111915050919050565b606083156115b657829050611606565b6000835111156115c95782518084602001fd5b816040517f08c379a00000000000000000000000000000000000000000000000000000000081526004016115fd9190611d5d565b60405180910390fd5b9392505050565b6040518060400160405280600290602082028036833780820191505090505090565b600061164261163d84611ecb565b611e9a565b9050808285602086028201111561165857600080fd5b60005b85811015611688578161166e88826116f8565b84526020840193506020830192505060018101905061165b565b5050509392505050565b6000813590506116a1816120c6565b92915050565b6000815190506116b6816120c6565b92915050565b600082601f8301126116cd57600080fd5b60026116da84828561162f565b91505092915050565b6000815190506116f2816120dd565b92915050565b600081359050611707816120f4565b92915050565b60008151905061171c816120f4565b92915050565b60006020828403121561173457600080fd5b600061174284828501611692565b91505092915050565b60006020828403121561175d57600080fd5b600061176b848285016116a7565b91505092915050565b6000806000806080858703121561178a57600080fd5b600061179887828801611692565b94505060206117a987828801611692565b93505060406117ba87828801611692565b92505060606117cb87828801611692565b91505092959194509250565b6000604082840312156117e957600080fd5b60006117f7848285016116bc565b91505092915050565b60006020828403121561181257600080fd5b6000611820848285016116e3565b91505092915050565b60006020828403121561183b57600080fd5b60006118498482850161170d565b91505092915050565b600061185e8383611c25565b60208301905092915050565b61187381611f50565b82525050565b61188281611efb565b61188c8184611f29565b925061189782611ef1565b8060005b838110156118c85781516118af8782611852565b96506118ba83611f1c565b92505060018101905061189b565b505050505050565b60006118db82611f06565b6118e58185611f34565b93506118f5818560208601611fdb565b80840191505092915050565b61190a81611fa5565b82525050565b61191981611fb7565b82525050565b61192881611fc9565b82525050565b600061193982611f11565b6119438185611f3f565b9350611953818560208601611fdb565b61195c816120b5565b840191505092915050565b6000611974602683611f3f565b91507f4f776e61626c653a206e6577206f776e657220697320746865207a65726f206160008301527f64647265737300000000000000000000000000000000000000000000000000006020830152604082019050919050565b60006119da602683611f3f565b91507f416464726573733a20696e73756666696369656e742062616c616e636520666f60008301527f722063616c6c00000000000000000000000000000000000000000000000000006020830152604082019050919050565b6000611a40602083611f3f565b91507f4f776e61626c653a2063616c6c6572206973206e6f7420746865206f776e65726000830152602082019050919050565b6000611a80602583611f3f565b91507f496e636f727265637420537461626c655377617020636f6e747261637420616460008301527f64726573730000000000000000000000000000000000000000000000000000006020830152604082019050919050565b6000611ae6601d83611f3f565b91507f416464726573733a2063616c6c20746f206e6f6e2d636f6e74726163740000006000830152602082019050919050565b6000611b26602a83611f3f565b91507f5361666545524332303a204552433230206f7065726174696f6e20646964206e60008301527f6f742073756363656564000000000000000000000000000000000000000000006020830152604082019050919050565b6000611b8c603683611f3f565b91507f5361666545524332303a20617070726f76652066726f6d206e6f6e2d7a65726f60008301527f20746f206e6f6e2d7a65726f20616c6c6f77616e6365000000000000000000006020830152604082019050919050565b6000611bf2601e83611f3f565b91507f43757276654669204c5020746f6b656e7320646f206e6f74206d6174636800006000830152602082019050919050565b611c2e81611f9b565b82525050565b611c3d81611f9b565b82525050565b6000611c4f82846118d0565b915081905092915050565b6000602082019050611c6f600083018461186a565b92915050565b6000604082019050611c8a600083018561186a565b611c97602083018461186a565b9392505050565b6000606082019050611cb3600083018661186a565b611cc0602083018561186a565b611ccd6040830184611c34565b949350505050565b6000604082019050611cea600083018561186a565b611cf76020830184611c34565b9392505050565b6000606082019050611d136000830185611879565b611d206040830184611910565b9392505050565b6000602082019050611d3c6000830184611901565b92915050565b6000602082019050611d57600083018461191f565b92915050565b60006020820190508181036000830152611d77818461192e565b905092915050565b60006020820190508181036000830152611d9881611967565b9050919050565b60006020820190508181036000830152611db8816119cd565b9050919050565b60006020820190508181036000830152611dd881611a33565b9050919050565b60006020820190508181036000830152611df881611a73565b9050919050565b60006020820190508181036000830152611e1881611ad9565b9050919050565b60006020820190508181036000830152611e3881611b19565b9050919050565b60006020820190508181036000830152611e5881611b7f565b9050919050565b60006020820190508181036000830152611e7881611be5565b9050919050565b6000602082019050611e946000830184611c34565b92915050565b6000604051905081810181811067ffffffffffffffff82111715611ec157611ec0612086565b5b8060405250919050565b600067ffffffffffffffff821115611ee657611ee5612086565b5b602082029050919050565b6000819050919050565b600060029050919050565b600081519050919050565b600081519050919050565b6000602082019050919050565b600081905092915050565b600081905092915050565b600082825260208201905092915050565b6000611f5b82611f7b565b9050919050565b60008115159050919050565b600081600f0b9050919050565b600073ffffffffffffffffffffffffffffffffffffffff82169050919050565b6000819050919050565b6000611fb082611f6e565b9050919050565b6000611fc282611f9b565b9050919050565b6000611fd482611f6e565b9050919050565b60005b83811015611ff9578082015181840152602081019050611fde565b83811115612008576000848401525b50505050565b600061201982611f9b565b91507fffffffffffffffffffffffffffffffffffffffffffffffffffffffffffffffff82141561204c5761204b612057565b5b600182019050919050565b7f4e487b7100000000000000000000000000000000000000000000000000000000600052601160045260246000fd5b7f4e487b7100000000000000000000000000000000000000000000000000000000600052604160045260246000fd5b6000601f19601f8301169050919050565b6120cf81611f50565b81146120da57600080fd5b50565b6120e681611f62565b81146120f157600080fd5b50565b6120fd81611f9b565b811461210857600080fd5b5056fea2646970667358221220da2ef29fdb6980f2b0fa066012f584502a1061dd38eeeb3e3c2cdc42df103b7164736f6c63430008000033",
  "immutableReferences": {},
  "source": "// SPDX-License-Identifier: MIT\r\npragma solidity >=0.4.22 <0.9.0;\r\n\r\nimport '@openzeppelin/contracts/proxy/utils/Initializable.sol';\r\nimport '@openzeppelin/contracts/utils/Context.sol';\r\nimport '@openzeppelin/contracts/access/Ownable.sol';\r\n\r\nimport '@openzeppelin/contracts/token/ERC20/IERC20.sol';\r\nimport '@openzeppelin/contracts/token/ERC20/ERC20.sol';\r\nimport '@openzeppelin/contracts/token/ERC20/utils/SafeERC20.sol';\r\n\r\nimport './curvefi/ICurveFi_StableSwapRen.sol';\r\nimport './curvefi/ICurveFi_Gauge.sol';\r\nimport './curvefi/ICurveFi_Minter.sol';\r\nimport './curvefi/IRenERC20.sol';\r\n\r\ncontract RenBTCtoCurve is Initializable, Ownable{\r\n    using SafeERC20 for IERC20;\r\n\r\n    address public curveFi_Swap;\r\n    address public curveFi_LPToken;\r\n    address public curveFi_LPGauge;\r\n    address public curveFi_CRVMinter;\r\n    address public curveFi_CRVToken; \r\n\r\n    /**\r\n     * @notice Set CurveFi contracts addresses\r\n     * @param _swapContract CurveFi Deposit contract for ren-pool\r\n     * @param _gaugeContract CurveFi Gauge contract for ren-pool\r\n     * @param _minterContract CurveFi CRV minter\r\n     * @param _lpContract CurveFi LP token contract = CurveTokenV1\r\n     */\r\n        function setup( address _swapContract, \r\n                        address _gaugeContract, \r\n                        address _minterContract, \r\n                        address _lpContract ) \r\n                        external onlyOwner {\r\n\r\n        require(_swapContract != address(0), \"Incorrect StableSwap contract address\");\r\n\r\n        curveFi_Swap = _swapContract;\r\n        curveFi_LPGauge = _gaugeContract;\r\n        curveFi_LPToken = _lpContract;\r\n\r\n        require(ICurveFi_Gauge(curveFi_LPGauge).lp_token() == address(curveFi_LPToken), \"CurveFi LP tokens do not match\");        \r\n\r\n        curveFi_CRVMinter = _minterContract;\r\n        curveFi_CRVToken = ICurveFi_Gauge(curveFi_LPGauge).crv_token();\r\n    }\r\n\r\n     /**\r\n     * @notice Deposits 2 stablecoins (registered in Curve.Fi Y pool)\r\n     * @param _amounts Array of amounts for CurveFI stablecoins in pool (denormalized to token decimals)\r\n     */\r\n    function multiStepDeposit(uint[2] memory _amounts) public {\r\n        address stablecoinsRenBTC;\r\n        address stablecoinsWBTC;\r\n        address[2] memory stablecoins;\r\n\r\n        stablecoinsRenBTC = ICurveFi_StableSwapRen(curveFi_Swap).coins(0);\r\n        stablecoinsWBTC = ICurveFi_StableSwapRen(curveFi_Swap).coins(1);\r\n        stablecoins = [stablecoinsRenBTC , stablecoinsWBTC];\r\n        \r\n        for (uint256 i = 0; i < stablecoins.length; i++) {\r\n            IERC20(stablecoins[i]).safeTransferFrom(_msgSender(), address(this), _amounts[i]);\r\n            IERC20(stablecoins[i]).safeApprove(curveFi_Swap, _amounts[i]);\r\n        }\r\n\r\n        //Step 1 - deposit stablecoins and get Curve.Fi LP tokens\r\n        ICurveFi_StableSwapRen(curveFi_Swap).add_liquidity(_amounts, 0); \r\n\r\n        //Step 2 - stake Curve LP tokens into Gauge and get CRV rewards\r\n        uint256 curveLPBalance = IERC20(curveFi_LPToken).balanceOf(address(this));\r\n\r\n        IERC20(curveFi_LPToken).safeApprove(curveFi_LPGauge, curveLPBalance);\r\n        ICurveFi_Gauge(curveFi_LPGauge).deposit(curveLPBalance);\r\n\r\n        //Step 3 - get all the rewards (and make whatever you need with them)\r\n        crvTokenClaim();\r\n        uint256 crvAmount = IERC20(curveFi_CRVToken).balanceOf(address(this));\r\n        IERC20(curveFi_CRVToken).safeTransfer(_msgSender(), crvAmount);\r\n\r\n    }\r\n\r\n     /**\r\n     * @notice Claim CRV reward\r\n     */\r\n    function crvTokenClaim() internal {\r\n        ICurveFi_Minter(curveFi_CRVMinter).mint(curveFi_LPGauge);\r\n    }\r\n\r\n    /**\r\n     * @notice Get amount of CurveFi LP tokens staked in the Gauge\r\n     */\r\n    function curveLPTokenStaked() public view returns(uint256) {\r\n        return ICurveFi_Gauge(curveFi_LPGauge).balanceOf(address(this));\r\n    }\r\n\r\n}",
  "sourcePath": "D:/BlockChain/Ethereum-201/Ren-project/contracts/RenBTCtoCurve.sol",
  "compiler": {
    "name": "solc",
    "version": "0.8.0+commit.c7dfd78e.Emscripten.clang"
  },
  "schemaVersion": "3.4.1",
  "updatedAt": "2021-10-28T06:52:01.765Z",
  "networkType": "ethereum",
  "devdoc": {
    "kind": "dev",
    "methods": {
      "multiStepDeposit(uint256[2])": {
        "params": {
          "_amounts": "Array of amounts for CurveFI stablecoins in pool (denormalized to token decimals)"
        }
      },
      "owner()": {
        "details": "Returns the address of the current owner."
      },
      "renounceOwnership()": {
        "details": "Leaves the contract without owner. It will not be possible to call `onlyOwner` functions anymore. Can only be called by the current owner. NOTE: Renouncing ownership will leave the contract without an owner, thereby removing any functionality that is only available to the owner."
      },
      "setup(address,address,address,address)": {
        "params": {
          "_gaugeContract": "CurveFi Gauge contract for ren-pool",
          "_lpContract": "CurveFi LP token contract = CurveTokenV1",
          "_minterContract": "CurveFi CRV minter",
          "_swapContract": "CurveFi Deposit contract for ren-pool"
        }
      },
      "transferOwnership(address)": {
        "details": "Transfers ownership of the contract to a new account (`newOwner`). Can only be called by the current owner."
      }
    },
    "version": 1
  },
  "userdoc": {
    "kind": "user",
    "methods": {
      "curveLPTokenStaked()": {
        "notice": "Get amount of CurveFi LP tokens staked in the Gauge"
      },
      "multiStepDeposit(uint256[2])": {
        "notice": "Deposits 2 stablecoins (registered in Curve.Fi Y pool)"
      },
      "setup(address,address,address,address)": {
        "notice": "Set CurveFi contracts addresses"
      }
    },
    "version": 1
  }
}