{
  "contractName": "Stub_CurveFi_Minter",
  "abi": [
    {
      "inputs": [],
      "name": "__token",
      "outputs": [
        {
          "internalType": "address",
          "name": "",
          "type": "address"
        }
      ],
      "stateMutability": "view",
      "type": "function",
      "constant": true
    },
    {
      "inputs": [
        {
          "internalType": "address",
          "name": "_token",
          "type": "address"
        }
      ],
      "name": "initialize",
      "outputs": [],
      "stateMutability": "nonpayable",
      "type": "function"
    },
    {
      "inputs": [
        {
          "internalType": "address",
          "name": "gauge_addr",
          "type": "address"
        }
      ],
      "name": "mint",
      "outputs": [],
      "stateMutability": "nonpayable",
      "type": "function"
    },
    {
      "inputs": [
        {
          "internalType": "address",
          "name": "gauge_addr",
          "type": "address"
        },
        {
          "internalType": "address",
          "name": "_for",
          "type": "address"
        }
      ],
      "name": "mint_for",
      "outputs": [],
      "stateMutability": "nonpayable",
      "type": "function"
    },
    {
      "inputs": [
        {
          "internalType": "address",
          "name": "minting_user",
          "type": "address"
        }
      ],
      "name": "toggle_approve_mint",
      "outputs": [],
      "stateMutability": "nonpayable",
      "type": "function"
    },
    {
      "inputs": [],
      "name": "token",
      "outputs": [
        {
          "internalType": "address",
          "name": "",
          "type": "address"
        }
      ],
      "stateMutability": "view",
      "type": "function",
      "constant": true
    },
    {
      "inputs": [
        {
          "internalType": "address",
          "name": "_for",
          "type": "address"
        },
        {
          "internalType": "address",
          "name": "gauge_addr",
          "type": "address"
        }
      ],
      "name": "minted",
      "outputs": [
        {
          "internalType": "uint256",
          "name": "",
          "type": "uint256"
        }
      ],
      "stateMutability": "view",
      "type": "function",
      "constant": true
    }
  ],
  "bytecode": "0x608060405234801561001057600080fd5b506109c6806100206000396000f3fe608060405234801561001057600080fd5b506004361061007d5760003560e01c8063ae8d2a041161005b578063ae8d2a04146100ea578063c4d66de814610108578063dd289d6014610124578063fc0c546a146101405761007d565b806327f18ae3146100825780636a6278421461009e5780638b752bb0146100ba575b600080fd5b61009c60048036038101906100979190610795565b61015e565b005b6100b860048036038101906100b3919061076c565b610203565b005b6100d460048036038101906100cf9190610795565b610217565b6040516100e19190610885565b60405180910390f35b6100f261029e565b6040516100ff9190610841565b60405180910390f35b610122600480360381019061011d919061076c565b6102c4565b005b61013e6004803603810190610139919061076c565b610308565b005b610148610437565b6040516101559190610841565b60405180910390f35b6002600061016a610461565b73ffffffffffffffffffffffffffffffffffffffff1673ffffffffffffffffffffffffffffffffffffffff16815260200190815260200160002060008273ffffffffffffffffffffffffffffffffffffffff1673ffffffffffffffffffffffffffffffffffffffff16815260200190815260200160002060009054906101000a900460ff16156101ff576101fe8282610469565b5b5050565b6102148161020f610461565b610469565b50565b6000600160008473ffffffffffffffffffffffffffffffffffffffff1673ffffffffffffffffffffffffffffffffffffffff16815260200190815260200160002060008373ffffffffffffffffffffffffffffffffffffffff1673ffffffffffffffffffffffffffffffffffffffff16815260200190815260200160002054905092915050565b600360009054906101000a900473ffffffffffffffffffffffffffffffffffffffff1681565b80600360006101000a81548173ffffffffffffffffffffffffffffffffffffffff021916908373ffffffffffffffffffffffffffffffffffffffff16021790555050565b600260008273ffffffffffffffffffffffffffffffffffffffff1673ffffffffffffffffffffffffffffffffffffffff1681526020019081526020016000206000610351610461565b73ffffffffffffffffffffffffffffffffffffffff1673ffffffffffffffffffffffffffffffffffffffff16815260200190815260200160002060009054906101000a900460ff1615600260008373ffffffffffffffffffffffffffffffffffffffff1673ffffffffffffffffffffffffffffffffffffffff16815260200190815260200160002060006103e3610461565b73ffffffffffffffffffffffffffffffffffffffff1673ffffffffffffffffffffffffffffffffffffffff16815260200190815260200160002060006101000a81548160ff02191690831515021790555050565b6000600360009054906101000a900473ffffffffffffffffffffffffffffffffffffffff16905090565b600033905090565b8173ffffffffffffffffffffffffffffffffffffffff16634b820093826040518263ffffffff1660e01b81526004016104a29190610841565b602060405180830381600087803b1580156104bc57600080fd5b505af11580156104d0573d6000803e3d6000fd5b505050506040513d601f19601f820116820180604052508101906104f491906107d1565b5060008273ffffffffffffffffffffffffffffffffffffffff166309400707836040518263ffffffff1660e01b81526004016105309190610841565b60206040518083038186803b15801561054857600080fd5b505afa15801561055c573d6000803e3d6000fd5b505050506040513d601f19601f8201168201806040525081019061058091906107fa565b90506000600160008473ffffffffffffffffffffffffffffffffffffffff1673ffffffffffffffffffffffffffffffffffffffff16815260200190815260200160002060008573ffffffffffffffffffffffffffffffffffffffff1673ffffffffffffffffffffffffffffffffffffffff168152602001908152602001600020548261060c91906108a0565b90506000811461072757600360009054906101000a900473ffffffffffffffffffffffffffffffffffffffff1673ffffffffffffffffffffffffffffffffffffffff166340c10f1984836040518363ffffffff1660e01b815260040161067392919061085c565b600060405180830381600087803b15801561068d57600080fd5b505af11580156106a1573d6000803e3d6000fd5b5050505081600160008573ffffffffffffffffffffffffffffffffffffffff1673ffffffffffffffffffffffffffffffffffffffff16815260200190815260200160002060008673ffffffffffffffffffffffffffffffffffffffff1673ffffffffffffffffffffffffffffffffffffffff168152602001908152602001600020819055505b50505050565b60008135905061073c8161094b565b92915050565b60008151905061075181610962565b92915050565b60008151905061076681610979565b92915050565b60006020828403121561077e57600080fd5b600061078c8482850161072d565b91505092915050565b600080604083850312156107a857600080fd5b60006107b68582860161072d565b92505060206107c78582860161072d565b9150509250929050565b6000602082840312156107e357600080fd5b60006107f184828501610742565b91505092915050565b60006020828403121561080c57600080fd5b600061081a84828501610757565b91505092915050565b61082c816108d4565b82525050565b61083b81610912565b82525050565b60006020820190506108566000830184610823565b92915050565b60006040820190506108716000830185610823565b61087e6020830184610832565b9392505050565b600060208201905061089a6000830184610832565b92915050565b60006108ab82610912565b91506108b683610912565b9250828210156108c9576108c861091c565b5b828203905092915050565b60006108df826108f2565b9050919050565b60008115159050919050565b600073ffffffffffffffffffffffffffffffffffffffff82169050919050565b6000819050919050565b7f4e487b7100000000000000000000000000000000000000000000000000000000600052601160045260246000fd5b610954816108d4565b811461095f57600080fd5b50565b61096b816108e6565b811461097657600080fd5b50565b61098281610912565b811461098d57600080fd5b5056fea2646970667358221220c96a27706ffdd969b9ab9caa51a59da265f26248c2bdd6715185db44a38beea264736f6c63430008000033",
  "immutableReferences": {},
  "source": "// SPDX-License-Identifier: MIT\r\npragma solidity >=0.4.22 <0.9.0;\r\n\r\nimport '@openzeppelin/contracts/proxy/utils/Initializable.sol';\r\nimport '@openzeppelin/contracts/utils/Context.sol';\r\nimport './Stub_CRVToken.sol';\r\nimport \"../curvefi/ICurveFi_Minter.sol\";\r\nimport \"../curvefi/ICurveFi_Gauge.sol\";\r\n\r\ncontract Stub_CurveFi_Minter is ICurveFi_Minter, Initializable, Context{\r\n    // user -> gauge -> value\r\n    mapping(address => mapping(address => uint)) __minted;\r\n    // minter -> user -> can mint?\r\n    mapping(address => mapping(address => bool)) allowed_to_mint_for;\r\n    //CRV token\r\n    address public __token;\r\n\r\n    function initialize(address _token)public{\r\n        __token = _token;\r\n    }\r\n\r\n    function mint(address gauge_addr) public override{\r\n        _mint_for(gauge_addr, _msgSender());\r\n    }\r\n\r\n    function mint_for(address gauge_addr, address _for) public override{\r\n        if (allowed_to_mint_for[_msgSender()][_for]){\r\n           _mint_for(gauge_addr, _for);\r\n        }\r\n    }\r\n\r\n    function toggle_approve_mint(address minting_user) public override{\r\n      allowed_to_mint_for[minting_user][_msgSender()] = !allowed_to_mint_for[minting_user][_msgSender()];\r\n    }\r\n\r\n    function token() public view override returns(address) {\r\n        return __token;\r\n    }\r\n\r\n    function minted(address _for, address gauge_addr) public view override returns(uint256) {\r\n        return __minted[_for][gauge_addr];\r\n    }\r\n\r\n    function _mint_for(address gauge_addr, address _for)internal {\r\n        ICurveFi_Gauge(gauge_addr).user_checkpoint(_for);\r\n        uint total_mint = ICurveFi_Gauge(gauge_addr).integrate_fraction(_for);\r\n        uint to_mint = total_mint - __minted[_for][gauge_addr];\r\n        \r\n        if(to_mint != 0){\r\n            Stub_CRVToken(__token).mint(_for, to_mint);\r\n            __minted[_for][gauge_addr] = total_mint;\r\n        }\r\n    }\r\n    \r\n \r\n    \r\n\r\n    \r\n}",
  "sourcePath": "D:/BlockChain/Ethereum-201/Ren-project/contracts/TestContracts/Stub_CurveFi_Minter .sol",
  "compiler": {
    "name": "solc",
    "version": "0.8.0+commit.c7dfd78e.Emscripten.clang"
  },
  "schemaVersion": "3.4.1",
  "updatedAt": "2021-10-28T06:51:59.225Z",
  "networkType": "ethereum",
  "devdoc": {
    "kind": "dev",
    "methods": {},
    "version": 1
  },
  "userdoc": {
    "kind": "user",
    "methods": {},
    "version": 1
  }
}