{
  "contractName": "Stub_CurveFi_Gauge",
  "abi": [
    {
      "inputs": [],
      "name": "INITIAL_RATE",
      "outputs": [
        {
          "internalType": "uint256",
          "name": "",
          "type": "uint256"
        }
      ],
      "stateMutability": "view",
      "type": "function",
      "constant": true
    },
    {
      "inputs": [],
      "name": "TOKENLESS_PRODUCTION",
      "outputs": [
        {
          "internalType": "uint256",
          "name": "",
          "type": "uint256"
        }
      ],
      "stateMutability": "view",
      "type": "function",
      "constant": true
    },
    {
      "inputs": [],
      "name": "YEAR",
      "outputs": [
        {
          "internalType": "uint256",
          "name": "",
          "type": "uint256"
        }
      ],
      "stateMutability": "view",
      "type": "function",
      "constant": true
    },
    {
      "inputs": [],
      "name": "__crv_token",
      "outputs": [
        {
          "internalType": "address",
          "name": "",
          "type": "address"
        }
      ],
      "stateMutability": "view",
      "type": "function",
      "constant": true
    },
    {
      "inputs": [
        {
          "internalType": "address",
          "name": "",
          "type": "address"
        }
      ],
      "name": "__integrate_fraction",
      "outputs": [
        {
          "internalType": "uint256",
          "name": "",
          "type": "uint256"
        }
      ],
      "stateMutability": "view",
      "type": "function",
      "constant": true
    },
    {
      "inputs": [],
      "name": "__lp_token",
      "outputs": [
        {
          "internalType": "address",
          "name": "",
          "type": "address"
        }
      ],
      "stateMutability": "view",
      "type": "function",
      "constant": true
    },
    {
      "inputs": [],
      "name": "__minter",
      "outputs": [
        {
          "internalType": "address",
          "name": "",
          "type": "address"
        }
      ],
      "stateMutability": "view",
      "type": "function",
      "constant": true
    },
    {
      "inputs": [
        {
          "internalType": "address",
          "name": "",
          "type": "address"
        }
      ],
      "name": "balanceOf",
      "outputs": [
        {
          "internalType": "uint256",
          "name": "",
          "type": "uint256"
        }
      ],
      "stateMutability": "view",
      "type": "function",
      "constant": true
    },
    {
      "inputs": [
        {
          "internalType": "address",
          "name": "",
          "type": "address"
        }
      ],
      "name": "integrate_checkpoint_of",
      "outputs": [
        {
          "internalType": "uint256",
          "name": "",
          "type": "uint256"
        }
      ],
      "stateMutability": "view",
      "type": "function",
      "constant": true
    },
    {
      "inputs": [
        {
          "internalType": "uint256",
          "name": "",
          "type": "uint256"
        }
      ],
      "name": "integrate_inv_supply",
      "outputs": [
        {
          "internalType": "uint256",
          "name": "",
          "type": "uint256"
        }
      ],
      "stateMutability": "view",
      "type": "function",
      "constant": true
    },
    {
      "inputs": [
        {
          "internalType": "address",
          "name": "",
          "type": "address"
        }
      ],
      "name": "integrate_inv_supply_of",
      "outputs": [
        {
          "internalType": "uint256",
          "name": "",
          "type": "uint256"
        }
      ],
      "stateMutability": "view",
      "type": "function",
      "constant": true
    },
    {
      "inputs": [],
      "name": "totalSupply",
      "outputs": [
        {
          "internalType": "uint256",
          "name": "",
          "type": "uint256"
        }
      ],
      "stateMutability": "view",
      "type": "function",
      "constant": true
    },
    {
      "inputs": [
        {
          "internalType": "address",
          "name": "",
          "type": "address"
        }
      ],
      "name": "working_balances",
      "outputs": [
        {
          "internalType": "uint256",
          "name": "",
          "type": "uint256"
        }
      ],
      "stateMutability": "view",
      "type": "function",
      "constant": true
    },
    {
      "inputs": [],
      "name": "working_supply",
      "outputs": [
        {
          "internalType": "uint256",
          "name": "",
          "type": "uint256"
        }
      ],
      "stateMutability": "view",
      "type": "function",
      "constant": true
    },
    {
      "inputs": [
        {
          "internalType": "address",
          "name": "lp_addr",
          "type": "address"
        },
        {
          "internalType": "address",
          "name": "_minter",
          "type": "address"
        }
      ],
      "name": "initialize",
      "outputs": [],
      "stateMutability": "nonpayable",
      "type": "function"
    },
    {
      "inputs": [
        {
          "internalType": "address",
          "name": "addr",
          "type": "address"
        }
      ],
      "name": "user_checkpoint",
      "outputs": [
        {
          "internalType": "bool",
          "name": "",
          "type": "bool"
        }
      ],
      "stateMutability": "nonpayable",
      "type": "function"
    },
    {
      "inputs": [
        {
          "internalType": "address",
          "name": "addr",
          "type": "address"
        },
        {
          "internalType": "uint256",
          "name": "l",
          "type": "uint256"
        },
        {
          "internalType": "uint256",
          "name": "L",
          "type": "uint256"
        }
      ],
      "name": "_update_liquidity_limit",
      "outputs": [],
      "stateMutability": "nonpayable",
      "type": "function"
    },
    {
      "inputs": [
        {
          "internalType": "uint256",
          "name": "_value",
          "type": "uint256"
        }
      ],
      "name": "deposit",
      "outputs": [],
      "stateMutability": "nonpayable",
      "type": "function"
    },
    {
      "inputs": [
        {
          "internalType": "uint256",
          "name": "_value",
          "type": "uint256"
        }
      ],
      "name": "withdraw",
      "outputs": [],
      "stateMutability": "nonpayable",
      "type": "function"
    },
    {
      "inputs": [
        {
          "internalType": "address",
          "name": "addr",
          "type": "address"
        }
      ],
      "name": "claimable_tokens",
      "outputs": [
        {
          "internalType": "uint256",
          "name": "",
          "type": "uint256"
        }
      ],
      "stateMutability": "nonpayable",
      "type": "function"
    },
    {
      "inputs": [],
      "name": "minter",
      "outputs": [
        {
          "internalType": "address",
          "name": "",
          "type": "address"
        }
      ],
      "stateMutability": "view",
      "type": "function",
      "constant": true
    },
    {
      "inputs": [],
      "name": "crv_token",
      "outputs": [
        {
          "internalType": "address",
          "name": "",
          "type": "address"
        }
      ],
      "stateMutability": "view",
      "type": "function",
      "constant": true
    },
    {
      "inputs": [],
      "name": "lp_token",
      "outputs": [
        {
          "internalType": "address",
          "name": "",
          "type": "address"
        }
      ],
      "stateMutability": "view",
      "type": "function",
      "constant": true
    },
    {
      "inputs": [
        {
          "internalType": "address",
          "name": "_for",
          "type": "address"
        }
      ],
      "name": "integrate_fraction",
      "outputs": [
        {
          "internalType": "uint256",
          "name": "",
          "type": "uint256"
        }
      ],
      "stateMutability": "view",
      "type": "function",
      "constant": true
    }
  ],
  "bytecode": "0x608060405234801561001057600080fd5b50611738806100206000396000f3fe608060405234801561001057600080fd5b50600436106101585760003560e01c806370a08231116100c3578063a1b927911161007c578063a1b92791146103f3578063b6b55f2514610411578063bd4aa7471461042d578063de263bfa1461044b578063ed13a8e71461047b578063fec8ee0c1461049757610158565b806370a082311461031b57806376d8b1171461034b57806382c63066146103695780638391454014610387578063863086f4146103a55780639bd324f2146103c357610158565b80633313458311610115578063331345831461023357806333de745314610263578063485cc955146102815780634b8200931461029d5780634dbac733146102cd5780636628fce4146102eb57610158565b8063075461721461015d578063094007071461017b57806313ecb1ca146101ab57806317e28089146101db57806318160ddd146101f95780632e1a7d4d14610217575b600080fd5b6101656104c7565b6040516101729190611395565b60405180910390f35b610195600480360381019061019091906111d0565b6104f1565b6040516101a29190611474565b60405180910390f35b6101c560048036038101906101c091906111d0565b61053a565b6040516101d29190611474565b60405180910390f35b6101e3610552565b6040516101f09190611474565b60405180910390f35b610201610558565b60405161020e9190611474565b60405180910390f35b610231600480360381019061022c91906112d6565b61055e565b005b61024d600480360381019061024891906111d0565b6106f8565b60405161025a9190611474565b60405180910390f35b61026b610801565b6040516102789190611395565b60405180910390f35b61029b60048036038101906102969190611222565b610827565b005b6102b760048036038101906102b291906111d0565b610972565b6040516102c49190611439565b60405180910390f35b6102d5610a98565b6040516102e29190611474565b60405180910390f35b610305600480360381019061030091906111d0565b610ab6565b6040516103129190611474565b60405180910390f35b610335600480360381019061033091906111d0565b610ace565b6040516103429190611474565b60405180910390f35b610353610ae6565b6040516103609190611395565b60405180910390f35b610371610b10565b60405161037e9190611395565b60405180910390f35b61038f610b3a565b60405161039c9190611474565b60405180910390f35b6103ad610b42565b6040516103ba9190611395565b60405180910390f35b6103dd60048036038101906103d891906111d0565b610b68565b6040516103ea9190611474565b60405180910390f35b6103fb610b80565b6040516104089190611395565b60405180910390f35b61042b600480360381019061042691906112d6565b610ba6565b005b610435610d4b565b6040516104429190611474565b60405180910390f35b610465600480360381019061046091906111d0565b610d50565b6040516104729190611474565b60405180910390f35b6104956004803603810190610490919061125e565b610d68565b005b6104b160048036038101906104ac91906112d6565b610e42565b6040516104be9190611474565b60405180910390f35b6000600260009054906101000a900473ffffffffffffffffffffffffffffffffffffffff16905090565b6000600760008373ffffffffffffffffffffffffffffffffffffffff1673ffffffffffffffffffffffffffffffffffffffff168152602001908152602001600020549050919050565b600b6020528060005260406000206000915090505481565b600c5481565b60055481565b61056e610569610e5a565b610e62565b806006600061057b610e5a565b73ffffffffffffffffffffffffffffffffffffffff1673ffffffffffffffffffffffffffffffffffffffff16815260200190815260200160002060008282546105c491906115c7565b9250508190555080600560008282546105dd91906115c7565b9250508190555061063e6105ef610e5a565b600660006105fb610e5a565b73ffffffffffffffffffffffffffffffffffffffff1673ffffffffffffffffffffffffffffffffffffffff16815260200190815260200160002054600554610d68565b600460009054906101000a900473ffffffffffffffffffffffffffffffffffffffff1673ffffffffffffffffffffffffffffffffffffffff1663a9059cbb610684610e5a565b836040518363ffffffff1660e01b81526004016106a2929190611410565b602060405180830381600087803b1580156106bc57600080fd5b505af11580156106d0573d6000803e3d6000fd5b505050506040513d601f19601f820116820180604052508101906106f491906112ad565b5050565b600061070382610e62565b600260009054906101000a900473ffffffffffffffffffffffffffffffffffffffff1673ffffffffffffffffffffffffffffffffffffffff16638b752bb083306040518363ffffffff1660e01b81526004016107609291906113b0565b60206040518083038186803b15801561077857600080fd5b505afa15801561078c573d6000803e3d6000fd5b505050506040513d601f19601f820116820180604052508101906107b091906112ff565b600760008473ffffffffffffffffffffffffffffffffffffffff1673ffffffffffffffffffffffffffffffffffffffff168152602001908152602001600020546107fa91906115c7565b9050919050565b600260009054906101000a900473ffffffffffffffffffffffffffffffffffffffff1681565b80600260006101000a81548173ffffffffffffffffffffffffffffffffffffffff021916908373ffffffffffffffffffffffffffffffffffffffff16021790555081600460006101000a81548173ffffffffffffffffffffffffffffffffffffffff021916908373ffffffffffffffffffffffffffffffffffffffff1602179055508073ffffffffffffffffffffffffffffffffffffffff1663fc0c546a6040518163ffffffff1660e01b815260040160206040518083038186803b1580156108ef57600080fd5b505afa158015610903573d6000803e3d6000fd5b505050506040513d601f19601f8201168201806040525081019061092791906111f9565b600360006101000a81548173ffffffffffffffffffffffffffffffffffffffff021916908373ffffffffffffffffffffffffffffffffffffffff160217905550426001819055505050565b60008173ffffffffffffffffffffffffffffffffffffffff163373ffffffffffffffffffffffffffffffffffffffff1614806109fb5750600260009054906101000a900473ffffffffffffffffffffffffffffffffffffffff1673ffffffffffffffffffffffffffffffffffffffff163373ffffffffffffffffffffffffffffffffffffffff16145b610a3a576040517f08c379a0000000000000000000000000000000000000000000000000000000008152600401610a3190611454565b60405180910390fd5b610a4382610e62565b610a8f82600660008573ffffffffffffffffffffffffffffffffffffffff1673ffffffffffffffffffffffffffffffffffffffff16815260200190815260200160002054600554610d68565b60019050919050565b6301e133806ae3526657d187e01cec0000610ab3919061153c565b81565b60076020528060005260406000206000915090505481565b60066020528060005260406000206000915090505481565b6000600360009054906101000a900473ffffffffffffffffffffffffffffffffffffffff16905090565b6000600460009054906101000a900473ffffffffffffffffffffffffffffffffffffffff16905090565b6301e1338081565b600360009054906101000a900473ffffffffffffffffffffffffffffffffffffffff1681565b600a6020528060005260406000206000915090505481565b600460009054906101000a900473ffffffffffffffffffffffffffffffffffffffff1681565b610bb6610bb1610e5a565b610e62565b60008114610d48578060066000610bcb610e5a565b73ffffffffffffffffffffffffffffffffffffffff1673ffffffffffffffffffffffffffffffffffffffff1681526020019081526020016000206000828254610c1491906114e6565b925050819055508060056000828254610c2d91906114e6565b92505081905550610c8e610c3f610e5a565b60066000610c4b610e5a565b73ffffffffffffffffffffffffffffffffffffffff1673ffffffffffffffffffffffffffffffffffffffff16815260200190815260200160002054600554610d68565b600460009054906101000a900473ffffffffffffffffffffffffffffffffffffffff1673ffffffffffffffffffffffffffffffffffffffff166323b872dd610cd4610e5a565b30846040518463ffffffff1660e01b8152600401610cf4939291906113d9565b602060405180830381600087803b158015610d0e57600080fd5b505af1158015610d22573d6000803e3d6000fd5b505050506040513d601f19601f82011682018060405250810190610d4691906112ad565b505b50565b602881565b60096020528060005260406000206000915090505481565b60006064602884610d79919061156d565b610d83919061153c565b90506000600b60008673ffffffffffffffffffffffffffffffffffffffff1673ffffffffffffffffffffffffffffffffffffffff16815260200190815260200160002054905081600b60008773ffffffffffffffffffffffffffffffffffffffff1673ffffffffffffffffffffffffffffffffffffffff168152602001908152602001600020819055508082600c54610e1c91906114e6565b610e2691906115c7565b600c81905550600183610e3991906114e6565b92505050505050565b60086020528060005260406000206000915090505481565b600033905090565b6000600860008060029054906101000a90046fffffffffffffffffffffffffffffffff166fffffffffffffffffffffffffffffffff1681526020019081526020016000205490506000600b60008473ffffffffffffffffffffffffffffffffffffffff1673ffffffffffffffffffffffffffffffffffffffff1681526020019081526020016000205490506000600c549050600154421115610f5a57600060015442610f0e91906115c7565b90506000821115610f585781816301e133806ae3526657d187e01cec0000610f36919061153c565b610f40919061156d565b610f4a919061153c565b84610f5591906114e6565b93505b505b600283610f6791906114e6565b92506001600060028282829054906101000a90046fffffffffffffffffffffffffffffffff16610f9791906114a0565b92506101000a8154816fffffffffffffffffffffffffffffffff02191690836fffffffffffffffffffffffffffffffff1602179055504260018190555082600860008060029054906101000a90046fffffffffffffffffffffffffffffffff166fffffffffffffffffffffffffffffffff16815260200190815260200160002081905550670de0b6b3a7640000600960008673ffffffffffffffffffffffffffffffffffffffff1673ffffffffffffffffffffffffffffffffffffffff168152602001908152602001600020548461106f91906115c7565b8361107a919061156d565b611084919061153c565b600760008673ffffffffffffffffffffffffffffffffffffffff1673ffffffffffffffffffffffffffffffffffffffff16815260200190815260200160002060008282546110d291906114e6565b9250508190555082600960008673ffffffffffffffffffffffffffffffffffffffff1673ffffffffffffffffffffffffffffffffffffffff1681526020019081526020016000208190555042600a60008673ffffffffffffffffffffffffffffffffffffffff1673ffffffffffffffffffffffffffffffffffffffff1681526020019081526020016000208190555050505050565b600081359050611176816116bd565b92915050565b60008151905061118b816116bd565b92915050565b6000815190506111a0816116d4565b92915050565b6000813590506111b5816116eb565b92915050565b6000815190506111ca816116eb565b92915050565b6000602082840312156111e257600080fd5b60006111f084828501611167565b91505092915050565b60006020828403121561120b57600080fd5b60006112198482850161117c565b91505092915050565b6000806040838503121561123557600080fd5b600061124385828601611167565b925050602061125485828601611167565b9150509250929050565b60008060006060848603121561127357600080fd5b600061128186828701611167565b9350506020611292868287016111a6565b92505060406112a3868287016111a6565b9150509250925092565b6000602082840312156112bf57600080fd5b60006112cd84828501611191565b91505092915050565b6000602082840312156112e857600080fd5b60006112f6848285016111a6565b91505092915050565b60006020828403121561131157600080fd5b600061131f848285016111bb565b91505092915050565b611331816115fb565b82525050565b6113408161160d565b82525050565b600061135360138361148f565b91507f556e617574686f72697a6564206d696e746572000000000000000000000000006000830152602082019050919050565b61138f81611655565b82525050565b60006020820190506113aa6000830184611328565b92915050565b60006040820190506113c56000830185611328565b6113d26020830184611328565b9392505050565b60006060820190506113ee6000830186611328565b6113fb6020830185611328565b6114086040830184611386565b949350505050565b60006040820190506114256000830185611328565b6114326020830184611386565b9392505050565b600060208201905061144e6000830184611337565b92915050565b6000602082019050818103600083015261146d81611346565b9050919050565b60006020820190506114896000830184611386565b92915050565b600082825260208201905092915050565b60006114ab82611619565b91506114b683611619565b9250826fffffffffffffffffffffffffffffffff038211156114db576114da61165f565b5b828201905092915050565b60006114f182611655565b91506114fc83611655565b9250827fffffffffffffffffffffffffffffffffffffffffffffffffffffffffffffffff038211156115315761153061165f565b5b828201905092915050565b600061154782611655565b915061155283611655565b9250826115625761156161168e565b5b828204905092915050565b600061157882611655565b915061158383611655565b9250817fffffffffffffffffffffffffffffffffffffffffffffffffffffffffffffffff04831182151516156115bc576115bb61165f565b5b828202905092915050565b60006115d282611655565b91506115dd83611655565b9250828210156115f0576115ef61165f565b5b828203905092915050565b600061160682611635565b9050919050565b60008115159050919050565b60006fffffffffffffffffffffffffffffffff82169050919050565b600073ffffffffffffffffffffffffffffffffffffffff82169050919050565b6000819050919050565b7f4e487b7100000000000000000000000000000000000000000000000000000000600052601160045260246000fd5b7f4e487b7100000000000000000000000000000000000000000000000000000000600052601260045260246000fd5b6116c6816115fb565b81146116d157600080fd5b50565b6116dd8161160d565b81146116e857600080fd5b50565b6116f481611655565b81146116ff57600080fd5b5056fea264697066735822122064173a5e0060708286e2a0151be1d3b17310f6871e0dc679c45874475f4b7de064736f6c63430008000033",
  "immutableReferences": {},
  "source": "// SPDX-License-Identifier: MIT\r\npragma solidity >=0.4.22 <0.9.0;\r\n\r\nimport '@openzeppelin/contracts/proxy/utils/Initializable.sol';\r\nimport '@openzeppelin/contracts/utils/Context.sol';\r\nimport '@openzeppelin/contracts/token/ERC20/IERC20.sol';\r\nimport \"../curvefi/ICurveFi_Minter.sol\";\r\nimport \"../curvefi/ICurveFi_Gauge.sol\";\r\n\r\ncontract Stub_CurveFi_Gauge is ICurveFi_Gauge, Initializable, Context{\r\n   //CRV distribution number\r\n    uint128 period;\r\n    //Simplification to keep timestamp\r\n    uint period_timestamp;\r\n    //CRV Minter contract\r\n    address public __minter;\r\n    //CRV token\r\n    address public __crv_token;\r\n    //LP-token from Curve pool\r\n    address public __lp_token;\r\n    uint public totalSupply;\r\n\r\n    mapping(address => uint) public override balanceOf;\r\n    //Total shares of CRV for the user\r\n    mapping(address => uint) public __integrate_fraction;\r\n    mapping (uint256 => uint) public integrate_inv_supply;\r\n    mapping(address => uint) public integrate_inv_supply_of;\r\n    mapping(address => uint) public integrate_checkpoint_of;\r\n    \r\n    mapping(address => uint) public working_balances;\r\n    uint public working_supply; \r\n\r\n    uint public constant TOKENLESS_PRODUCTION = 40;\r\n    //Rate taken from CRV\r\n    uint public constant YEAR = 365 * 24 * 60 * 60;\r\n    uint public constant INITIAL_RATE = (274_815_283 * (10 ** 18)) / YEAR;\r\n\r\n    function initialize(address lp_addr, address _minter) public {\r\n        __minter = _minter;\r\n        __lp_token = lp_addr;\r\n\r\n        __crv_token = ICurveFi_Minter(_minter).token();\r\n        period_timestamp = block.timestamp;\r\n    }\r\n\r\n    function user_checkpoint(address addr)public override returns(bool){\r\n        require(msg.sender == addr || msg.sender == __minter, \"Unauthorized minter\");\r\n        _checkpoint(addr);\r\n        _update_liquidity_limit(addr, balanceOf[addr],totalSupply); // totalsupply - 3rd parameter\r\n        return true;\r\n    }\r\n\r\n    function _checkpoint(address addr)internal{\r\n        uint _integrate_inv_supply = integrate_inv_supply[period];\r\n        uint _working_balance = working_balances[addr];\r\n        uint _working_supply = working_supply;\r\n\r\n        if(block.timestamp > period_timestamp){\r\n            uint dt = block.timestamp - period_timestamp;\r\n            if(_working_supply > 0){\r\n                 _integrate_inv_supply += INITIAL_RATE * dt / _working_supply;\r\n            }\r\n        }\r\n        _integrate_inv_supply += 2;\r\n        period += 1;\r\n        period_timestamp = block.timestamp;\r\n        integrate_inv_supply[period] = _integrate_inv_supply;\r\n        __integrate_fraction[addr] += _working_balance * (_integrate_inv_supply - integrate_inv_supply_of[addr]) / 10 ** 18;\r\n        integrate_inv_supply_of[addr] = _integrate_inv_supply;\r\n        integrate_checkpoint_of[addr] = block.timestamp;\r\n    }\r\n\r\n    function _update_liquidity_limit(address addr, uint l, uint L)public{\r\n        uint lim = l * TOKENLESS_PRODUCTION / 100;\r\n        uint old_bal = working_balances[addr];\r\n        working_balances[addr] = lim;\r\n        working_supply = working_supply + lim - old_bal;\r\n        L+=1; //using L just to ignore warning\r\n    }\r\n\r\n    function deposit(uint _value) public override{\r\n      _checkpoint(_msgSender());\r\n\r\n      if (_value != 0){\r\n        balanceOf[_msgSender()] +=  _value;\r\n        totalSupply +=  _value;\r\n\r\n        _update_liquidity_limit(_msgSender(),  balanceOf[_msgSender()], totalSupply);\r\n\r\n        IERC20(__lp_token).transferFrom(_msgSender(), address(this), _value);\r\n      }\r\n        \r\n    }\r\n\r\n    function withdraw(uint _value)public override{\r\n        _checkpoint(_msgSender());\r\n        balanceOf[_msgSender()] -= _value;\r\n        totalSupply -= _value;\r\n\r\n        _update_liquidity_limit(_msgSender(), balanceOf[_msgSender()], totalSupply);\r\n        \r\n        IERC20(__lp_token).transfer(_msgSender(), _value);\r\n    }\r\n\r\n    function claimable_tokens(address addr)public override returns(uint){\r\n        _checkpoint(addr);\r\n        return __integrate_fraction[addr] - ICurveFi_Minter(__minter).minted(addr, address(this));\r\n    }\r\n\r\n    function minter() public view override returns(address) {\r\n        return __minter;\r\n    }\r\n\r\n    function crv_token() public view override returns(address) {\r\n        return __crv_token;\r\n    }\r\n\r\n    function lp_token() public view override returns(address) {\r\n        return __lp_token;\r\n    }\r\n\r\n    function integrate_fraction(address _for) public view override returns(uint256) {\r\n        return __integrate_fraction[_for];\r\n    }\r\n\r\n}",
  "sourcePath": "D:/BlockChain/Ethereum-201/Ren-project/contracts/TestContracts/Stub_CurveFi_Gauge.sol",
  "compiler": {
    "name": "solc",
    "version": "0.8.0+commit.c7dfd78e.Emscripten.clang"
  },
  "schemaVersion": "3.4.1",
  "updatedAt": "2021-10-28T06:52:00.578Z",
  "networkType": "ethereum",
  "devdoc": {
    "kind": "dev",
    "methods": {},
    "version": 1
  },
  "userdoc": {
    "kind": "user",
    "methods": {},
    "version": 1
  }
}