{
  "contractName": "Stub_CurveFi_Swap",
  "abi": [
    {
      "inputs": [],
      "name": "N_COINS",
      "outputs": [
        {
          "internalType": "uint256",
          "name": "",
          "type": "uint256"
        }
      ],
      "stateMutability": "view",
      "type": "function",
      "constant": true
    },
    {
      "inputs": [
        {
          "internalType": "uint256",
          "name": "",
          "type": "uint256"
        }
      ],
      "name": "__balances",
      "outputs": [
        {
          "internalType": "uint256",
          "name": "",
          "type": "uint256"
        }
      ],
      "stateMutability": "view",
      "type": "function",
      "constant": true
    },
    {
      "inputs": [
        {
          "internalType": "uint256",
          "name": "",
          "type": "uint256"
        }
      ],
      "name": "__coins",
      "outputs": [
        {
          "internalType": "address",
          "name": "",
          "type": "address"
        }
      ],
      "stateMutability": "view",
      "type": "function",
      "constant": true
    },
    {
      "inputs": [],
      "name": "__fee",
      "outputs": [
        {
          "internalType": "uint256",
          "name": "",
          "type": "uint256"
        }
      ],
      "stateMutability": "view",
      "type": "function",
      "constant": true
    },
    {
      "inputs": [],
      "name": "__token",
      "outputs": [
        {
          "internalType": "address",
          "name": "",
          "type": "address"
        }
      ],
      "stateMutability": "view",
      "type": "function",
      "constant": true
    },
    {
      "inputs": [
        {
          "internalType": "address[2]",
          "name": "_coins",
          "type": "address[2]"
        },
        {
          "internalType": "address",
          "name": "_pool_token",
          "type": "address"
        },
        {
          "internalType": "uint256",
          "name": "_fee",
          "type": "uint256"
        }
      ],
      "name": "initialize",
      "outputs": [],
      "stateMutability": "nonpayable",
      "type": "function"
    },
    {
      "inputs": [
        {
          "internalType": "uint256[2]",
          "name": "amounts",
          "type": "uint256[2]"
        },
        {
          "internalType": "uint256",
          "name": "min_mint_amount",
          "type": "uint256"
        }
      ],
      "name": "add_liquidity",
      "outputs": [],
      "stateMutability": "nonpayable",
      "type": "function"
    },
    {
      "inputs": [
        {
          "internalType": "uint256",
          "name": "_amount",
          "type": "uint256"
        },
        {
          "internalType": "uint256[2]",
          "name": "min_amounts",
          "type": "uint256[2]"
        }
      ],
      "name": "remove_liquidity",
      "outputs": [],
      "stateMutability": "nonpayable",
      "type": "function"
    },
    {
      "inputs": [
        {
          "internalType": "uint256[2]",
          "name": "amounts",
          "type": "uint256[2]"
        },
        {
          "internalType": "uint256",
          "name": "max_burn_amount",
          "type": "uint256"
        }
      ],
      "name": "remove_liquidity_imbalance",
      "outputs": [],
      "stateMutability": "nonpayable",
      "type": "function"
    },
    {
      "inputs": [
        {
          "internalType": "uint256[2]",
          "name": "amounts",
          "type": "uint256[2]"
        },
        {
          "internalType": "bool",
          "name": "deposit",
          "type": "bool"
        }
      ],
      "name": "calc_token_amount",
      "outputs": [
        {
          "internalType": "uint256",
          "name": "",
          "type": "uint256"
        }
      ],
      "stateMutability": "view",
      "type": "function",
      "constant": true
    },
    {
      "inputs": [
        {
          "internalType": "int128",
          "name": "i",
          "type": "int128"
        }
      ],
      "name": "balances",
      "outputs": [
        {
          "internalType": "uint256",
          "name": "",
          "type": "uint256"
        }
      ],
      "stateMutability": "view",
      "type": "function",
      "constant": true
    },
    {
      "inputs": [],
      "name": "fee",
      "outputs": [
        {
          "internalType": "uint256",
          "name": "",
          "type": "uint256"
        }
      ],
      "stateMutability": "view",
      "type": "function",
      "constant": true
    },
    {
      "inputs": [
        {
          "internalType": "int128",
          "name": "i",
          "type": "int128"
        }
      ],
      "name": "coins",
      "outputs": [
        {
          "internalType": "address",
          "name": "",
          "type": "address"
        }
      ],
      "stateMutability": "view",
      "type": "function",
      "constant": true
    }
  ],
  "bytecode": "0x608060405234801561001057600080fd5b506128a4806100206000396000f3fe608060405234801561001057600080fd5b50600436106100cf5760003560e01c80635b36389c1161008c578063ddca3f4311610066578063ddca3f4314610226578063e310327314610244578063e33486dc14610260578063ed8e84f31461027c576100cf565b80635b36389c146101bc57806392a4d0f6146101d8578063ae8d2a0414610208576100cf565b806301342023146100d4578063065a80d8146100f25780630b4c7e4d1461012257806323746eb81461013e578063293577501461016e5780634b30dcb21461018c575b600080fd5b6100dc6102ac565b6040516100e99190612353565b60405180910390f35b61010c60048036038101906101079190611f74565b6102b2565b6040516101199190612353565b60405180910390f35b61013c60048036038101906101379190611f0f565b610309565b005b61015860048036038101906101539190611f74565b610543565b6040516101659190612218565b60405180910390f35b6101766105ba565b6040516101839190612353565b60405180910390f35b6101a660048036038101906101a19190611f9d565b6105bf565b6040516101b39190612218565b60405180910390f35b6101d660048036038101906101d19190611fef565b6105f5565b005b6101f260048036038101906101ed9190611f9d565b610a55565b6040516101ff9190612353565b60405180910390f35b610210610a70565b60405161021d9190612218565b60405180910390f35b61022e610a96565b60405161023b9190612353565b60405180910390f35b61025e60048036038101906102599190611f0f565b610aa0565b005b61027a60048036038101906102759190611e84565b610e13565b005b61029660048036038101906102919190611ed3565b6110bb565b6040516102a39190612353565b60405180910390f35b60055481565b60006001826fffffffffffffffffffffffffffffffff1660028110610300577f4e487b7100000000000000000000000000000000000000000000000000000000600052603260045260246000fd5b01549050919050565b60006103148361134c565b905081811015610359576040517f08c379a0000000000000000000000000000000000000000000000000000000008152600401610350906122b3565b60405180910390fd5b60005b60028110156104a7576003816002811061039f577f4e487b7100000000000000000000000000000000000000000000000000000000600052603260045260246000fd5b0160009054906101000a900473ffffffffffffffffffffffffffffffffffffffff1673ffffffffffffffffffffffffffffffffffffffff166323b872dd6103e4611579565b3087856002811061041e577f4e487b7100000000000000000000000000000000000000000000000000000000600052603260045260246000fd5b60200201516040518463ffffffff1660e01b815260040161044193929190612233565b602060405180830381600087803b15801561045b57600080fd5b505af115801561046f573d6000803e3d6000fd5b505050506040513d601f19601f820116820180604052508101906104939190611f4b565b50808061049f90612718565b91505061035c565b50600060029054906101000a900473ffffffffffffffffffffffffffffffffffffffff1673ffffffffffffffffffffffffffffffffffffffff166340c10f196104ee611579565b836040518363ffffffff1660e01b815260040161050c92919061226a565b600060405180830381600087803b15801561052657600080fd5b505af115801561053a573d6000803e3d6000fd5b50505050505050565b60006003826fffffffffffffffffffffffffffffffff1660028110610591577f4e487b7100000000000000000000000000000000000000000000000000000000600052603260045260246000fd5b0160009054906101000a900473ffffffffffffffffffffffffffffffffffffffff169050919050565b600281565b600381600281106105cf57600080fd5b016000915054906101000a900473ffffffffffffffffffffffffffffffffffffffff1681565b60008060029054906101000a900473ffffffffffffffffffffffffffffffffffffffff1673ffffffffffffffffffffffffffffffffffffffff166318160ddd6040518163ffffffff1660e01b815260040160206040518083038186803b15801561065e57600080fd5b505afa158015610672573d6000803e3d6000fd5b505050506040513d601f19601f820116820180604052508101906106969190611fc6565b90506000600267ffffffffffffffff8111156106db577f4e487b7100000000000000000000000000000000000000000000000000000000600052604160045260246000fd5b6040519080825280602002602001820160405280156107095781602001602082028036833780820191505090505b50905060005b60028110156109b857600060018260028110610754577f4e487b7100000000000000000000000000000000000000000000000000000000600052603260045260246000fd5b0154905083818761076591906125f4565b61076f9190612452565b8383815181106107a8577f4e487b7100000000000000000000000000000000000000000000000000000000600052603260045260246000fd5b6020026020010181815250508482600281106107ed577f4e487b7100000000000000000000000000000000000000000000000000000000600052603260045260246000fd5b602002015183838151811061082b577f4e487b7100000000000000000000000000000000000000000000000000000000600052603260045260246000fd5b60200260200101511015610874576040517f08c379a000000000000000000000000000000000000000000000000000000000815260040161086b90612313565b60405180910390fd5b600382600281106108ae577f4e487b7100000000000000000000000000000000000000000000000000000000600052603260045260246000fd5b0160009054906101000a900473ffffffffffffffffffffffffffffffffffffffff1673ffffffffffffffffffffffffffffffffffffffff1663a9059cbb6108f3611579565b85858151811061092c577f4e487b7100000000000000000000000000000000000000000000000000000000600052603260045260246000fd5b60200260200101516040518363ffffffff1660e01b815260040161095192919061226a565b602060405180830381600087803b15801561096b57600080fd5b505af115801561097f573d6000803e3d6000fd5b505050506040513d601f19601f820116820180604052508101906109a39190611f4b565b505080806109b090612718565b91505061070f565b50600060029054906101000a900473ffffffffffffffffffffffffffffffffffffffff1673ffffffffffffffffffffffffffffffffffffffff166379cc67906109ff611579565b866040518363ffffffff1660e01b8152600401610a1d92919061226a565b600060405180830381600087803b158015610a3757600080fd5b505af1158015610a4b573d6000803e3d6000fd5b5050505050505050565b60018160028110610a6557600080fd5b016000915090505481565b600060029054906101000a900473ffffffffffffffffffffffffffffffffffffffff1681565b6000600554905090565b60008060029054906101000a900473ffffffffffffffffffffffffffffffffffffffff1673ffffffffffffffffffffffffffffffffffffffff166318160ddd6040518163ffffffff1660e01b815260040160206040518083038186803b158015610b0957600080fd5b505afa158015610b1d573d6000803e3d6000fd5b505050506040513d601f19601f82011682018060405250810190610b419190611fc6565b905060008111610b86576040517f08c379a0000000000000000000000000000000000000000000000000000000008152600401610b7d90612293565b60405180910390fd5b6000610b93846000611581565b905060005b6002811015610d28576000858260028110610bdc577f4e487b7100000000000000000000000000000000000000000000000000000000600052603260045260246000fd5b60200201511115610d155760038160028110610c21577f4e487b7100000000000000000000000000000000000000000000000000000000600052603260045260246000fd5b0160009054906101000a900473ffffffffffffffffffffffffffffffffffffffff1673ffffffffffffffffffffffffffffffffffffffff1663a9059cbb610c66611579565b878460028110610c9f577f4e487b7100000000000000000000000000000000000000000000000000000000600052603260045260246000fd5b60200201516040518363ffffffff1660e01b8152600401610cc192919061226a565b602060405180830381600087803b158015610cdb57600080fd5b505af1158015610cef573d6000803e3d6000fd5b505050506040513d601f19601f82011682018060405250810190610d139190611f4b565b505b8080610d2090612718565b915050610b98565b506000831480610d385750828111155b610d77576040517f08c379a0000000000000000000000000000000000000000000000000000000008152600401610d6e906122d3565b60405180910390fd5b600060029054906101000a900473ffffffffffffffffffffffffffffffffffffffff1673ffffffffffffffffffffffffffffffffffffffff166379cc6790610dbd611579565b836040518363ffffffff1660e01b8152600401610ddb92919061226a565b600060405180830381600087803b158015610df557600080fd5b505af1158015610e09573d6000803e3d6000fd5b5050505050505050565b600060019054906101000a900460ff1680610e39575060008054906101000a900460ff16155b610e78576040517f08c379a0000000000000000000000000000000000000000000000000000000008152600401610e6f906122f3565b60405180910390fd5b60008060019054906101000a900460ff161590508015610ec8576001600060016101000a81548160ff02191690831515021790555060016000806101000a81548160ff0219169083151502179055505b60005b600281101561104b57600073ffffffffffffffffffffffffffffffffffffffff16858260028110610f25577f4e487b7100000000000000000000000000000000000000000000000000000000600052603260045260246000fd5b602002015173ffffffffffffffffffffffffffffffffffffffff161415610f81576040517f08c379a0000000000000000000000000000000000000000000000000000000008152600401610f7890612333565b60405180910390fd5b848160028110610fba577f4e487b7100000000000000000000000000000000000000000000000000000000600052603260045260246000fd5b602002015160038260028110610ff9577f4e487b7100000000000000000000000000000000000000000000000000000000600052603260045260246000fd5b0160006101000a81548173ffffffffffffffffffffffffffffffffffffffff021916908373ffffffffffffffffffffffffffffffffffffffff160217905550808061104390612718565b915050610ecb565b5082600060026101000a81548173ffffffffffffffffffffffffffffffffffffffff021916908373ffffffffffffffffffffffffffffffffffffffff1602179055508160058190555080156110b55760008060016101000a81548160ff0219169083151502179055505b50505050565b60006110c5611c99565b600080600090505b60028110156113405760018160028110611110577f4e487b7100000000000000000000000000000000000000000000000000000000600052603260045260246000fd5b015483826004811061114b577f4e487b7100000000000000000000000000000000000000000000000000000000600052603260045260246000fd5b60200201818152505084156111ee57858160028110611193577f4e487b7100000000000000000000000000000000000000000000000000000000600052603260045260246000fd5b60200201518382600481106111d1577f4e487b7100000000000000000000000000000000000000000000000000000000600052603260045260246000fd5b602002018181516111e291906123fc565b9150818152505061127e565b858160028110611227577f4e487b7100000000000000000000000000000000000000000000000000000000600052603260045260246000fd5b6020020151838260048110611265577f4e487b7100000000000000000000000000000000000000000000000000000000600052603260045260246000fd5b60200201818151611276919061264e565b915081815250505b611320600382600281106112bb577f4e487b7100000000000000000000000000000000000000000000000000000000600052603260045260246000fd5b0160009054906101000a900473ffffffffffffffffffffffffffffffffffffffff16878360028110611316577f4e487b7100000000000000000000000000000000000000000000000000000000600052603260045260246000fd5b6020020151611b8f565b8261132b91906123fc565b9150808061133890612718565b9150506110cd565b50809250505092915050565b60008060008060029054906101000a900473ffffffffffffffffffffffffffffffffffffffff1673ffffffffffffffffffffffffffffffffffffffff166318160ddd6040518163ffffffff1660e01b815260040160206040518083038186803b1580156113b857600080fd5b505afa1580156113cc573d6000803e3d6000fd5b505050506040513d601f19601f820116820180604052508101906113f09190611fc6565b111561140857611401836001611581565b9050611570565b600080600090505b600281101561156a57848160028110611452577f4e487b7100000000000000000000000000000000000000000000000000000000600052603260045260246000fd5b602002015160018260028110611491577f4e487b7100000000000000000000000000000000000000000000000000000000600052603260045260246000fd5b0160008282546114a191906123fc565b9250508190555061154a600382600281106114e5577f4e487b7100000000000000000000000000000000000000000000000000000000600052603260045260246000fd5b0160009054906101000a900473ffffffffffffffffffffffffffffffffffffffff16868360028110611540577f4e487b7100000000000000000000000000000000000000000000000000000000600052603260045260246000fd5b6020020151611b8f565b8261155591906123fc565b9150808061156290612718565b915050611410565b50809150505b80915050919050565b600033905090565b600061158b611cbb565b611593611cbb565b60005b600281101561163057600181600281106115d9577f4e487b7100000000000000000000000000000000000000000000000000000000600052603260045260246000fd5b0154828260028110611614577f4e487b7100000000000000000000000000000000000000000000000000000000600052603260045260246000fd5b602002018181525050808061162890612718565b915050611596565b50600080600090505b60028110156118a057851561171557868160028110611681577f4e487b7100000000000000000000000000000000000000000000000000000000600052603260045260246000fd5b60200201518382600281106116bf577f4e487b7100000000000000000000000000000000000000000000000000000000600052603260045260246000fd5b60200201516116ce91906123fc565b848260028110611707577f4e487b7100000000000000000000000000000000000000000000000000000000600052603260045260246000fd5b6020020181815250506117de565b86816002811061174e577f4e487b7100000000000000000000000000000000000000000000000000000000600052603260045260246000fd5b602002015183826002811061178c577f4e487b7100000000000000000000000000000000000000000000000000000000600052603260045260246000fd5b602002015161179b919061264e565b8482600281106117d4577f4e487b7100000000000000000000000000000000000000000000000000000000600052603260045260246000fd5b6020020181815250505b6118806003826002811061181b577f4e487b7100000000000000000000000000000000000000000000000000000000600052603260045260246000fd5b0160009054906101000a900473ffffffffffffffffffffffffffffffffffffffff16888360028110611876577f4e487b7100000000000000000000000000000000000000000000000000000000600052603260045260246000fd5b6020020151611b8f565b8261188b91906123fc565b9150808061189890612718565b915050611639565b506000600160026118b1919061264e565b60046118bd91906125f4565b60026005546118cc91906125f4565b6118d69190612452565b905060005b6002811015611ae45760006127106126ac868460028110611925577f4e487b7100000000000000000000000000000000000000000000000000000000600052603260045260246000fd5b602002015161193491906125f4565b61193e9190612452565b9050600086836002811061197b577f4e487b7100000000000000000000000000000000000000000000000000000000600052603260045260246000fd5b60200201518211156119d7578683600281106119c0577f4e487b7100000000000000000000000000000000000000000000000000000000600052603260045260246000fd5b6020020151826119d0919061264e565b9050611a23565b81878460028110611a11577f4e487b7100000000000000000000000000000000000000000000000000000000600052603260045260246000fd5b6020020151611a20919061264e565b90505b60006402540be4008286611a3791906125f4565b611a419190612452565b905080888560028110611a7d577f4e487b7100000000000000000000000000000000000000000000000000000000600052603260045260246000fd5b6020020151611a8c919061264e565b888560028110611ac5577f4e487b7100000000000000000000000000000000000000000000000000000000600052603260045260246000fd5b6020020181815250505050508080611adc90612718565b9150506118db565b5060005b6002811015611b8157848160028110611b2a577f4e487b7100000000000000000000000000000000000000000000000000000000600052603260045260246000fd5b602002015160018260028110611b69577f4e487b7100000000000000000000000000000000000000000000000000000000600052603260045260246000fd5b01819055508080611b7990612718565b915050611ae8565b508194505050505092915050565b6000808373ffffffffffffffffffffffffffffffffffffffff1663313ce5676040518163ffffffff1660e01b815260040160206040518083038186803b158015611bd857600080fd5b505afa158015611bec573d6000803e3d6000fd5b505050506040513d601f19601f82011682018060405250810190611c10919061202b565b905060128160ff161415611c2657829150611c92565b60128160ff161115611c5d57601281611c3f9190612682565b600a611c4b91906124d6565b83611c569190612452565b9150611c91565b60128160ff161015611c9057806012611c769190612682565b600a611c8291906124d6565b83611c8d91906125f4565b91505b5b5b5092915050565b6040518060800160405280600490602082028036833780820191505090505090565b6040518060400160405280600290602082028036833780820191505090505090565b6000611cf0611ceb8461239f565b61236e565b90508082856020860282011115611d0657600080fd5b60005b85811015611d365781611d1c8882611da3565b845260208401935060208301925050600181019050611d09565b5050509392505050565b6000611d53611d4e846123c5565b61236e565b90508082856020860282011115611d6957600080fd5b60005b85811015611d995781611d7f8882611e45565b845260208401935060208301925050600181019050611d6c565b5050509392505050565b600081359050611db2816127fb565b92915050565b600082601f830112611dc957600080fd5b6002611dd6848285611cdd565b91505092915050565b600082601f830112611df057600080fd5b6002611dfd848285611d40565b91505092915050565b600081359050611e1581612812565b92915050565b600081519050611e2a81612812565b92915050565b600081359050611e3f81612829565b92915050565b600081359050611e5481612840565b92915050565b600081519050611e6981612840565b92915050565b600081519050611e7e81612857565b92915050565b600080600060808486031215611e9957600080fd5b6000611ea786828701611db8565b9350506040611eb886828701611da3565b9250506060611ec986828701611e45565b9150509250925092565b60008060608385031215611ee657600080fd5b6000611ef485828601611ddf565b9250506040611f0585828601611e06565b9150509250929050565b60008060608385031215611f2257600080fd5b6000611f3085828601611ddf565b9250506040611f4185828601611e45565b9150509250929050565b600060208284031215611f5d57600080fd5b6000611f6b84828501611e1b565b91505092915050565b600060208284031215611f8657600080fd5b6000611f9484828501611e30565b91505092915050565b600060208284031215611faf57600080fd5b6000611fbd84828501611e45565b91505092915050565b600060208284031215611fd857600080fd5b6000611fe684828501611e5a565b91505092915050565b6000806060838503121561200257600080fd5b600061201085828601611e45565b925050602061202185828601611ddf565b9150509250929050565b60006020828403121561203d57600080fd5b600061204b84828501611e6f565b91505092915050565b61205d816126b6565b82525050565b60006120706013836123eb565b91507f4e6f7468696e6720746f207769746864726177000000000000000000000000006000830152602082019050919050565b60006120b06016836123eb565b91507f4d696e206d696e7420616d6f756e74206661696c6564000000000000000000006000830152602082019050919050565b60006120f06016836123eb565b91507f4d696e206275726e20616d6f756e74206661696c6564000000000000000000006000830152602082019050919050565b6000612130602e836123eb565b91507f496e697469616c697a61626c653a20636f6e747261637420697320616c72656160008301527f647920696e697469616c697a65640000000000000000000000000000000000006020830152604082019050919050565b6000612196601a836123eb565b91507f4d696e20776974686472617720616d6f756e74206661696c65640000000000006000830152602082019050919050565b60006121d6601c836123eb565b91507f436f696e20616464726573732063616e206e6f74206265207a65726f000000006000830152602082019050919050565b61221281612701565b82525050565b600060208201905061222d6000830184612054565b92915050565b60006060820190506122486000830186612054565b6122556020830185612054565b6122626040830184612209565b949350505050565b600060408201905061227f6000830185612054565b61228c6020830184612209565b9392505050565b600060208201905081810360008301526122ac81612063565b9050919050565b600060208201905081810360008301526122cc816120a3565b9050919050565b600060208201905081810360008301526122ec816120e3565b9050919050565b6000602082019050818103600083015261230c81612123565b9050919050565b6000602082019050818103600083015261232c81612189565b9050919050565b6000602082019050818103600083015261234c816121c9565b9050919050565b60006020820190506123686000830184612209565b92915050565b6000604051905081810181811067ffffffffffffffff82111715612395576123946127bf565b5b8060405250919050565b600067ffffffffffffffff8211156123ba576123b96127bf565b5b602082029050919050565b600067ffffffffffffffff8211156123e0576123df6127bf565b5b602082029050919050565b600082825260208201905092915050565b600061240782612701565b915061241283612701565b9250827fffffffffffffffffffffffffffffffffffffffffffffffffffffffffffffffff0382111561244757612446612761565b5b828201905092915050565b600061245d82612701565b915061246883612701565b92508261247857612477612790565b5b828204905092915050565b6000808291508390505b60018511156124cd578086048111156124a9576124a8612761565b5b60018516156124b85780820291505b80810290506124c6856127ee565b945061248d565b94509492505050565b60006124e182612701565b91506124ec8361270b565b92506125197fffffffffffffffffffffffffffffffffffffffffffffffffffffffffffffffff8484612521565b905092915050565b60008261253157600190506125ed565b8161253f57600090506125ed565b8160018114612555576002811461255f5761258e565b60019150506125ed565b60ff84111561257157612570612761565b5b8360020a91508482111561258857612587612761565b5b506125ed565b5060208310610133831016604e8410600b84101617156125c35782820a9050838111156125be576125bd612761565b5b6125ed565b6125d08484846001612483565b925090508184048111156125e7576125e6612761565b5b81810290505b9392505050565b60006125ff82612701565b915061260a83612701565b9250817fffffffffffffffffffffffffffffffffffffffffffffffffffffffffffffffff048311821515161561264357612642612761565b5b828202905092915050565b600061265982612701565b915061266483612701565b92508282101561267757612676612761565b5b828203905092915050565b600061268d8261270b565b91506126988361270b565b9250828210156126ab576126aa612761565b5b828203905092915050565b60006126c1826126e1565b9050919050565b60008115159050919050565b600081600f0b9050919050565b600073ffffffffffffffffffffffffffffffffffffffff82169050919050565b6000819050919050565b600060ff82169050919050565b600061272382612701565b91507fffffffffffffffffffffffffffffffffffffffffffffffffffffffffffffffff82141561275657612755612761565b5b600182019050919050565b7f4e487b7100000000000000000000000000000000000000000000000000000000600052601160045260246000fd5b7f4e487b7100000000000000000000000000000000000000000000000000000000600052601260045260246000fd5b7f4e487b7100000000000000000000000000000000000000000000000000000000600052604160045260246000fd5b60008160011c9050919050565b612804816126b6565b811461280f57600080fd5b50565b61281b816126c8565b811461282657600080fd5b50565b612832816126d4565b811461283d57600080fd5b50565b61284981612701565b811461285457600080fd5b50565b6128608161270b565b811461286b57600080fd5b5056fea264697066735822122037a3be24ca7e17f7492aaca3052f9c6b80a7edbcda10e01e8480188035b7856064736f6c63430008000033",
  "immutableReferences": {},
  "source": "// SPDX-License-Identifier: MIT\r\npragma solidity >=0.4.22 <0.9.0;\r\n\r\nimport '@openzeppelin/contracts/proxy/utils/Initializable.sol';\r\nimport '@openzeppelin/contracts/utils/Context.sol';\r\nimport '@openzeppelin/contracts/token/ERC20/IERC20.sol';\r\nimport '@openzeppelin/contracts/token/ERC20/extensions/ERC20Burnable.sol';\r\nimport '@openzeppelin/contracts/token/ERC20/ERC20.sol';\r\n\r\nimport '../curvefi/ICurveFi_StableSwapRen.sol';\r\nimport '../curvefi/IRenERC20.sol';\r\nimport './Stub_LPToken.sol';\r\n\r\ncontract Stub_CurveFi_Swap is ICurveFi_StableSwapRen,Initializable,Context{\r\n    \r\n    uint256 public constant N_COINS = 2;\r\n    uint256 constant MAX_EXCHANGE_FEE = 0.05*1e18;\r\n\r\n    address public __token;\r\n    uint256[N_COINS] public __balances;\r\n    address[N_COINS] public __coins;\r\n    uint256 public __fee;\r\n\r\n    function initialize(address[N_COINS] memory _coins, address _pool_token, uint256 _fee )public initializer {\r\n        for (uint256 i = 0; i < N_COINS; i++) {\r\n            require(_coins[i]!= address(0),'Coin address can not be zero');\r\n            __coins[i] = _coins[i];\r\n        }\r\n        __token = _pool_token;\r\n        __fee = _fee;\r\n    }\r\n\r\n    function add_liquidity(uint256[N_COINS] memory amounts, uint256 min_mint_amount) public override{\r\n        uint256 mint_amount = calculateMintAmount(amounts);\r\n        require(mint_amount >= min_mint_amount,'Min mint amount failed');\r\n        \r\n        //Transfer tokens from sender to this contract\r\n        for(uint i = 0 ; i < N_COINS ; i++){\r\n          IRenERC20(__coins[i]).transferFrom(_msgSender(), address(this), amounts[i]);\r\n        }\r\n      \r\n        Stub_LPToken(__token).mint(_msgSender(), mint_amount);\r\n    }\r\n\r\n    function remove_liquidity (uint256 _amount, uint256[N_COINS] memory min_amounts) public override{\r\n        uint256 total_supply = IERC20(__token).totalSupply();\r\n        uint256[] memory amounts = new uint256[](__coins.length);\r\n\r\n        for (uint256 i=0; i < __coins.length; i++){\r\n            uint256 value = __balances[i];\r\n            amounts[i] = (_amount * value )/total_supply;\r\n            require(amounts[i] >= min_amounts[i], \"Min withdraw amount failed\");\r\n            IRenERC20(__coins[i]).transfer(_msgSender(), amounts[i]);\r\n        }\r\n        ERC20Burnable(__token).burnFrom(_msgSender(), _amount);\r\n    }\r\n\r\n    function remove_liquidity_imbalance(uint256[N_COINS] memory amounts, uint256 max_burn_amount) public override{\r\n        uint256 total_supply = IERC20(__token).totalSupply();\r\n        require(total_supply > 0, \"Nothing to withdraw\");\r\n\r\n        uint256 token_amount = change_token_amount_with_fees(amounts, false);\r\n\r\n        for (uint256 i=0; i < N_COINS; i++){\r\n            if(amounts[i] > 0){\r\n                IRenERC20(__coins[i]).transfer(_msgSender(), amounts[i]);\r\n            }\r\n        }\r\n\r\n        require(max_burn_amount == 0 || token_amount <= max_burn_amount, \"Min burn amount failed\");\r\n        ERC20Burnable(__token).burnFrom(_msgSender(), token_amount);\r\n    }\r\n\r\n    function calculateMintAmount(uint256[N_COINS] memory amounts)internal returns(uint256){\r\n        uint256 mint_amount;\r\n\r\n        if(IERC20(__token).totalSupply() > 0){\r\n            mint_amount = change_token_amount_with_fees(amounts, true);\r\n        }\r\n        else{\r\n           uint total;\r\n           for(uint i = 0 ; i < N_COINS ; i++){\r\n                __balances[i] += amounts[i];\r\n                total += normalize(__coins[i], amounts[i]);\r\n           }\r\n            mint_amount = total;\r\n        }\r\n\r\n        return mint_amount;\r\n    }\r\n\r\n    function calc_token_amount(uint256[N_COINS] memory amounts, bool deposit) public view returns(uint256) {\r\n\r\n        uint256[4] memory _balances;\r\n        uint256 total;\r\n        for (uint256 i = 0; i < N_COINS; i++) {\r\n            _balances[i] = __balances[i];\r\n            if (deposit)\r\n                _balances[i] += amounts[i];\r\n            else\r\n                _balances[i] -= amounts[i];\r\n            total += normalize(__coins[i], amounts[i]);\r\n        }\r\n        return total;\r\n    }\r\n\r\n    function change_token_amount_with_fees(uint256[N_COINS] memory amounts, bool deposit) internal returns(uint){\r\n        uint256[N_COINS] memory new_balances;\r\n        uint256[N_COINS] memory old_balances;\r\n\r\n        for(uint i = 0 ; i < N_COINS ; i++){\r\n            old_balances[i] = __balances[i];\r\n        }\r\n\r\n        // D0 = self.get_D_mem(rates, old_balances, amp)\r\n        uint256 total;\r\n        for (uint i = 0; i < N_COINS; i++) {\r\n            if (deposit)\r\n                new_balances[i] = old_balances[i] + amounts[i];\r\n            else\r\n                new_balances[i] = old_balances[i] - amounts[i];\r\n\r\n            total += normalize(__coins[i], amounts[i]);\r\n        }\r\n\r\n        //D1: uint256 = self.get_D_mem(rates, new_balances)\r\n        uint256 _fee = __fee * N_COINS / (4 * (N_COINS - 1));\r\n        for (uint i = 0; i < N_COINS; i++) {\r\n            uint256 ideal_balance = old_balances[i] * 9900 / 10000;//D1 * old_balances[i] / D0;\r\n            uint256 difference;\r\n            if (ideal_balance > new_balances[i])\r\n                difference = ideal_balance - new_balances[i];\r\n            else\r\n                difference = new_balances[i] - ideal_balance;\r\n\r\n            uint256 feee = _fee * difference / (10 ** 10);\r\n            new_balances[i] = new_balances[i] - feee;\r\n        }\r\n\r\n        // D2: uint256 = self.get_D_mem(rates, new_balances)\r\n        for (uint i = 0; i < N_COINS; i++) {\r\n            __balances[i] = new_balances[i];\r\n        }\r\n        return total;\r\n    }\r\n\r\n    function normalize(address coin, uint amount) internal view returns(uint result){\r\n        uint8 decimal  = ERC20(coin).decimals();\r\n        if(decimal == 18){\r\n            result =  amount; \r\n        }\r\n        else if(decimal > 18){\r\n            result =  amount / 10 ** (decimal-18);\r\n        }\r\n        else if(decimal < 18){\r\n            result = amount * 10 ** (18-decimal);\r\n        }\r\n    }\r\n\r\n    function balances(int128 i) public view override returns(uint256) {\r\n        return __balances[uint(uint128(i))];//IERC20(__coins[uint256(i)]).balanceOf(address(this));\r\n    }\r\n\r\n    function fee() public view returns(uint256) {\r\n        return __fee;\r\n    }\r\n\r\n    function coins(int128 i) public view override returns (address) {\r\n        return __coins[uint(uint128(i))];\r\n    }\r\n\r\n}",
  "sourcePath": "D:/BlockChain/Ethereum-201/Ren-project/contracts/TestContracts/Stub_CurveFi_Swap.sol",
  "compiler": {
    "name": "solc",
    "version": "0.8.0+commit.c7dfd78e.Emscripten.clang"
  },
  "schemaVersion": "3.4.1",
  "updatedAt": "2021-10-27T21:01:35.573Z",
  "networkType": "ethereum",
  "devdoc": {
    "kind": "dev",
    "methods": {},
    "version": 1
  },
  "userdoc": {
    "kind": "user",
    "methods": {},
    "version": 1
  }
}