{
  "contractName": "Stub_RenERC20",
  "abi": [
    {
      "inputs": [],
      "stateMutability": "nonpayable",
      "type": "constructor"
    },
    {
      "anonymous": false,
      "inputs": [
        {
          "indexed": true,
          "internalType": "address",
          "name": "owner",
          "type": "address"
        },
        {
          "indexed": true,
          "internalType": "address",
          "name": "spender",
          "type": "address"
        },
        {
          "indexed": false,
          "internalType": "uint256",
          "name": "value",
          "type": "uint256"
        }
      ],
      "name": "Approval",
      "type": "event"
    },
    {
      "anonymous": false,
      "inputs": [
        {
          "indexed": true,
          "internalType": "address",
          "name": "from",
          "type": "address"
        },
        {
          "indexed": true,
          "internalType": "address",
          "name": "to",
          "type": "address"
        },
        {
          "indexed": false,
          "internalType": "uint256",
          "name": "value",
          "type": "uint256"
        }
      ],
      "name": "Transfer",
      "type": "event"
    },
    {
      "inputs": [
        {
          "internalType": "address",
          "name": "owner",
          "type": "address"
        },
        {
          "internalType": "address",
          "name": "spender",
          "type": "address"
        }
      ],
      "name": "allowance",
      "outputs": [
        {
          "internalType": "uint256",
          "name": "",
          "type": "uint256"
        }
      ],
      "stateMutability": "view",
      "type": "function",
      "constant": true
    },
    {
      "inputs": [
        {
          "internalType": "address",
          "name": "spender",
          "type": "address"
        },
        {
          "internalType": "uint256",
          "name": "amount",
          "type": "uint256"
        }
      ],
      "name": "approve",
      "outputs": [
        {
          "internalType": "bool",
          "name": "",
          "type": "bool"
        }
      ],
      "stateMutability": "nonpayable",
      "type": "function"
    },
    {
      "inputs": [
        {
          "internalType": "address",
          "name": "account",
          "type": "address"
        }
      ],
      "name": "balanceOf",
      "outputs": [
        {
          "internalType": "uint256",
          "name": "",
          "type": "uint256"
        }
      ],
      "stateMutability": "view",
      "type": "function",
      "constant": true
    },
    {
      "inputs": [],
      "name": "decimals",
      "outputs": [
        {
          "internalType": "uint8",
          "name": "",
          "type": "uint8"
        }
      ],
      "stateMutability": "view",
      "type": "function",
      "constant": true
    },
    {
      "inputs": [
        {
          "internalType": "address",
          "name": "spender",
          "type": "address"
        },
        {
          "internalType": "uint256",
          "name": "subtractedValue",
          "type": "uint256"
        }
      ],
      "name": "decreaseAllowance",
      "outputs": [
        {
          "internalType": "bool",
          "name": "",
          "type": "bool"
        }
      ],
      "stateMutability": "nonpayable",
      "type": "function"
    },
    {
      "inputs": [],
      "name": "exchangeRateStored",
      "outputs": [
        {
          "internalType": "uint256",
          "name": "",
          "type": "uint256"
        }
      ],
      "stateMutability": "view",
      "type": "function",
      "constant": true
    },
    {
      "inputs": [
        {
          "internalType": "address",
          "name": "spender",
          "type": "address"
        },
        {
          "internalType": "uint256",
          "name": "addedValue",
          "type": "uint256"
        }
      ],
      "name": "increaseAllowance",
      "outputs": [
        {
          "internalType": "bool",
          "name": "",
          "type": "bool"
        }
      ],
      "stateMutability": "nonpayable",
      "type": "function"
    },
    {
      "inputs": [],
      "name": "name",
      "outputs": [
        {
          "internalType": "string",
          "name": "",
          "type": "string"
        }
      ],
      "stateMutability": "view",
      "type": "function",
      "constant": true
    },
    {
      "inputs": [],
      "name": "symbol",
      "outputs": [
        {
          "internalType": "string",
          "name": "",
          "type": "string"
        }
      ],
      "stateMutability": "view",
      "type": "function",
      "constant": true
    },
    {
      "inputs": [],
      "name": "totalSupply",
      "outputs": [
        {
          "internalType": "uint256",
          "name": "",
          "type": "uint256"
        }
      ],
      "stateMutability": "view",
      "type": "function",
      "constant": true
    },
    {
      "inputs": [
        {
          "internalType": "address",
          "name": "recipient",
          "type": "address"
        },
        {
          "internalType": "uint256",
          "name": "amount",
          "type": "uint256"
        }
      ],
      "name": "transfer",
      "outputs": [
        {
          "internalType": "bool",
          "name": "",
          "type": "bool"
        }
      ],
      "stateMutability": "nonpayable",
      "type": "function"
    },
    {
      "inputs": [
        {
          "internalType": "address",
          "name": "sender",
          "type": "address"
        },
        {
          "internalType": "address",
          "name": "recipient",
          "type": "address"
        },
        {
          "internalType": "uint256",
          "name": "amount",
          "type": "uint256"
        }
      ],
      "name": "transferFrom",
      "outputs": [
        {
          "internalType": "bool",
          "name": "",
          "type": "bool"
        }
      ],
      "stateMutability": "nonpayable",
      "type": "function"
    },
    {
      "inputs": [
        {
          "internalType": "address",
          "name": "_to",
          "type": "address"
        },
        {
          "internalType": "uint256",
          "name": "_value",
          "type": "uint256"
        }
      ],
      "name": "mint",
      "outputs": [],
      "stateMutability": "nonpayable",
      "type": "function"
    },
    {
      "inputs": [
        {
          "internalType": "address",
          "name": "_underlying",
          "type": "address"
        }
      ],
      "name": "initialize",
      "outputs": [],
      "stateMutability": "nonpayable",
      "type": "function"
    },
    {
      "inputs": [
        {
          "internalType": "uint256",
          "name": "rate",
          "type": "uint256"
        }
      ],
      "name": "set_exchange_rate",
      "outputs": [],
      "stateMutability": "nonpayable",
      "type": "function"
    },
    {
      "inputs": [],
      "name": "exchangeRateCurrent",
      "outputs": [
        {
          "internalType": "uint256",
          "name": "",
          "type": "uint256"
        }
      ],
      "stateMutability": "view",
      "type": "function",
      "constant": true
    }
  ],
  "bytecode": "0x60806040523480156200001157600080fd5b506040518060400160405280600981526020017f52656e546f6b656e7300000000000000000000000000000000000000000000008152506040518060400160405280600b81526020017f72656e4254432f77425443000000000000000000000000000000000000000000815250816003908051906020019062000096929190620000b8565b508060049080519060200190620000af929190620000b8565b505050620001cd565b828054620000c69062000168565b90600052602060002090601f016020900481019282620000ea576000855562000136565b82601f106200010557805160ff191683800117855562000136565b8280016001018555821562000136579182015b828111156200013557825182559160200191906001019062000118565b5b50905062000145919062000149565b5090565b5b80821115620001645760008160009055506001016200014a565b5090565b600060028204905060018216806200018157607f821691505b602082108114156200019857620001976200019e565b5b50919050565b7f4e487b7100000000000000000000000000000000000000000000000000000000600052602260045260246000fd5b61180c80620001dd6000396000f3fe608060405234801561001057600080fd5b50600436106101005760003560e01c806340c10f1911610097578063a9059cbb11610066578063a9059cbb146102c3578063bd6d894d146102f3578063c4d66de814610311578063dd62ed3e1461032d57610100565b806340c10f191461022957806370a082311461024557806395d89b4114610275578063a457c2d71461029357610100565b8063182df0f5116100d3578063182df0f51461018d57806323b872dd146101ab578063313ce567146101db57806339509351146101f957610100565b806306fdde0314610105578063095ea7b3146101235780630e216fe91461015357806318160ddd1461016f575b600080fd5b61010d61035d565b60405161011a91906113c7565b60405180910390f35b61013d60048036038101906101389190610fd7565b6103ef565b60405161014a91906113ac565b60405180910390f35b61016d60048036038101906101689190611013565b61040d565b005b610177610417565b60405161018491906114e9565b60405180910390f35b610195610421565b6040516101a291906114e9565b60405180910390f35b6101c560048036038101906101c09190610f88565b610427565b6040516101d291906113ac565b60405180910390f35b6101e361051f565b6040516101f09190611504565b60405180910390f35b610213600480360381019061020e9190610fd7565b610528565b60405161022091906113ac565b60405180910390f35b610243600480360381019061023e9190610fd7565b6105d4565b005b61025f600480360381019061025a9190610f23565b6105e2565b60405161026c91906114e9565b60405180910390f35b61027d61062a565b60405161028a91906113c7565b60405180910390f35b6102ad60048036038101906102a89190610fd7565b6106bc565b6040516102ba91906113ac565b60405180910390f35b6102dd60048036038101906102d89190610fd7565b6107a7565b6040516102ea91906113ac565b60405180910390f35b6102fb6107c5565b60405161030891906114e9565b60405180910390f35b61032b60048036038101906103269190610f23565b6107d4565b005b61034760048036038101906103429190610f4c565b61082e565b60405161035491906114e9565b60405180910390f35b60606003805461036c906116d8565b80601f0160208091040260200160405190810160405280929190818152602001828054610398906116d8565b80156103e55780601f106103ba576101008083540402835291602001916103e5565b820191906000526020600020905b8154815290600101906020018083116103c857829003601f168201915b5050505050905090565b60006104036103fc6108b5565b84846108bd565b6001905092915050565b8060058190555050565b6000600254905090565b60055481565b6000610434848484610a88565b6000600160008673ffffffffffffffffffffffffffffffffffffffff1673ffffffffffffffffffffffffffffffffffffffff168152602001908152602001600020600061047f6108b5565b73ffffffffffffffffffffffffffffffffffffffff1673ffffffffffffffffffffffffffffffffffffffff168152602001908152602001600020549050828110156104ff576040517f08c379a00000000000000000000000000000000000000000000000000000000081526004016104f690611449565b60405180910390fd5b6105138561050b6108b5565b8584036108bd565b60019150509392505050565b60006012905090565b60006105ca6105356108b5565b8484600160006105436108b5565b73ffffffffffffffffffffffffffffffffffffffff1673ffffffffffffffffffffffffffffffffffffffff16815260200190815260200160002060008873ffffffffffffffffffffffffffffffffffffffff1673ffffffffffffffffffffffffffffffffffffffff168152602001908152602001600020546105c5919061153b565b6108bd565b6001905092915050565b6105de8282610d09565b5050565b60008060008373ffffffffffffffffffffffffffffffffffffffff1673ffffffffffffffffffffffffffffffffffffffff168152602001908152602001600020549050919050565b606060048054610639906116d8565b80601f0160208091040260200160405190810160405280929190818152602001828054610665906116d8565b80156106b25780601f10610687576101008083540402835291602001916106b2565b820191906000526020600020905b81548152906001019060200180831161069557829003601f168201915b5050505050905090565b600080600160006106cb6108b5565b73ffffffffffffffffffffffffffffffffffffffff1673ffffffffffffffffffffffffffffffffffffffff16815260200190815260200160002060008573ffffffffffffffffffffffffffffffffffffffff1673ffffffffffffffffffffffffffffffffffffffff16815260200190815260200160002054905082811015610788576040517f08c379a000000000000000000000000000000000000000000000000000000000815260040161077f906114a9565b60405180910390fd5b61079c6107936108b5565b858584036108bd565b600191505092915050565b60006107bb6107b46108b5565b8484610a88565b6001905092915050565b60006107cf610e69565b905090565b670de0b6b3a764000060058190555080600760006101000a81548173ffffffffffffffffffffffffffffffffffffffff021916908373ffffffffffffffffffffffffffffffffffffffff1602179055504260068190555050565b6000600160008473ffffffffffffffffffffffffffffffffffffffff1673ffffffffffffffffffffffffffffffffffffffff16815260200190815260200160002060008373ffffffffffffffffffffffffffffffffffffffff1673ffffffffffffffffffffffffffffffffffffffff16815260200190815260200160002054905092915050565b600033905090565b600073ffffffffffffffffffffffffffffffffffffffff168373ffffffffffffffffffffffffffffffffffffffff16141561092d576040517f08c379a000000000000000000000000000000000000000000000000000000000815260040161092490611489565b60405180910390fd5b600073ffffffffffffffffffffffffffffffffffffffff168273ffffffffffffffffffffffffffffffffffffffff16141561099d576040517f08c379a000000000000000000000000000000000000000000000000000000000815260040161099490611409565b60405180910390fd5b80600160008573ffffffffffffffffffffffffffffffffffffffff1673ffffffffffffffffffffffffffffffffffffffff16815260200190815260200160002060008473ffffffffffffffffffffffffffffffffffffffff1673ffffffffffffffffffffffffffffffffffffffff168152602001908152602001600020819055508173ffffffffffffffffffffffffffffffffffffffff168373ffffffffffffffffffffffffffffffffffffffff167f8c5be1e5ebec7d5bd14f71427d1e84f3dd0314c0f7b2291e5b200ac8c7c3b92583604051610a7b91906114e9565b60405180910390a3505050565b600073ffffffffffffffffffffffffffffffffffffffff168373ffffffffffffffffffffffffffffffffffffffff161415610af8576040517f08c379a0000000000000000000000000000000000000000000000000000000008152600401610aef90611469565b60405180910390fd5b600073ffffffffffffffffffffffffffffffffffffffff168273ffffffffffffffffffffffffffffffffffffffff161415610b68576040517f08c379a0000000000000000000000000000000000000000000000000000000008152600401610b5f906113e9565b60405180910390fd5b610b73838383610eef565b60008060008573ffffffffffffffffffffffffffffffffffffffff1673ffffffffffffffffffffffffffffffffffffffff16815260200190815260200160002054905081811015610bf9576040517f08c379a0000000000000000000000000000000000000000000000000000000008152600401610bf090611429565b60405180910390fd5b8181036000808673ffffffffffffffffffffffffffffffffffffffff1673ffffffffffffffffffffffffffffffffffffffff16815260200190815260200160002081905550816000808573ffffffffffffffffffffffffffffffffffffffff1673ffffffffffffffffffffffffffffffffffffffff1681526020019081526020016000206000828254610c8c919061153b565b925050819055508273ffffffffffffffffffffffffffffffffffffffff168473ffffffffffffffffffffffffffffffffffffffff167fddf252ad1be2c89b69c2b068fc378daa952ba7f163c4a11628f55a4df523b3ef84604051610cf091906114e9565b60405180910390a3610d03848484610ef4565b50505050565b600073ffffffffffffffffffffffffffffffffffffffff168273ffffffffffffffffffffffffffffffffffffffff161415610d79576040517f08c379a0000000000000000000000000000000000000000000000000000000008152600401610d70906114c9565b60405180910390fd5b610d8560008383610eef565b8060026000828254610d97919061153b565b92505081905550806000808473ffffffffffffffffffffffffffffffffffffffff1673ffffffffffffffffffffffffffffffffffffffff1681526020019081526020016000206000828254610dec919061153b565b925050819055508173ffffffffffffffffffffffffffffffffffffffff16600073ffffffffffffffffffffffffffffffffffffffff167fddf252ad1be2c89b69c2b068fc378daa952ba7f163c4a11628f55a4df523b3ef83604051610e5191906114e9565b60405180910390a3610e6560008383610ef4565b5050565b600080600a60065442610e7c919061161c565b610e86919061153b565b9050670de0b6b3a76400006301e1338082670de0b6b3a76400006001610eac91906115c2565b610eb691906115c2565b610ec09190611591565b610eca9190611591565b670de0b6b3a76400006001610edf91906115c2565b610ee9919061153b565b91505090565b505050565b505050565b600081359050610f08816117a8565b92915050565b600081359050610f1d816117bf565b92915050565b600060208284031215610f3557600080fd5b6000610f4384828501610ef9565b91505092915050565b60008060408385031215610f5f57600080fd5b6000610f6d85828601610ef9565b9250506020610f7e85828601610ef9565b9150509250929050565b600080600060608486031215610f9d57600080fd5b6000610fab86828701610ef9565b9350506020610fbc86828701610ef9565b9250506040610fcd86828701610f0e565b9150509250925092565b60008060408385031215610fea57600080fd5b6000610ff885828601610ef9565b925050602061100985828601610f0e565b9150509250929050565b60006020828403121561102557600080fd5b600061103384828501610f0e565b91505092915050565b61104581611662565b82525050565b60006110568261151f565b611060818561152a565b93506110708185602086016116a5565b61107981611797565b840191505092915050565b600061109160238361152a565b91507f45524332303a207472616e7366657220746f20746865207a65726f206164647260008301527f65737300000000000000000000000000000000000000000000000000000000006020830152604082019050919050565b60006110f760228361152a565b91507f45524332303a20617070726f766520746f20746865207a65726f20616464726560008301527f73730000000000000000000000000000000000000000000000000000000000006020830152604082019050919050565b600061115d60268361152a565b91507f45524332303a207472616e7366657220616d6f756e742065786365656473206260008301527f616c616e636500000000000000000000000000000000000000000000000000006020830152604082019050919050565b60006111c360288361152a565b91507f45524332303a207472616e7366657220616d6f756e742065786365656473206160008301527f6c6c6f77616e63650000000000000000000000000000000000000000000000006020830152604082019050919050565b600061122960258361152a565b91507f45524332303a207472616e736665722066726f6d20746865207a65726f20616460008301527f64726573730000000000000000000000000000000000000000000000000000006020830152604082019050919050565b600061128f60248361152a565b91507f45524332303a20617070726f76652066726f6d20746865207a65726f2061646460008301527f72657373000000000000000000000000000000000000000000000000000000006020830152604082019050919050565b60006112f560258361152a565b91507f45524332303a2064656372656173656420616c6c6f77616e63652062656c6f7760008301527f207a65726f0000000000000000000000000000000000000000000000000000006020830152604082019050919050565b600061135b601f8361152a565b91507f45524332303a206d696e7420746f20746865207a65726f2061646472657373006000830152602082019050919050565b6113978161168e565b82525050565b6113a681611698565b82525050565b60006020820190506113c1600083018461103c565b92915050565b600060208201905081810360008301526113e1818461104b565b905092915050565b6000602082019050818103600083015261140281611084565b9050919050565b60006020820190508181036000830152611422816110ea565b9050919050565b6000602082019050818103600083015261144281611150565b9050919050565b60006020820190508181036000830152611462816111b6565b9050919050565b600060208201905081810360008301526114828161121c565b9050919050565b600060208201905081810360008301526114a281611282565b9050919050565b600060208201905081810360008301526114c2816112e8565b9050919050565b600060208201905081810360008301526114e28161134e565b9050919050565b60006020820190506114fe600083018461138e565b92915050565b6000602082019050611519600083018461139d565b92915050565b600081519050919050565b600082825260208201905092915050565b60006115468261168e565b91506115518361168e565b9250827fffffffffffffffffffffffffffffffffffffffffffffffffffffffffffffffff038211156115865761158561170a565b5b828201905092915050565b600061159c8261168e565b91506115a78361168e565b9250826115b7576115b6611739565b5b828204905092915050565b60006115cd8261168e565b91506115d88361168e565b9250817fffffffffffffffffffffffffffffffffffffffffffffffffffffffffffffffff04831182151516156116115761161061170a565b5b828202905092915050565b60006116278261168e565b91506116328361168e565b9250828210156116455761164461170a565b5b828203905092915050565b600061165b8261166e565b9050919050565b60008115159050919050565b600073ffffffffffffffffffffffffffffffffffffffff82169050919050565b6000819050919050565b600060ff82169050919050565b60005b838110156116c35780820151818401526020810190506116a8565b838111156116d2576000848401525b50505050565b600060028204905060018216806116f057607f821691505b6020821081141561170457611703611768565b5b50919050565b7f4e487b7100000000000000000000000000000000000000000000000000000000600052601160045260246000fd5b7f4e487b7100000000000000000000000000000000000000000000000000000000600052601260045260246000fd5b7f4e487b7100000000000000000000000000000000000000000000000000000000600052602260045260246000fd5b6000601f19601f8301169050919050565b6117b181611650565b81146117bc57600080fd5b50565b6117c88161168e565b81146117d357600080fd5b5056fea26469706673582212207f99c3415fa172065ee70cbe2fc3b67c4f3164b918263f528ff014869e1d685f64736f6c63430008000033",
  "immutableReferences": {},
  "source": "// SPDX-License-Identifier: MIT\r\npragma solidity >=0.4.22 <0.9.0;\r\nimport '@openzeppelin/contracts/token/ERC20/ERC20.sol';\r\nimport '../curvefi/IRenERC20.sol';\r\n\r\ncontract Stub_RenERC20 is ERC20{\r\n   \r\n    uint public exchangeRateStored;\r\n    uint constant EXP_SCALE = 1e18;\r\n    uint constant INITIAL_RATE = 1 * EXP_SCALE;\r\n    uint prev_time;\r\n    address underlying;\r\n\r\n    \r\n    constructor() ERC20('RenTokens','renBTC/wBTC'){\r\n    }\r\n    \r\n    function mint(address _to, uint _value) external {\r\n       _mint(_to,_value);\r\n    }\r\n    \r\n    function initialize(address _underlying) public{\r\n        exchangeRateStored = 10 ** 18;\r\n        underlying = _underlying;\r\n        prev_time = block.timestamp;\r\n    }\r\n\r\n    function set_exchange_rate(uint rate) public {\r\n        exchangeRateStored = rate;\r\n    }\r\n\r\n    function exchangeRateCurrent() public view returns(uint){\r\n        return _exchangeRate(); //exchangeRateStored\r\n    }\r\n\r\n    function _exchangeRate() internal view returns(uint){\r\n        uint sec = block.timestamp - prev_time + 10;\r\n        return INITIAL_RATE + (INITIAL_RATE * sec / 365 days / EXP_SCALE);\r\n    }\r\n\r\n}",
  "sourcePath": "D:/BlockChain/Ethereum-201/Ren-project/contracts/TestContracts/Stub_RenERC20.sol",
  "compiler": {
    "name": "solc",
    "version": "0.8.0+commit.c7dfd78e.Emscripten.clang"
  },
  "schemaVersion": "3.4.1",
  "updatedAt": "2021-11-03T14:03:38.794Z",
  "networkType": "ethereum",
  "devdoc": {
    "kind": "dev",
    "methods": {
      "allowance(address,address)": {
        "details": "See {IERC20-allowance}."
      },
      "approve(address,uint256)": {
        "details": "See {IERC20-approve}. Requirements: - `spender` cannot be the zero address."
      },
      "balanceOf(address)": {
        "details": "See {IERC20-balanceOf}."
      },
      "decimals()": {
        "details": "Returns the number of decimals used to get its user representation. For example, if `decimals` equals `2`, a balance of `505` tokens should be displayed to a user as `5.05` (`505 / 10 ** 2`). Tokens usually opt for a value of 18, imitating the relationship between Ether and Wei. This is the value {ERC20} uses, unless this function is overridden; NOTE: This information is only used for _display_ purposes: it in no way affects any of the arithmetic of the contract, including {IERC20-balanceOf} and {IERC20-transfer}."
      },
      "decreaseAllowance(address,uint256)": {
        "details": "Atomically decreases the allowance granted to `spender` by the caller. This is an alternative to {approve} that can be used as a mitigation for problems described in {IERC20-approve}. Emits an {Approval} event indicating the updated allowance. Requirements: - `spender` cannot be the zero address. - `spender` must have allowance for the caller of at least `subtractedValue`."
      },
      "increaseAllowance(address,uint256)": {
        "details": "Atomically increases the allowance granted to `spender` by the caller. This is an alternative to {approve} that can be used as a mitigation for problems described in {IERC20-approve}. Emits an {Approval} event indicating the updated allowance. Requirements: - `spender` cannot be the zero address."
      },
      "name()": {
        "details": "Returns the name of the token."
      },
      "symbol()": {
        "details": "Returns the symbol of the token, usually a shorter version of the name."
      },
      "totalSupply()": {
        "details": "See {IERC20-totalSupply}."
      },
      "transfer(address,uint256)": {
        "details": "See {IERC20-transfer}. Requirements: - `recipient` cannot be the zero address. - the caller must have a balance of at least `amount`."
      },
      "transferFrom(address,address,uint256)": {
        "details": "See {IERC20-transferFrom}. Emits an {Approval} event indicating the updated allowance. This is not required by the EIP. See the note at the beginning of {ERC20}. Requirements: - `sender` and `recipient` cannot be the zero address. - `sender` must have a balance of at least `amount`. - the caller must have allowance for ``sender``'s tokens of at least `amount`."
      }
    },
    "version": 1
  },
  "userdoc": {
    "kind": "user",
    "methods": {},
    "version": 1
  }
}